{
	"docs.chain.link/samples/VRF/LotteryContract.sol": {
		"Lottery": {
			"abi": [
				{
					"inputs": [],
					"stateMutability": "nonpayable",
					"type": "constructor"
				},
				{
					"inputs": [],
					"name": "closeLottery",
					"outputs": [],
					"stateMutability": "nonpayable",
					"type": "function"
				},
				{
					"inputs": [],
					"name": "getPlayers",
					"outputs": [
						{
							"internalType": "address payable[]",
							"name": "",
							"type": "address[]"
						}
					],
					"stateMutability": "view",
					"type": "function"
				},
				{
					"inputs": [],
					"name": "lottery_state",
					"outputs": [
						{
							"internalType": "enum Lottery.LOTTERY_STATE",
							"name": "",
							"type": "uint8"
						}
					],
					"stateMutability": "view",
					"type": "function"
				},
				{
					"inputs": [],
					"name": "manager",
					"outputs": [
						{
							"internalType": "address payable",
							"name": "",
							"type": "address"
						}
					],
					"stateMutability": "view",
					"type": "function"
				},
				{
					"inputs": [],
					"name": "pickWinner",
					"outputs": [],
					"stateMutability": "nonpayable",
					"type": "function"
				},
				{
					"inputs": [
						{
							"internalType": "uint256",
							"name": "",
							"type": "uint256"
						}
					],
					"name": "players",
					"outputs": [
						{
							"internalType": "address payable",
							"name": "",
							"type": "address"
						}
					],
					"stateMutability": "view",
					"type": "function"
				},
				{
					"inputs": [],
					"name": "requestVRF",
					"outputs": [],
					"stateMutability": "nonpayable",
					"type": "function"
				},
				{
					"inputs": [
						{
							"internalType": "uint256",
							"name": "",
							"type": "uint256"
						}
					],
					"name": "roundToWinner",
					"outputs": [
						{
							"internalType": "address",
							"name": "",
							"type": "address"
						}
					],
					"stateMutability": "view",
					"type": "function"
				},
				{
					"stateMutability": "payable",
					"type": "receive"
				}
			],
			"devdoc": {
				"kind": "dev",
				"methods": {},
				"version": 1
			},
			"evm": {
				"assembly": "    /* \"docs.chain.link/samples/VRF/LotteryContract.sol\":93:3315  contract Lottery {... */\n  mstore(0x40, 0x80)\n    /* \"docs.chain.link/samples/VRF/LotteryContract.sol\":560:754  constructor() {... */\n  callvalue\n  dup1\n  iszero\n  tag_1\n  jumpi\n  0x00\n  dup1\n  revert\ntag_1:\n  pop\n    /* \"docs.chain.link/samples/VRF/LotteryContract.sol\":603:613  msg.sender */\n  caller\n    /* \"docs.chain.link/samples/VRF/LotteryContract.sol\":585:592  manager */\n  0x00\n  dup1\n    /* \"docs.chain.link/samples/VRF/LotteryContract.sol\":585:614  manager = payable(msg.sender) */\n  0x0100\n  exp\n  dup2\n  sload\n  dup2\n  0xffffffffffffffffffffffffffffffffffffffff\n  mul\n  not\n  and\n  swap1\n  dup4\n  0xffffffffffffffffffffffffffffffffffffffff\n  and\n  mul\n  or\n  swap1\n  sstore\n  pop\n    /* \"docs.chain.link/samples/VRF/LotteryContract.sol\":641:659  LOTTERY_STATE.OPEN */\n  0x00\n    /* \"docs.chain.link/samples/VRF/LotteryContract.sol\":625:638  lottery_state */\n  0x05\n  0x00\n    /* \"docs.chain.link/samples/VRF/LotteryContract.sol\":625:659  lottery_state = LOTTERY_STATE.OPEN */\n  0x0100\n  exp\n  dup2\n  sload\n  dup2\n  0xff\n  mul\n  not\n  and\n  swap1\n  dup4\n  0x02\n  dup2\n  gt\n  iszero\n  tag_4\n  jumpi\n  tag_5\n  tag_6\n  jump\t// in\ntag_5:\ntag_4:\n  mul\n  or\n  swap1\n  sstore\n  pop\n    /* \"docs.chain.link/samples/VRF/LotteryContract.sol\":703:745  0xcD71a8c2291aa5deabb1F3cFC651c137887f2A54 */\n  0xcd71a8c2291aa5deabb1f3cfc651c137887f2a54\n    /* \"docs.chain.link/samples/VRF/LotteryContract.sol\":670:686  consumerContract */\n  0x02\n  0x00\n    /* \"docs.chain.link/samples/VRF/LotteryContract.sol\":670:746  consumerContract = VRFv2Consumer(0xcD71a8c2291aa5deabb1F3cFC651c137887f2A54) */\n  0x0100\n  exp\n  dup2\n  sload\n  dup2\n  0xffffffffffffffffffffffffffffffffffffffff\n  mul\n  not\n  and\n  swap1\n  dup4\n  0xffffffffffffffffffffffffffffffffffffffff\n  and\n  mul\n  or\n  swap1\n  sstore\n  pop\n    /* \"docs.chain.link/samples/VRF/LotteryContract.sol\":93:3315  contract Lottery {... */\n  jump(tag_7)\n    /* \"#utility.yul\":7:187   */\ntag_6:\n    /* \"#utility.yul\":55:132   */\n  0x4e487b7100000000000000000000000000000000000000000000000000000000\n    /* \"#utility.yul\":52:53   */\n  0x00\n    /* \"#utility.yul\":45:133   */\n  mstore\n    /* \"#utility.yul\":152:156   */\n  0x21\n    /* \"#utility.yul\":149:150   */\n  0x04\n    /* \"#utility.yul\":142:157   */\n  mstore\n    /* \"#utility.yul\":176:180   */\n  0x24\n    /* \"#utility.yul\":173:174   */\n  0x00\n    /* \"#utility.yul\":166:181   */\n  revert\n    /* \"docs.chain.link/samples/VRF/LotteryContract.sol\":93:3315  contract Lottery {... */\ntag_7:\n  dataSize(sub_0)\n  dup1\n  dataOffset(sub_0)\n  0x00\n  codecopy\n  0x00\n  return\nstop\n\nsub_0: assembly {\n        /* \"docs.chain.link/samples/VRF/LotteryContract.sol\":93:3315  contract Lottery {... */\n      mstore(0x40, 0x80)\n      jumpi(tag_1, lt(calldatasize, 0x04))\n      shr(0xe0, calldataload(0x00))\n      dup1\n      0x81447999\n      gt\n      tag_11\n      jumpi\n      dup1\n      0x81447999\n      eq\n      tag_7\n      jumpi\n      dup1\n      0x8b5b9ccc\n      eq\n      tag_8\n      jumpi\n      dup1\n      0x8e51001d\n      eq\n      tag_9\n      jumpi\n      dup1\n      0xf71d96cb\n      eq\n      tag_10\n      jumpi\n      jump(tag_2)\n    tag_11:\n      dup1\n      0x481c6a75\n      eq\n      tag_3\n      jumpi\n      dup1\n      0x5d495aea\n      eq\n      tag_4\n      jumpi\n      dup1\n      0x6a385c04\n      eq\n      tag_5\n      jumpi\n      dup1\n      0x6fd09816\n      eq\n      tag_6\n      jumpi\n      jump(tag_2)\n    tag_1:\n      jumpi(tag_2, calldatasize)\n        /* \"docs.chain.link/samples/VRF/LotteryContract.sol\":954:961  manager */\n      0x00\n      dup1\n      sload\n      swap1\n      0x0100\n      exp\n      swap1\n      div\n      0xffffffffffffffffffffffffffffffffffffffff\n      and\n        /* \"docs.chain.link/samples/VRF/LotteryContract.sol\":931:961  payable(msg.sender) != manager */\n      0xffffffffffffffffffffffffffffffffffffffff\n      and\n        /* \"docs.chain.link/samples/VRF/LotteryContract.sol\":939:949  msg.sender */\n      caller\n        /* \"docs.chain.link/samples/VRF/LotteryContract.sol\":931:961  payable(msg.sender) != manager */\n      0xffffffffffffffffffffffffffffffffffffffff\n      and\n      sub\n        /* \"docs.chain.link/samples/VRF/LotteryContract.sol\":923:997  require(payable(msg.sender) != manager, \"Manager cannot join the lottery\") */\n      tag_14\n      jumpi\n      mload(0x40)\n      0x08c379a000000000000000000000000000000000000000000000000000000000\n      dup2\n      mstore\n      0x04\n      add\n      tag_15\n      swap1\n      tag_16\n      jump\t// in\n    tag_15:\n      mload(0x40)\n      dup1\n      swap2\n      sub\n      swap1\n      revert\n    tag_14:\n        /* \"docs.chain.link/samples/VRF/LotteryContract.sol\":1029:1040  0.011 ether */\n      0x27147114878000\n        /* \"docs.chain.link/samples/VRF/LotteryContract.sol\":1016:1025  msg.value */\n      callvalue\n        /* \"docs.chain.link/samples/VRF/LotteryContract.sol\":1016:1040  msg.value == 0.011 ether */\n      eq\n        /* \"docs.chain.link/samples/VRF/LotteryContract.sol\":1008:1082  require(msg.value == 0.011 ether, \"Must be 0.011ETH to enter the lottery\") */\n      tag_17\n      jumpi\n      mload(0x40)\n      0x08c379a000000000000000000000000000000000000000000000000000000000\n      dup2\n      mstore\n      0x04\n      add\n      tag_18\n      swap1\n      tag_19\n      jump\t// in\n    tag_18:\n      mload(0x40)\n      dup1\n      swap2\n      sub\n      swap1\n      revert\n    tag_17:\n        /* \"docs.chain.link/samples/VRF/LotteryContract.sol\":1135:1142  players */\n      0x01\n        /* \"docs.chain.link/samples/VRF/LotteryContract.sol\":1156:1166  msg.sender */\n      caller\n        /* \"docs.chain.link/samples/VRF/LotteryContract.sol\":1135:1168  players.push(payable(msg.sender)) */\n      swap1\n      dup1\n      0x01\n      dup2\n      sload\n      add\n      dup1\n      dup3\n      sstore\n      dup1\n      swap2\n      pop\n      pop\n      0x01\n      swap1\n      sub\n      swap1\n      0x00\n      mstore\n      keccak256(0x00, 0x20)\n      add\n      0x00\n      swap1\n      swap2\n      swap1\n      swap2\n      swap1\n      swap2\n      0x0100\n      exp\n      dup2\n      sload\n      dup2\n      0xffffffffffffffffffffffffffffffffffffffff\n      mul\n      not\n      and\n      swap1\n      dup4\n      0xffffffffffffffffffffffffffffffffffffffff\n      and\n      mul\n      or\n      swap1\n      sstore\n      stop\n        /* \"docs.chain.link/samples/VRF/LotteryContract.sol\":93:3315  contract Lottery {... */\n    tag_2:\n      0x00\n      dup1\n      revert\n        /* \"docs.chain.link/samples/VRF/LotteryContract.sol\":117:147  address payable public manager */\n    tag_3:\n      callvalue\n      dup1\n      iszero\n      tag_21\n      jumpi\n      0x00\n      dup1\n      revert\n    tag_21:\n      pop\n      tag_22\n      tag_23\n      jump\t// in\n    tag_22:\n      mload(0x40)\n      tag_24\n      swap2\n      swap1\n      tag_25\n      jump\t// in\n    tag_24:\n      mload(0x40)\n      dup1\n      swap2\n      sub\n      swap1\n      return\n        /* \"docs.chain.link/samples/VRF/LotteryContract.sol\":1936:3144  function pickWinner() public managerOnly {... */\n    tag_4:\n      callvalue\n      dup1\n      iszero\n      tag_26\n      jumpi\n      0x00\n      dup1\n      revert\n    tag_26:\n      pop\n      tag_27\n      tag_28\n      jump\t// in\n    tag_27:\n      stop\n        /* \"docs.chain.link/samples/VRF/LotteryContract.sol\":1305:1503  function requestVRF() public managerOnly {... */\n    tag_5:\n      callvalue\n      dup1\n      iszero\n      tag_29\n      jumpi\n      0x00\n      dup1\n      revert\n    tag_29:\n      pop\n      tag_30\n      tag_31\n      jump\t// in\n    tag_30:\n      stop\n        /* \"docs.chain.link/samples/VRF/LotteryContract.sol\":3152:3312  function closeLottery() public managerOnly {... */\n    tag_6:\n      callvalue\n      dup1\n      iszero\n      tag_32\n      jumpi\n      0x00\n      dup1\n      revert\n    tag_32:\n      pop\n      tag_33\n      tag_34\n      jump\t// in\n    tag_33:\n      stop\n        /* \"docs.chain.link/samples/VRF/LotteryContract.sol\":517:551  LOTTERY_STATE public lottery_state */\n    tag_7:\n      callvalue\n      dup1\n      iszero\n      tag_35\n      jumpi\n      0x00\n      dup1\n      revert\n    tag_35:\n      pop\n      tag_36\n      tag_37\n      jump\t// in\n    tag_36:\n      mload(0x40)\n      tag_38\n      swap2\n      swap1\n      tag_39\n      jump\t// in\n    tag_38:\n      mload(0x40)\n      dup1\n      swap2\n      sub\n      swap1\n      return\n        /* \"docs.chain.link/samples/VRF/LotteryContract.sol\":1184:1297  function getPlayers() public managerOnly view returns(address payable[] memory) {... */\n    tag_8:\n      callvalue\n      dup1\n      iszero\n      tag_40\n      jumpi\n      0x00\n      dup1\n      revert\n    tag_40:\n      pop\n      tag_41\n      tag_42\n      jump\t// in\n    tag_41:\n      mload(0x40)\n      tag_43\n      swap2\n      swap1\n      tag_44\n      jump\t// in\n    tag_43:\n      mload(0x40)\n      dup1\n      swap2\n      sub\n      swap1\n      return\n        /* \"docs.chain.link/samples/VRF/LotteryContract.sol\":303:348  mapping(uint => address) public roundToWinner */\n    tag_9:\n      callvalue\n      dup1\n      iszero\n      tag_45\n      jumpi\n      0x00\n      dup1\n      revert\n    tag_45:\n      pop\n      tag_46\n      0x04\n      dup1\n      calldatasize\n      sub\n      dup2\n      add\n      swap1\n      tag_47\n      swap2\n      swap1\n      tag_48\n      jump\t// in\n    tag_47:\n      tag_49\n      jump\t// in\n    tag_46:\n      mload(0x40)\n      tag_50\n      swap2\n      swap1\n      tag_51\n      jump\t// in\n    tag_50:\n      mload(0x40)\n      dup1\n      swap2\n      sub\n      swap1\n      return\n        /* \"docs.chain.link/samples/VRF/LotteryContract.sol\":160:192  address payable[] public players */\n    tag_10:\n      callvalue\n      dup1\n      iszero\n      tag_52\n      jumpi\n      0x00\n      dup1\n      revert\n    tag_52:\n      pop\n      tag_53\n      0x04\n      dup1\n      calldatasize\n      sub\n      dup2\n      add\n      swap1\n      tag_54\n      swap2\n      swap1\n      tag_48\n      jump\t// in\n    tag_54:\n      tag_55\n      jump\t// in\n    tag_53:\n      mload(0x40)\n      tag_56\n      swap2\n      swap1\n      tag_25\n      jump\t// in\n    tag_56:\n      mload(0x40)\n      dup1\n      swap2\n      sub\n      swap1\n      return\n        /* \"docs.chain.link/samples/VRF/LotteryContract.sol\":117:147  address payable public manager */\n    tag_23:\n      0x00\n      dup1\n      sload\n      swap1\n      0x0100\n      exp\n      swap1\n      div\n      0xffffffffffffffffffffffffffffffffffffffff\n      and\n      dup2\n      jump\t// out\n        /* \"docs.chain.link/samples/VRF/LotteryContract.sol\":1936:3144  function pickWinner() public managerOnly {... */\n    tag_28:\n        /* \"docs.chain.link/samples/VRF/LotteryContract.sol\":816:823  manager */\n      0x00\n      dup1\n      sload\n      swap1\n      0x0100\n      exp\n      swap1\n      div\n      0xffffffffffffffffffffffffffffffffffffffff\n      and\n        /* \"docs.chain.link/samples/VRF/LotteryContract.sol\":802:823  msg.sender == manager */\n      0xffffffffffffffffffffffffffffffffffffffff\n      and\n        /* \"docs.chain.link/samples/VRF/LotteryContract.sol\":802:812  msg.sender */\n      caller\n        /* \"docs.chain.link/samples/VRF/LotteryContract.sol\":802:823  msg.sender == manager */\n      0xffffffffffffffffffffffffffffffffffffffff\n      and\n      eq\n        /* \"docs.chain.link/samples/VRF/LotteryContract.sol\":794:857  require(msg.sender == manager, \"Can only be called by manager\") */\n      tag_58\n      jumpi\n      mload(0x40)\n      0x08c379a000000000000000000000000000000000000000000000000000000000\n      dup2\n      mstore\n      0x04\n      add\n      tag_59\n      swap1\n      tag_60\n      jump\t// in\n    tag_59:\n      mload(0x40)\n      dup1\n      swap2\n      sub\n      swap1\n      revert\n    tag_58:\n        /* \"docs.chain.link/samples/VRF/LotteryContract.sol\":2013:2045  LOTTERY_STATE.CALCULATING_WINNER */\n      0x02\n        /* \"docs.chain.link/samples/VRF/LotteryContract.sol\":1996:2045  lottery_state == LOTTERY_STATE.CALCULATING_WINNER */\n      dup1\n      dup2\n      gt\n      iszero\n      tag_62\n      jumpi\n      tag_63\n      tag_64\n      jump\t// in\n    tag_63:\n    tag_62:\n        /* \"docs.chain.link/samples/VRF/LotteryContract.sol\":1996:2009  lottery_state */\n      0x05\n      0x00\n      swap1\n      sload\n      swap1\n      0x0100\n      exp\n      swap1\n      div\n      0xff\n      and\n        /* \"docs.chain.link/samples/VRF/LotteryContract.sol\":1996:2045  lottery_state == LOTTERY_STATE.CALCULATING_WINNER */\n      0x02\n      dup2\n      gt\n      iszero\n      tag_65\n      jumpi\n      tag_66\n      tag_64\n      jump\t// in\n    tag_66:\n    tag_65:\n      eq\n        /* \"docs.chain.link/samples/VRF/LotteryContract.sol\":1988:2092  require(lottery_state == LOTTERY_STATE.CALCULATING_WINNER, \"Lottery is not in calculating winner state\") */\n      tag_67\n      jumpi\n      mload(0x40)\n      0x08c379a000000000000000000000000000000000000000000000000000000000\n      dup2\n      mstore\n      0x04\n      add\n      tag_68\n      swap1\n      tag_69\n      jump\t// in\n    tag_68:\n      mload(0x40)\n      dup1\n      swap2\n      sub\n      swap1\n      revert\n    tag_67:\n        /* \"docs.chain.link/samples/VRF/LotteryContract.sol\":2106:2120  bool fulfilled */\n      0x00\n        /* \"docs.chain.link/samples/VRF/LotteryContract.sol\":2122:2149  uint[] memory randomNumbers */\n      dup1\n        /* \"docs.chain.link/samples/VRF/LotteryContract.sol\":2153:2171  checkVRFResponse() */\n      tag_70\n        /* \"docs.chain.link/samples/VRF/LotteryContract.sol\":2153:2169  checkVRFResponse */\n      tag_71\n        /* \"docs.chain.link/samples/VRF/LotteryContract.sol\":2153:2171  checkVRFResponse() */\n      jump\t// in\n    tag_70:\n        /* \"docs.chain.link/samples/VRF/LotteryContract.sol\":2105:2171  (bool fulfilled, uint[] memory randomNumbers) = checkVRFResponse() */\n      swap2\n      pop\n      swap2\n      pop\n        /* \"docs.chain.link/samples/VRF/LotteryContract.sol\":2190:2199  fulfilled */\n      dup2\n        /* \"docs.chain.link/samples/VRF/LotteryContract.sol\":2182:2248  require(fulfilled, \"Random number request has not been fulfilled\") */\n      tag_72\n      jumpi\n      mload(0x40)\n      0x08c379a000000000000000000000000000000000000000000000000000000000\n      dup2\n      mstore\n      0x04\n      add\n      tag_73\n      swap1\n      tag_74\n      jump\t// in\n    tag_73:\n      mload(0x40)\n      dup1\n      swap2\n      sub\n      swap1\n      revert\n    tag_72:\n        /* \"docs.chain.link/samples/VRF/LotteryContract.sol\":2331:2332  3 */\n      0x03\n        /* \"docs.chain.link/samples/VRF/LotteryContract.sol\":2313:2320  players */\n      0x01\n        /* \"docs.chain.link/samples/VRF/LotteryContract.sol\":2313:2327  players.length */\n      dup1\n      sload\n      swap1\n      pop\n        /* \"docs.chain.link/samples/VRF/LotteryContract.sol\":2313:2332  players.length >= 3 */\n      lt\n      iszero\n        /* \"docs.chain.link/samples/VRF/LotteryContract.sol\":2305:2363  require(players.length >= 3, \"Must be at least 3 players\") */\n      tag_75\n      jumpi\n      mload(0x40)\n      0x08c379a000000000000000000000000000000000000000000000000000000000\n      dup2\n      mstore\n      0x04\n      add\n      tag_76\n      swap1\n      tag_77\n      jump\t// in\n    tag_76:\n      mload(0x40)\n      dup1\n      swap2\n      sub\n      swap1\n      revert\n    tag_75:\n        /* \"docs.chain.link/samples/VRF/LotteryContract.sol\":2430:2440  uint index */\n      0x00\n        /* \"docs.chain.link/samples/VRF/LotteryContract.sol\":2462:2469  players */\n      0x01\n        /* \"docs.chain.link/samples/VRF/LotteryContract.sol\":2462:2476  players.length */\n      dup1\n      sload\n      swap1\n      pop\n        /* \"docs.chain.link/samples/VRF/LotteryContract.sol\":2443:2456  randomNumbers */\n      dup3\n        /* \"docs.chain.link/samples/VRF/LotteryContract.sol\":2457:2458  0 */\n      0x00\n        /* \"docs.chain.link/samples/VRF/LotteryContract.sol\":2443:2459  randomNumbers[0] */\n      dup2\n      mload\n      dup2\n      lt\n      tag_78\n      jumpi\n      tag_79\n      tag_80\n      jump\t// in\n    tag_79:\n    tag_78:\n      0x20\n      mul\n      0x20\n      add\n      add\n      mload\n        /* \"docs.chain.link/samples/VRF/LotteryContract.sol\":2443:2476  randomNumbers[0] % players.length */\n      tag_81\n      swap2\n      swap1\n      tag_82\n      jump\t// in\n    tag_81:\n        /* \"docs.chain.link/samples/VRF/LotteryContract.sol\":2430:2476  uint index = randomNumbers[0] % players.length */\n      swap1\n      pop\n        /* \"docs.chain.link/samples/VRF/LotteryContract.sol\":2487:2509  address payable winner */\n      0x00\n        /* \"docs.chain.link/samples/VRF/LotteryContract.sol\":2512:2519  players */\n      0x01\n        /* \"docs.chain.link/samples/VRF/LotteryContract.sol\":2520:2525  index */\n      dup3\n        /* \"docs.chain.link/samples/VRF/LotteryContract.sol\":2512:2526  players[index] */\n      dup2\n      sload\n      dup2\n      lt\n      tag_83\n      jumpi\n      tag_84\n      tag_80\n      jump\t// in\n    tag_84:\n    tag_83:\n      swap1\n      0x00\n      mstore\n      keccak256(0x00, 0x20)\n      add\n      0x00\n      swap1\n      sload\n      swap1\n      0x0100\n      exp\n      swap1\n      div\n      0xffffffffffffffffffffffffffffffffffffffff\n      and\n        /* \"docs.chain.link/samples/VRF/LotteryContract.sol\":2487:2526  address payable winner = players[index] */\n      swap1\n      pop\n        /* \"docs.chain.link/samples/VRF/LotteryContract.sol\":2573:2589  bool sentManager */\n      0x00\n        /* \"docs.chain.link/samples/VRF/LotteryContract.sol\":2595:2602  manager */\n      dup1\n      0x00\n      swap1\n      sload\n      swap1\n      0x0100\n      exp\n      swap1\n      div\n      0xffffffffffffffffffffffffffffffffffffffff\n      and\n        /* \"docs.chain.link/samples/VRF/LotteryContract.sol\":2595:2607  manager.call */\n      0xffffffffffffffffffffffffffffffffffffffff\n      and\n        /* \"docs.chain.link/samples/VRF/LotteryContract.sol\":2643:2650  players */\n      0x01\n        /* \"docs.chain.link/samples/VRF/LotteryContract.sol\":2643:2657  players.length */\n      dup1\n      sload\n      swap1\n      pop\n        /* \"docs.chain.link/samples/VRF/LotteryContract.sol\":2629:2640  0.001 ether */\n      0x038d7ea4c68000\n        /* \"docs.chain.link/samples/VRF/LotteryContract.sol\":2629:2657  0.001 ether * players.length */\n      tag_86\n      swap2\n      swap1\n      tag_87\n      jump\t// in\n    tag_86:\n        /* \"docs.chain.link/samples/VRF/LotteryContract.sol\":2595:2672  manager.call{... */\n      mload(0x40)\n      tag_88\n      swap1\n      tag_89\n      jump\t// in\n    tag_88:\n      0x00\n      mload(0x40)\n      dup1\n      dup4\n      sub\n      dup2\n      dup6\n      dup8\n      gas\n      call\n      swap3\n      pop\n      pop\n      pop\n      returndatasize\n      dup1\n      0x00\n      dup2\n      eq\n      tag_92\n      jumpi\n      mload(0x40)\n      swap2\n      pop\n      and(add(returndatasize, 0x3f), not(0x1f))\n      dup3\n      add\n      0x40\n      mstore\n      returndatasize\n      dup3\n      mstore\n      returndatasize\n      0x00\n      0x20\n      dup5\n      add\n      returndatacopy\n      jump(tag_91)\n    tag_92:\n      0x60\n      swap2\n      pop\n    tag_91:\n      pop\n        /* \"docs.chain.link/samples/VRF/LotteryContract.sol\":2572:2672  (bool sentManager, ) = manager.call{... */\n      pop\n      swap1\n      pop\n        /* \"docs.chain.link/samples/VRF/LotteryContract.sol\":2691:2702  sentManager */\n      dup1\n        /* \"docs.chain.link/samples/VRF/LotteryContract.sol\":2683:2733  require(sentManager, \"Failed to sent manager fee\") */\n      tag_93\n      jumpi\n      mload(0x40)\n      0x08c379a000000000000000000000000000000000000000000000000000000000\n      dup2\n      mstore\n      0x04\n      add\n      tag_94\n      swap1\n      tag_95\n      jump\t// in\n    tag_94:\n      mload(0x40)\n      dup1\n      swap2\n      sub\n      swap1\n      revert\n    tag_93:\n        /* \"docs.chain.link/samples/VRF/LotteryContract.sol\":2813:2828  bool sentWinner */\n      0x00\n        /* \"docs.chain.link/samples/VRF/LotteryContract.sol\":2834:2840  winner */\n      dup3\n        /* \"docs.chain.link/samples/VRF/LotteryContract.sol\":2834:2845  winner.call */\n      0xffffffffffffffffffffffffffffffffffffffff\n      and\n        /* \"docs.chain.link/samples/VRF/LotteryContract.sol\":2867:2888  address(this).balance */\n      selfbalance\n        /* \"docs.chain.link/samples/VRF/LotteryContract.sol\":2834:2903  winner.call{... */\n      mload(0x40)\n      tag_96\n      swap1\n      tag_89\n      jump\t// in\n    tag_96:\n      0x00\n      mload(0x40)\n      dup1\n      dup4\n      sub\n      dup2\n      dup6\n      dup8\n      gas\n      call\n      swap3\n      pop\n      pop\n      pop\n      returndatasize\n      dup1\n      0x00\n      dup2\n      eq\n      tag_99\n      jumpi\n      mload(0x40)\n      swap2\n      pop\n      and(add(returndatasize, 0x3f), not(0x1f))\n      dup3\n      add\n      0x40\n      mstore\n      returndatasize\n      dup3\n      mstore\n      returndatasize\n      0x00\n      0x20\n      dup5\n      add\n      returndatacopy\n      jump(tag_98)\n    tag_99:\n      0x60\n      swap2\n      pop\n    tag_98:\n      pop\n        /* \"docs.chain.link/samples/VRF/LotteryContract.sol\":2812:2903  (bool sentWinner, ) = winner.call{... */\n      pop\n      swap1\n      pop\n        /* \"docs.chain.link/samples/VRF/LotteryContract.sol\":2922:2932  sentWinner */\n      dup1\n        /* \"docs.chain.link/samples/VRF/LotteryContract.sol\":2914:2966  require(sentWinner, \"Failed to send winner's prize\") */\n      tag_100\n      jumpi\n      mload(0x40)\n      0x08c379a000000000000000000000000000000000000000000000000000000000\n      dup2\n      mstore\n      0x04\n      add\n      tag_101\n      swap1\n      tag_102\n      jump\t// in\n    tag_101:\n      mload(0x40)\n      dup1\n      swap2\n      sub\n      swap1\n      revert\n    tag_100:\n        /* \"docs.chain.link/samples/VRF/LotteryContract.sol\":2977:2984  roundId */\n      0x03\n      0x00\n        /* \"docs.chain.link/samples/VRF/LotteryContract.sol\":2977:2986  roundId++ */\n      dup2\n      sload\n      dup1\n      swap3\n      swap2\n      swap1\n      tag_103\n      swap1\n      tag_104\n      jump\t// in\n    tag_103:\n      swap2\n      swap1\n      pop\n      sstore\n      pop\n        /* \"docs.chain.link/samples/VRF/LotteryContract.sol\":3038:3044  winner */\n      dup3\n        /* \"docs.chain.link/samples/VRF/LotteryContract.sol\":3013:3026  roundToWinner */\n      0x04\n        /* \"docs.chain.link/samples/VRF/LotteryContract.sol\":3013:3035  roundToWinner[roundId] */\n      0x00\n        /* \"docs.chain.link/samples/VRF/LotteryContract.sol\":3027:3034  roundId */\n      sload(0x03)\n        /* \"docs.chain.link/samples/VRF/LotteryContract.sol\":3013:3035  roundToWinner[roundId] */\n      dup2\n      mstore\n      0x20\n      add\n      swap1\n      dup2\n      mstore\n      0x20\n      add\n      0x00\n      keccak256\n      0x00\n        /* \"docs.chain.link/samples/VRF/LotteryContract.sol\":3013:3044  roundToWinner[roundId] = winner */\n      0x0100\n      exp\n      dup2\n      sload\n      dup2\n      0xffffffffffffffffffffffffffffffffffffffff\n      mul\n      not\n      and\n      swap1\n      dup4\n      0xffffffffffffffffffffffffffffffffffffffff\n      and\n      mul\n      or\n      swap1\n      sstore\n      pop\n        /* \"docs.chain.link/samples/VRF/LotteryContract.sol\":3087:3088  0 */\n      0x00\n        /* \"docs.chain.link/samples/VRF/LotteryContract.sol\":3065:3089  new address payable[](0) */\n      0xffffffffffffffff\n      dup2\n      gt\n      iszero\n      tag_105\n      jumpi\n      tag_106\n      tag_107\n      jump\t// in\n    tag_106:\n    tag_105:\n      mload(0x40)\n      swap1\n      dup1\n      dup3\n      mstore\n      dup1\n      0x20\n      mul\n      0x20\n      add\n      dup3\n      add\n      0x40\n      mstore\n      dup1\n      iszero\n      tag_108\n      jumpi\n      dup2\n      0x20\n      add\n      0x20\n      dup3\n      mul\n      dup1\n      calldatasize\n      dup4\n      calldatacopy\n      dup1\n      dup3\n      add\n      swap2\n      pop\n      pop\n      swap1\n      pop\n    tag_108:\n      pop\n        /* \"docs.chain.link/samples/VRF/LotteryContract.sol\":3055:3062  players */\n      0x01\n        /* \"docs.chain.link/samples/VRF/LotteryContract.sol\":3055:3089  players = new address payable[](0) */\n      swap1\n      dup1\n      mload\n      swap1\n      0x20\n      add\n      swap1\n      tag_109\n      swap3\n      swap2\n      swap1\n      tag_110\n      jump\t// in\n    tag_109:\n      pop\n        /* \"docs.chain.link/samples/VRF/LotteryContract.sol\":3118:3136  LOTTERY_STATE.OPEN */\n      0x00\n        /* \"docs.chain.link/samples/VRF/LotteryContract.sol\":3102:3115  lottery_state */\n      0x05\n      0x00\n        /* \"docs.chain.link/samples/VRF/LotteryContract.sol\":3102:3136  lottery_state = LOTTERY_STATE.OPEN */\n      0x0100\n      exp\n      dup2\n      sload\n      dup2\n      0xff\n      mul\n      not\n      and\n      swap1\n      dup4\n      0x02\n      dup2\n      gt\n      iszero\n      tag_111\n      jumpi\n      tag_112\n      tag_64\n      jump\t// in\n    tag_112:\n    tag_111:\n      mul\n      or\n      swap1\n      sstore\n      pop\n        /* \"docs.chain.link/samples/VRF/LotteryContract.sol\":1977:3144  {... */\n      pop\n      pop\n      pop\n      pop\n      pop\n      pop\n        /* \"docs.chain.link/samples/VRF/LotteryContract.sol\":1936:3144  function pickWinner() public managerOnly {... */\n      jump\t// out\n        /* \"docs.chain.link/samples/VRF/LotteryContract.sol\":1305:1503  function requestVRF() public managerOnly {... */\n    tag_31:\n        /* \"docs.chain.link/samples/VRF/LotteryContract.sol\":816:823  manager */\n      0x00\n      dup1\n      sload\n      swap1\n      0x0100\n      exp\n      swap1\n      div\n      0xffffffffffffffffffffffffffffffffffffffff\n      and\n        /* \"docs.chain.link/samples/VRF/LotteryContract.sol\":802:823  msg.sender == manager */\n      0xffffffffffffffffffffffffffffffffffffffff\n      and\n        /* \"docs.chain.link/samples/VRF/LotteryContract.sol\":802:812  msg.sender */\n      caller\n        /* \"docs.chain.link/samples/VRF/LotteryContract.sol\":802:823  msg.sender == manager */\n      0xffffffffffffffffffffffffffffffffffffffff\n      and\n      eq\n        /* \"docs.chain.link/samples/VRF/LotteryContract.sol\":794:857  require(msg.sender == manager, \"Can only be called by manager\") */\n      tag_114\n      jumpi\n      mload(0x40)\n      0x08c379a000000000000000000000000000000000000000000000000000000000\n      dup2\n      mstore\n      0x04\n      add\n      tag_115\n      swap1\n      tag_60\n      jump\t// in\n    tag_115:\n      mload(0x40)\n      dup1\n      swap2\n      sub\n      swap1\n      revert\n    tag_114:\n        /* \"docs.chain.link/samples/VRF/LotteryContract.sol\":1399:1415  consumerContract */\n      0x02\n      0x00\n      swap1\n      sload\n      swap1\n      0x0100\n      exp\n      swap1\n      div\n      0xffffffffffffffffffffffffffffffffffffffff\n      and\n        /* \"docs.chain.link/samples/VRF/LotteryContract.sol\":1399:1434  consumerContract.requestRandomWords */\n      0xffffffffffffffffffffffffffffffffffffffff\n      and\n      0xe0c86289\n        /* \"docs.chain.link/samples/VRF/LotteryContract.sol\":1399:1436  consumerContract.requestRandomWords() */\n      mload(0x40)\n      dup2\n      0xffffffff\n      and\n      0xe0\n      shl\n      dup2\n      mstore\n      0x04\n      add\n      0x20\n      mload(0x40)\n      dup1\n      dup4\n      sub\n      dup2\n      0x00\n      dup8\n      gas\n      call\n      iszero\n      dup1\n      iszero\n      tag_118\n      jumpi\n      returndatasize\n      0x00\n      dup1\n      returndatacopy\n      revert(0x00, returndatasize)\n    tag_118:\n      pop\n      pop\n      pop\n      pop\n      mload(0x40)\n      returndatasize\n      not(0x1f)\n      0x1f\n      dup3\n      add\n      and\n      dup3\n      add\n      dup1\n      0x40\n      mstore\n      pop\n      dup2\n      add\n      swap1\n      tag_119\n      swap2\n      swap1\n      tag_120\n      jump\t// in\n    tag_119:\n      pop\n        /* \"docs.chain.link/samples/VRF/LotteryContract.sol\":1463:1495  LOTTERY_STATE.CALCULATING_WINNER */\n      0x02\n        /* \"docs.chain.link/samples/VRF/LotteryContract.sol\":1447:1460  lottery_state */\n      0x05\n      0x00\n        /* \"docs.chain.link/samples/VRF/LotteryContract.sol\":1447:1495  lottery_state = LOTTERY_STATE.CALCULATING_WINNER */\n      0x0100\n      exp\n      dup2\n      sload\n      dup2\n      0xff\n      mul\n      not\n      and\n      swap1\n      dup4\n      0x02\n      dup2\n      gt\n      iszero\n      tag_121\n      jumpi\n      tag_122\n      tag_64\n      jump\t// in\n    tag_122:\n    tag_121:\n      mul\n      or\n      swap1\n      sstore\n      pop\n        /* \"docs.chain.link/samples/VRF/LotteryContract.sol\":1305:1503  function requestVRF() public managerOnly {... */\n      jump\t// out\n        /* \"docs.chain.link/samples/VRF/LotteryContract.sol\":3152:3312  function closeLottery() public managerOnly {... */\n    tag_34:\n        /* \"docs.chain.link/samples/VRF/LotteryContract.sol\":816:823  manager */\n      0x00\n      dup1\n      sload\n      swap1\n      0x0100\n      exp\n      swap1\n      div\n      0xffffffffffffffffffffffffffffffffffffffff\n      and\n        /* \"docs.chain.link/samples/VRF/LotteryContract.sol\":802:823  msg.sender == manager */\n      0xffffffffffffffffffffffffffffffffffffffff\n      and\n        /* \"docs.chain.link/samples/VRF/LotteryContract.sol\":802:812  msg.sender */\n      caller\n        /* \"docs.chain.link/samples/VRF/LotteryContract.sol\":802:823  msg.sender == manager */\n      0xffffffffffffffffffffffffffffffffffffffff\n      and\n      eq\n        /* \"docs.chain.link/samples/VRF/LotteryContract.sol\":794:857  require(msg.sender == manager, \"Can only be called by manager\") */\n      tag_124\n      jumpi\n      mload(0x40)\n      0x08c379a000000000000000000000000000000000000000000000000000000000\n      dup2\n      mstore\n      0x04\n      add\n      tag_125\n      swap1\n      tag_60\n      jump\t// in\n    tag_125:\n      mload(0x40)\n      dup1\n      swap2\n      sub\n      swap1\n      revert\n    tag_124:\n        /* \"docs.chain.link/samples/VRF/LotteryContract.sol\":3232:3233  0 */\n      0x00\n        /* \"docs.chain.link/samples/VRF/LotteryContract.sol\":3214:3221  players */\n      0x01\n        /* \"docs.chain.link/samples/VRF/LotteryContract.sol\":3214:3228  players.length */\n      dup1\n      sload\n      swap1\n      pop\n        /* \"docs.chain.link/samples/VRF/LotteryContract.sol\":3214:3233  players.length == 0 */\n      eq\n        /* \"docs.chain.link/samples/VRF/LotteryContract.sol\":3206:3258  require(players.length == 0, \"Players have entered\") */\n      tag_127\n      jumpi\n      mload(0x40)\n      0x08c379a000000000000000000000000000000000000000000000000000000000\n      dup2\n      mstore\n      0x04\n      add\n      tag_128\n      swap1\n      tag_129\n      jump\t// in\n    tag_128:\n      mload(0x40)\n      dup1\n      swap2\n      sub\n      swap1\n      revert\n    tag_127:\n        /* \"docs.chain.link/samples/VRF/LotteryContract.sol\":3285:3304  LOTTERY_STATE.CLOSE */\n      0x01\n        /* \"docs.chain.link/samples/VRF/LotteryContract.sol\":3269:3282  lottery_state */\n      0x05\n      0x00\n        /* \"docs.chain.link/samples/VRF/LotteryContract.sol\":3269:3304  lottery_state = LOTTERY_STATE.CLOSE */\n      0x0100\n      exp\n      dup2\n      sload\n      dup2\n      0xff\n      mul\n      not\n      and\n      swap1\n      dup4\n      0x02\n      dup2\n      gt\n      iszero\n      tag_130\n      jumpi\n      tag_131\n      tag_64\n      jump\t// in\n    tag_131:\n    tag_130:\n      mul\n      or\n      swap1\n      sstore\n      pop\n        /* \"docs.chain.link/samples/VRF/LotteryContract.sol\":3152:3312  function closeLottery() public managerOnly {... */\n      jump\t// out\n        /* \"docs.chain.link/samples/VRF/LotteryContract.sol\":517:551  LOTTERY_STATE public lottery_state */\n    tag_37:\n      0x05\n      0x00\n      swap1\n      sload\n      swap1\n      0x0100\n      exp\n      swap1\n      div\n      0xff\n      and\n      dup2\n      jump\t// out\n        /* \"docs.chain.link/samples/VRF/LotteryContract.sol\":1184:1297  function getPlayers() public managerOnly view returns(address payable[] memory) {... */\n    tag_42:\n        /* \"docs.chain.link/samples/VRF/LotteryContract.sol\":1238:1262  address payable[] memory */\n      0x60\n        /* \"docs.chain.link/samples/VRF/LotteryContract.sol\":816:823  manager */\n      0x00\n      dup1\n      sload\n      swap1\n      0x0100\n      exp\n      swap1\n      div\n      0xffffffffffffffffffffffffffffffffffffffff\n      and\n        /* \"docs.chain.link/samples/VRF/LotteryContract.sol\":802:823  msg.sender == manager */\n      0xffffffffffffffffffffffffffffffffffffffff\n      and\n        /* \"docs.chain.link/samples/VRF/LotteryContract.sol\":802:812  msg.sender */\n      caller\n        /* \"docs.chain.link/samples/VRF/LotteryContract.sol\":802:823  msg.sender == manager */\n      0xffffffffffffffffffffffffffffffffffffffff\n      and\n      eq\n        /* \"docs.chain.link/samples/VRF/LotteryContract.sol\":794:857  require(msg.sender == manager, \"Can only be called by manager\") */\n      tag_133\n      jumpi\n      mload(0x40)\n      0x08c379a000000000000000000000000000000000000000000000000000000000\n      dup2\n      mstore\n      0x04\n      add\n      tag_134\n      swap1\n      tag_60\n      jump\t// in\n    tag_134:\n      mload(0x40)\n      dup1\n      swap2\n      sub\n      swap1\n      revert\n    tag_133:\n        /* \"docs.chain.link/samples/VRF/LotteryContract.sol\":1282:1289  players */\n      0x01\n        /* \"docs.chain.link/samples/VRF/LotteryContract.sol\":1275:1289  return players */\n      dup1\n      sload\n      dup1\n      0x20\n      mul\n      0x20\n      add\n      mload(0x40)\n      swap1\n      dup2\n      add\n      0x40\n      mstore\n      dup1\n      swap3\n      swap2\n      swap1\n      dup2\n      dup2\n      mstore\n      0x20\n      add\n      dup3\n      dup1\n      sload\n      dup1\n      iszero\n      tag_136\n      jumpi\n      0x20\n      mul\n      dup3\n      add\n      swap2\n      swap1\n      0x00\n      mstore\n      keccak256(0x00, 0x20)\n      swap1\n    tag_137:\n      dup2\n      0x00\n      swap1\n      sload\n      swap1\n      0x0100\n      exp\n      swap1\n      div\n      0xffffffffffffffffffffffffffffffffffffffff\n      and\n      0xffffffffffffffffffffffffffffffffffffffff\n      and\n      dup2\n      mstore\n      0x20\n      add\n      swap1\n      0x01\n      add\n      swap1\n      dup1\n      dup4\n      gt\n      tag_137\n      jumpi\n    tag_136:\n      pop\n      pop\n      pop\n      pop\n      pop\n      swap1\n      pop\n        /* \"docs.chain.link/samples/VRF/LotteryContract.sol\":1184:1297  function getPlayers() public managerOnly view returns(address payable[] memory) {... */\n      swap1\n      jump\t// out\n        /* \"docs.chain.link/samples/VRF/LotteryContract.sol\":303:348  mapping(uint => address) public roundToWinner */\n    tag_49:\n      mstore(0x20, 0x04)\n      dup1\n      0x00\n      mstore\n      keccak256(0x00, 0x40)\n      0x00\n      swap2\n      pop\n      sload\n      swap1\n      0x0100\n      exp\n      swap1\n      div\n      0xffffffffffffffffffffffffffffffffffffffff\n      and\n      dup2\n      jump\t// out\n        /* \"docs.chain.link/samples/VRF/LotteryContract.sol\":160:192  address payable[] public players */\n    tag_55:\n      0x01\n      dup2\n      dup2\n      sload\n      dup2\n      lt\n      tag_138\n      jumpi\n      0x00\n      dup1\n      revert\n    tag_138:\n      swap1\n      0x00\n      mstore\n      keccak256(0x00, 0x20)\n      add\n      0x00\n      swap2\n      pop\n      sload\n      swap1\n      0x0100\n      exp\n      swap1\n      div\n      0xffffffffffffffffffffffffffffffffffffffff\n      and\n      dup2\n      jump\t// out\n        /* \"docs.chain.link/samples/VRF/LotteryContract.sol\":1511:1758  function checkVRFResponse() internal view returns(bool fulfilled, uint[] memory randomNumbers) {... */\n    tag_71:\n        /* \"docs.chain.link/samples/VRF/LotteryContract.sol\":1561:1575  bool fulfilled */\n      0x00\n        /* \"docs.chain.link/samples/VRF/LotteryContract.sol\":1577:1604  uint[] memory randomNumbers */\n      0x60\n        /* \"docs.chain.link/samples/VRF/LotteryContract.sol\":1617:1631  uint requestID */\n      0x00\n        /* \"docs.chain.link/samples/VRF/LotteryContract.sol\":1634:1650  consumerContract */\n      0x02\n      0x00\n      swap1\n      sload\n      swap1\n      0x0100\n      exp\n      swap1\n      div\n      0xffffffffffffffffffffffffffffffffffffffff\n      and\n        /* \"docs.chain.link/samples/VRF/LotteryContract.sol\":1634:1664  consumerContract.lastRequestId */\n      0xffffffffffffffffffffffffffffffffffffffff\n      and\n      0xfc2a88c3\n        /* \"docs.chain.link/samples/VRF/LotteryContract.sol\":1634:1666  consumerContract.lastRequestId() */\n      mload(0x40)\n      dup2\n      0xffffffff\n      and\n      0xe0\n      shl\n      dup2\n      mstore\n      0x04\n      add\n      0x20\n      mload(0x40)\n      dup1\n      dup4\n      sub\n      dup2\n      dup7\n      gas\n      staticcall\n      iszero\n      dup1\n      iszero\n      tag_142\n      jumpi\n      returndatasize\n      0x00\n      dup1\n      returndatacopy\n      revert(0x00, returndatasize)\n    tag_142:\n      pop\n      pop\n      pop\n      pop\n      mload(0x40)\n      returndatasize\n      not(0x1f)\n      0x1f\n      dup3\n      add\n      and\n      dup3\n      add\n      dup1\n      0x40\n      mstore\n      pop\n      dup2\n      add\n      swap1\n      tag_143\n      swap2\n      swap1\n      tag_120\n      jump\t// in\n    tag_143:\n        /* \"docs.chain.link/samples/VRF/LotteryContract.sol\":1617:1666  uint requestID = consumerContract.lastRequestId() */\n      swap1\n      pop\n        /* \"docs.chain.link/samples/VRF/LotteryContract.sol\":1706:1722  consumerContract */\n      0x02\n      0x00\n      swap1\n      sload\n      swap1\n      0x0100\n      exp\n      swap1\n      div\n      0xffffffffffffffffffffffffffffffffffffffff\n      and\n        /* \"docs.chain.link/samples/VRF/LotteryContract.sol\":1706:1739  consumerContract.getRequestStatus */\n      0xffffffffffffffffffffffffffffffffffffffff\n      and\n      0xd8a4676f\n        /* \"docs.chain.link/samples/VRF/LotteryContract.sol\":1740:1749  requestID */\n      dup3\n        /* \"docs.chain.link/samples/VRF/LotteryContract.sol\":1706:1750  consumerContract.getRequestStatus(requestID) */\n      mload(0x40)\n      dup3\n      0xffffffff\n      and\n      0xe0\n      shl\n      dup2\n      mstore\n      0x04\n      add\n      tag_144\n      swap2\n      swap1\n      tag_145\n      jump\t// in\n    tag_144:\n      0x00\n      mload(0x40)\n      dup1\n      dup4\n      sub\n      dup2\n      dup7\n      gas\n      staticcall\n      iszero\n      dup1\n      iszero\n      tag_147\n      jumpi\n      returndatasize\n      0x00\n      dup1\n      returndatacopy\n      revert(0x00, returndatasize)\n    tag_147:\n      pop\n      pop\n      pop\n      pop\n      mload(0x40)\n      returndatasize\n      0x00\n      dup3\n      returndatacopy\n      returndatasize\n      not(0x1f)\n      0x1f\n      dup3\n      add\n      and\n      dup3\n      add\n      dup1\n      0x40\n      mstore\n      pop\n      dup2\n      add\n      swap1\n      tag_148\n      swap2\n      swap1\n      tag_149\n      jump\t// in\n    tag_148:\n        /* \"docs.chain.link/samples/VRF/LotteryContract.sol\":1677:1750  (fulfilled, randomNumbers) = consumerContract.getRequestStatus(requestID) */\n      dup1\n      swap4\n      pop\n      dup2\n      swap5\n      pop\n      pop\n      pop\n        /* \"docs.chain.link/samples/VRF/LotteryContract.sol\":1606:1758  {... */\n      pop\n        /* \"docs.chain.link/samples/VRF/LotteryContract.sol\":1511:1758  function checkVRFResponse() internal view returns(bool fulfilled, uint[] memory randomNumbers) {... */\n      swap1\n      swap2\n      jump\t// out\n    tag_110:\n      dup3\n      dup1\n      sload\n      dup3\n      dup3\n      sstore\n      swap1\n      0x00\n      mstore\n      keccak256(0x00, 0x20)\n      swap1\n      dup2\n      add\n      swap3\n      dup3\n      iszero\n      tag_150\n      jumpi\n      swap2\n      0x20\n      mul\n      dup3\n      add\n    tag_151:\n      dup3\n      dup2\n      gt\n      iszero\n      tag_152\n      jumpi\n      dup3\n      mload\n      dup3\n      exp(0x0100, 0x00)\n      dup2\n      sload\n      dup2\n      0xffffffffffffffffffffffffffffffffffffffff\n      mul\n      not\n      and\n      swap1\n      dup4\n      0xffffffffffffffffffffffffffffffffffffffff\n      and\n      mul\n      or\n      swap1\n      sstore\n      pop\n      swap2\n      0x20\n      add\n      swap2\n      swap1\n      0x01\n      add\n      swap1\n      jump(tag_151)\n    tag_152:\n    tag_150:\n      pop\n      swap1\n      pop\n      tag_153\n      swap2\n      swap1\n      tag_154\n      jump\t// in\n    tag_153:\n      pop\n      swap1\n      jump\t// out\n    tag_154:\n    tag_155:\n      dup1\n      dup3\n      gt\n      iszero\n      tag_156\n      jumpi\n      0x00\n      dup2\n      0x00\n      swap1\n      sstore\n      pop\n      0x01\n      add\n      jump(tag_155)\n    tag_156:\n      pop\n      swap1\n      jump\t// out\n        /* \"#utility.yul\":7:176   */\n    tag_157:\n        /* \"#utility.yul\":91:102   */\n      0x00\n        /* \"#utility.yul\":125:131   */\n      dup3\n        /* \"#utility.yul\":120:123   */\n      dup3\n        /* \"#utility.yul\":113:132   */\n      mstore\n        /* \"#utility.yul\":165:169   */\n      0x20\n        /* \"#utility.yul\":160:163   */\n      dup3\n        /* \"#utility.yul\":156:170   */\n      add\n        /* \"#utility.yul\":141:170   */\n      swap1\n      pop\n        /* \"#utility.yul\":7:176   */\n      swap3\n      swap2\n      pop\n      pop\n      jump\t// out\n        /* \"#utility.yul\":182:363   */\n    tag_158:\n        /* \"#utility.yul\":322:355   */\n      0x4d616e616765722063616e6e6f74206a6f696e20746865206c6f747465727900\n        /* \"#utility.yul\":318:319   */\n      0x00\n        /* \"#utility.yul\":310:316   */\n      dup3\n        /* \"#utility.yul\":306:320   */\n      add\n        /* \"#utility.yul\":299:356   */\n      mstore\n        /* \"#utility.yul\":182:363   */\n      pop\n      jump\t// out\n        /* \"#utility.yul\":369:735   */\n    tag_159:\n        /* \"#utility.yul\":511:514   */\n      0x00\n        /* \"#utility.yul\":532:599   */\n      tag_220\n        /* \"#utility.yul\":596:598   */\n      0x1f\n        /* \"#utility.yul\":591:594   */\n      dup4\n        /* \"#utility.yul\":532:599   */\n      tag_157\n      jump\t// in\n    tag_220:\n        /* \"#utility.yul\":525:599   */\n      swap2\n      pop\n        /* \"#utility.yul\":608:701   */\n      tag_221\n        /* \"#utility.yul\":697:700   */\n      dup3\n        /* \"#utility.yul\":608:701   */\n      tag_158\n      jump\t// in\n    tag_221:\n        /* \"#utility.yul\":726:728   */\n      0x20\n        /* \"#utility.yul\":721:724   */\n      dup3\n        /* \"#utility.yul\":717:729   */\n      add\n        /* \"#utility.yul\":710:729   */\n      swap1\n      pop\n        /* \"#utility.yul\":369:735   */\n      swap2\n      swap1\n      pop\n      jump\t// out\n        /* \"#utility.yul\":741:1160   */\n    tag_16:\n        /* \"#utility.yul\":907:911   */\n      0x00\n        /* \"#utility.yul\":945:947   */\n      0x20\n        /* \"#utility.yul\":934:943   */\n      dup3\n        /* \"#utility.yul\":930:948   */\n      add\n        /* \"#utility.yul\":922:948   */\n      swap1\n      pop\n        /* \"#utility.yul\":994:1003   */\n      dup2\n        /* \"#utility.yul\":988:992   */\n      dup2\n        /* \"#utility.yul\":984:1004   */\n      sub\n        /* \"#utility.yul\":980:981   */\n      0x00\n        /* \"#utility.yul\":969:978   */\n      dup4\n        /* \"#utility.yul\":965:982   */\n      add\n        /* \"#utility.yul\":958:1005   */\n      mstore\n        /* \"#utility.yul\":1022:1153   */\n      tag_223\n        /* \"#utility.yul\":1148:1152   */\n      dup2\n        /* \"#utility.yul\":1022:1153   */\n      tag_159\n      jump\t// in\n    tag_223:\n        /* \"#utility.yul\":1014:1153   */\n      swap1\n      pop\n        /* \"#utility.yul\":741:1160   */\n      swap2\n      swap1\n      pop\n      jump\t// out\n        /* \"#utility.yul\":1166:1390   */\n    tag_160:\n        /* \"#utility.yul\":1306:1340   */\n      0x4d75737420626520302e30313145544820746f20656e74657220746865206c6f\n        /* \"#utility.yul\":1302:1303   */\n      0x00\n        /* \"#utility.yul\":1294:1300   */\n      dup3\n        /* \"#utility.yul\":1290:1304   */\n      add\n        /* \"#utility.yul\":1283:1341   */\n      mstore\n        /* \"#utility.yul\":1375:1382   */\n      0x7474657279000000000000000000000000000000000000000000000000000000\n        /* \"#utility.yul\":1370:1372   */\n      0x20\n        /* \"#utility.yul\":1362:1368   */\n      dup3\n        /* \"#utility.yul\":1358:1373   */\n      add\n        /* \"#utility.yul\":1351:1383   */\n      mstore\n        /* \"#utility.yul\":1166:1390   */\n      pop\n      jump\t// out\n        /* \"#utility.yul\":1396:1762   */\n    tag_161:\n        /* \"#utility.yul\":1538:1541   */\n      0x00\n        /* \"#utility.yul\":1559:1626   */\n      tag_226\n        /* \"#utility.yul\":1623:1625   */\n      0x25\n        /* \"#utility.yul\":1618:1621   */\n      dup4\n        /* \"#utility.yul\":1559:1626   */\n      tag_157\n      jump\t// in\n    tag_226:\n        /* \"#utility.yul\":1552:1626   */\n      swap2\n      pop\n        /* \"#utility.yul\":1635:1728   */\n      tag_227\n        /* \"#utility.yul\":1724:1727   */\n      dup3\n        /* \"#utility.yul\":1635:1728   */\n      tag_160\n      jump\t// in\n    tag_227:\n        /* \"#utility.yul\":1753:1755   */\n      0x40\n        /* \"#utility.yul\":1748:1751   */\n      dup3\n        /* \"#utility.yul\":1744:1756   */\n      add\n        /* \"#utility.yul\":1737:1756   */\n      swap1\n      pop\n        /* \"#utility.yul\":1396:1762   */\n      swap2\n      swap1\n      pop\n      jump\t// out\n        /* \"#utility.yul\":1768:2187   */\n    tag_19:\n        /* \"#utility.yul\":1934:1938   */\n      0x00\n        /* \"#utility.yul\":1972:1974   */\n      0x20\n        /* \"#utility.yul\":1961:1970   */\n      dup3\n        /* \"#utility.yul\":1957:1975   */\n      add\n        /* \"#utility.yul\":1949:1975   */\n      swap1\n      pop\n        /* \"#utility.yul\":2021:2030   */\n      dup2\n        /* \"#utility.yul\":2015:2019   */\n      dup2\n        /* \"#utility.yul\":2011:2031   */\n      sub\n        /* \"#utility.yul\":2007:2008   */\n      0x00\n        /* \"#utility.yul\":1996:2005   */\n      dup4\n        /* \"#utility.yul\":1992:2009   */\n      add\n        /* \"#utility.yul\":1985:2032   */\n      mstore\n        /* \"#utility.yul\":2049:2180   */\n      tag_229\n        /* \"#utility.yul\":2175:2179   */\n      dup2\n        /* \"#utility.yul\":2049:2180   */\n      tag_161\n      jump\t// in\n    tag_229:\n        /* \"#utility.yul\":2041:2180   */\n      swap1\n      pop\n        /* \"#utility.yul\":1768:2187   */\n      swap2\n      swap1\n      pop\n      jump\t// out\n        /* \"#utility.yul\":2193:2319   */\n    tag_162:\n        /* \"#utility.yul\":2230:2237   */\n      0x00\n        /* \"#utility.yul\":2270:2312   */\n      0xffffffffffffffffffffffffffffffffffffffff\n        /* \"#utility.yul\":2263:2268   */\n      dup3\n        /* \"#utility.yul\":2259:2313   */\n      and\n        /* \"#utility.yul\":2248:2313   */\n      swap1\n      pop\n        /* \"#utility.yul\":2193:2319   */\n      swap2\n      swap1\n      pop\n      jump\t// out\n        /* \"#utility.yul\":2325:2429   */\n    tag_163:\n        /* \"#utility.yul\":2370:2377   */\n      0x00\n        /* \"#utility.yul\":2399:2423   */\n      tag_232\n        /* \"#utility.yul\":2417:2422   */\n      dup3\n        /* \"#utility.yul\":2399:2423   */\n      tag_162\n      jump\t// in\n    tag_232:\n        /* \"#utility.yul\":2388:2423   */\n      swap1\n      pop\n        /* \"#utility.yul\":2325:2429   */\n      swap2\n      swap1\n      pop\n      jump\t// out\n        /* \"#utility.yul\":2435:2577   */\n    tag_164:\n        /* \"#utility.yul\":2538:2570   */\n      tag_234\n        /* \"#utility.yul\":2564:2569   */\n      dup2\n        /* \"#utility.yul\":2538:2570   */\n      tag_163\n      jump\t// in\n    tag_234:\n        /* \"#utility.yul\":2533:2536   */\n      dup3\n        /* \"#utility.yul\":2526:2571   */\n      mstore\n        /* \"#utility.yul\":2435:2577   */\n      pop\n      pop\n      jump\t// out\n        /* \"#utility.yul\":2583:2837   */\n    tag_25:\n        /* \"#utility.yul\":2692:2696   */\n      0x00\n        /* \"#utility.yul\":2730:2732   */\n      0x20\n        /* \"#utility.yul\":2719:2728   */\n      dup3\n        /* \"#utility.yul\":2715:2733   */\n      add\n        /* \"#utility.yul\":2707:2733   */\n      swap1\n      pop\n        /* \"#utility.yul\":2743:2830   */\n      tag_236\n        /* \"#utility.yul\":2827:2828   */\n      0x00\n        /* \"#utility.yul\":2816:2825   */\n      dup4\n        /* \"#utility.yul\":2812:2829   */\n      add\n        /* \"#utility.yul\":2803:2809   */\n      dup5\n        /* \"#utility.yul\":2743:2830   */\n      tag_164\n      jump\t// in\n    tag_236:\n        /* \"#utility.yul\":2583:2837   */\n      swap3\n      swap2\n      pop\n      pop\n      jump\t// out\n        /* \"#utility.yul\":2843:3023   */\n    tag_64:\n        /* \"#utility.yul\":2891:2968   */\n      0x4e487b7100000000000000000000000000000000000000000000000000000000\n        /* \"#utility.yul\":2888:2889   */\n      0x00\n        /* \"#utility.yul\":2881:2969   */\n      mstore\n        /* \"#utility.yul\":2988:2992   */\n      0x21\n        /* \"#utility.yul\":2985:2986   */\n      0x04\n        /* \"#utility.yul\":2978:2993   */\n      mstore\n        /* \"#utility.yul\":3012:3016   */\n      0x24\n        /* \"#utility.yul\":3009:3010   */\n      0x00\n        /* \"#utility.yul\":3002:3017   */\n      revert\n        /* \"#utility.yul\":3029:3151   */\n    tag_165:\n        /* \"#utility.yul\":3119:3120   */\n      0x03\n        /* \"#utility.yul\":3112:3117   */\n      dup2\n        /* \"#utility.yul\":3109:3121   */\n      lt\n        /* \"#utility.yul\":3099:3145   */\n      tag_239\n      jumpi\n        /* \"#utility.yul\":3125:3143   */\n      tag_240\n      tag_64\n      jump\t// in\n    tag_240:\n        /* \"#utility.yul\":3099:3145   */\n    tag_239:\n        /* \"#utility.yul\":3029:3151   */\n      pop\n      jump\t// out\n        /* \"#utility.yul\":3157:3302   */\n    tag_166:\n        /* \"#utility.yul\":3211:3218   */\n      0x00\n        /* \"#utility.yul\":3240:3245   */\n      dup2\n        /* \"#utility.yul\":3229:3245   */\n      swap1\n      pop\n        /* \"#utility.yul\":3246:3296   */\n      tag_242\n        /* \"#utility.yul\":3290:3295   */\n      dup3\n        /* \"#utility.yul\":3246:3296   */\n      tag_165\n      jump\t// in\n    tag_242:\n        /* \"#utility.yul\":3157:3302   */\n      swap2\n      swap1\n      pop\n      jump\t// out\n        /* \"#utility.yul\":3308:3453   */\n    tag_167:\n        /* \"#utility.yul\":3373:3382   */\n      0x00\n        /* \"#utility.yul\":3406:3447   */\n      tag_244\n        /* \"#utility.yul\":3441:3446   */\n      dup3\n        /* \"#utility.yul\":3406:3447   */\n      tag_166\n      jump\t// in\n    tag_244:\n        /* \"#utility.yul\":3393:3447   */\n      swap1\n      pop\n        /* \"#utility.yul\":3308:3453   */\n      swap2\n      swap1\n      pop\n      jump\t// out\n        /* \"#utility.yul\":3459:3620   */\n    tag_168:\n        /* \"#utility.yul\":3561:3613   */\n      tag_246\n        /* \"#utility.yul\":3607:3612   */\n      dup2\n        /* \"#utility.yul\":3561:3613   */\n      tag_167\n      jump\t// in\n    tag_246:\n        /* \"#utility.yul\":3556:3559   */\n      dup3\n        /* \"#utility.yul\":3549:3614   */\n      mstore\n        /* \"#utility.yul\":3459:3620   */\n      pop\n      pop\n      jump\t// out\n        /* \"#utility.yul\":3626:3878   */\n    tag_39:\n        /* \"#utility.yul\":3734:3738   */\n      0x00\n        /* \"#utility.yul\":3772:3774   */\n      0x20\n        /* \"#utility.yul\":3761:3770   */\n      dup3\n        /* \"#utility.yul\":3757:3775   */\n      add\n        /* \"#utility.yul\":3749:3775   */\n      swap1\n      pop\n        /* \"#utility.yul\":3785:3871   */\n      tag_248\n        /* \"#utility.yul\":3868:3869   */\n      0x00\n        /* \"#utility.yul\":3857:3866   */\n      dup4\n        /* \"#utility.yul\":3853:3870   */\n      add\n        /* \"#utility.yul\":3844:3850   */\n      dup5\n        /* \"#utility.yul\":3785:3871   */\n      tag_168\n      jump\t// in\n    tag_248:\n        /* \"#utility.yul\":3626:3878   */\n      swap3\n      swap2\n      pop\n      pop\n      jump\t// out\n        /* \"#utility.yul\":3884:4006   */\n    tag_169:\n        /* \"#utility.yul\":3959:3965   */\n      0x00\n        /* \"#utility.yul\":3993:3998   */\n      dup2\n        /* \"#utility.yul\":3987:3999   */\n      mload\n        /* \"#utility.yul\":3977:3999   */\n      swap1\n      pop\n        /* \"#utility.yul\":3884:4006   */\n      swap2\n      swap1\n      pop\n      jump\t// out\n        /* \"#utility.yul\":4012:4204   */\n    tag_170:\n        /* \"#utility.yul\":4119:4130   */\n      0x00\n        /* \"#utility.yul\":4153:4159   */\n      dup3\n        /* \"#utility.yul\":4148:4151   */\n      dup3\n        /* \"#utility.yul\":4141:4160   */\n      mstore\n        /* \"#utility.yul\":4193:4197   */\n      0x20\n        /* \"#utility.yul\":4188:4191   */\n      dup3\n        /* \"#utility.yul\":4184:4198   */\n      add\n        /* \"#utility.yul\":4169:4198   */\n      swap1\n      pop\n        /* \"#utility.yul\":4012:4204   */\n      swap3\n      swap2\n      pop\n      pop\n      jump\t// out\n        /* \"#utility.yul\":4210:4350   */\n    tag_171:\n        /* \"#utility.yul\":4285:4289   */\n      0x00\n        /* \"#utility.yul\":4308:4311   */\n      dup2\n        /* \"#utility.yul\":4300:4311   */\n      swap1\n      pop\n        /* \"#utility.yul\":4338:4342   */\n      0x20\n        /* \"#utility.yul\":4333:4336   */\n      dup3\n        /* \"#utility.yul\":4329:4343   */\n      add\n        /* \"#utility.yul\":4321:4343   */\n      swap1\n      pop\n        /* \"#utility.yul\":4210:4350   */\n      swap2\n      swap1\n      pop\n      jump\t// out\n        /* \"#utility.yul\":4356:4488   */\n    tag_172:\n        /* \"#utility.yul\":4449:4481   */\n      tag_253\n        /* \"#utility.yul\":4475:4480   */\n      dup2\n        /* \"#utility.yul\":4449:4481   */\n      tag_163\n      jump\t// in\n    tag_253:\n        /* \"#utility.yul\":4444:4447   */\n      dup3\n        /* \"#utility.yul\":4437:4482   */\n      mstore\n        /* \"#utility.yul\":4356:4488   */\n      pop\n      pop\n      jump\t// out\n        /* \"#utility.yul\":4494:4705   */\n    tag_173:\n        /* \"#utility.yul\":4579:4589   */\n      0x00\n        /* \"#utility.yul\":4600:4662   */\n      tag_255\n        /* \"#utility.yul\":4658:4661   */\n      dup4\n        /* \"#utility.yul\":4650:4656   */\n      dup4\n        /* \"#utility.yul\":4600:4662   */\n      tag_172\n      jump\t// in\n    tag_255:\n        /* \"#utility.yul\":4694:4698   */\n      0x20\n        /* \"#utility.yul\":4689:4692   */\n      dup4\n        /* \"#utility.yul\":4685:4699   */\n      add\n        /* \"#utility.yul\":4671:4699   */\n      swap1\n      pop\n        /* \"#utility.yul\":4494:4705   */\n      swap3\n      swap2\n      pop\n      pop\n      jump\t// out\n        /* \"#utility.yul\":4711:4832   */\n    tag_174:\n        /* \"#utility.yul\":4789:4793   */\n      0x00\n        /* \"#utility.yul\":4821:4825   */\n      0x20\n        /* \"#utility.yul\":4816:4819   */\n      dup3\n        /* \"#utility.yul\":4812:4826   */\n      add\n        /* \"#utility.yul\":4804:4826   */\n      swap1\n      pop\n        /* \"#utility.yul\":4711:4832   */\n      swap2\n      swap1\n      pop\n      jump\t// out\n        /* \"#utility.yul\":4884:5680   */\n    tag_175:\n        /* \"#utility.yul\":5019:5022   */\n      0x00\n        /* \"#utility.yul\":5048:5110   */\n      tag_258\n        /* \"#utility.yul\":5104:5109   */\n      dup3\n        /* \"#utility.yul\":5048:5110   */\n      tag_169\n      jump\t// in\n    tag_258:\n        /* \"#utility.yul\":5126:5220   */\n      tag_259\n        /* \"#utility.yul\":5213:5219   */\n      dup2\n        /* \"#utility.yul\":5208:5211   */\n      dup6\n        /* \"#utility.yul\":5126:5220   */\n      tag_170\n      jump\t// in\n    tag_259:\n        /* \"#utility.yul\":5119:5220   */\n      swap4\n      pop\n        /* \"#utility.yul\":5244:5308   */\n      tag_260\n        /* \"#utility.yul\":5302:5307   */\n      dup4\n        /* \"#utility.yul\":5244:5308   */\n      tag_171\n      jump\t// in\n    tag_260:\n        /* \"#utility.yul\":5331:5338   */\n      dup1\n        /* \"#utility.yul\":5362:5363   */\n      0x00\n        /* \"#utility.yul\":5347:5655   */\n    tag_261:\n        /* \"#utility.yul\":5372:5378   */\n      dup4\n        /* \"#utility.yul\":5369:5370   */\n      dup2\n        /* \"#utility.yul\":5366:5379   */\n      lt\n        /* \"#utility.yul\":5347:5655   */\n      iszero\n      tag_263\n      jumpi\n        /* \"#utility.yul\":5448:5454   */\n      dup2\n        /* \"#utility.yul\":5442:5455   */\n      mload\n        /* \"#utility.yul\":5475:5554   */\n      tag_264\n        /* \"#utility.yul\":5550:5553   */\n      dup9\n        /* \"#utility.yul\":5535:5548   */\n      dup3\n        /* \"#utility.yul\":5475:5554   */\n      tag_173\n      jump\t// in\n    tag_264:\n        /* \"#utility.yul\":5468:5554   */\n      swap8\n      pop\n        /* \"#utility.yul\":5577:5645   */\n      tag_265\n        /* \"#utility.yul\":5638:5644   */\n      dup4\n        /* \"#utility.yul\":5577:5645   */\n      tag_174\n      jump\t// in\n    tag_265:\n        /* \"#utility.yul\":5567:5645   */\n      swap3\n      pop\n        /* \"#utility.yul\":5407:5655   */\n      pop\n        /* \"#utility.yul\":5394:5395   */\n      0x01\n        /* \"#utility.yul\":5391:5392   */\n      dup2\n        /* \"#utility.yul\":5387:5396   */\n      add\n        /* \"#utility.yul\":5382:5396   */\n      swap1\n      pop\n        /* \"#utility.yul\":5347:5655   */\n      jump(tag_261)\n    tag_263:\n        /* \"#utility.yul\":5351:5365   */\n      pop\n        /* \"#utility.yul\":5671:5674   */\n      dup6\n        /* \"#utility.yul\":5664:5674   */\n      swap4\n      pop\n        /* \"#utility.yul\":5024:5680   */\n      pop\n      pop\n      pop\n        /* \"#utility.yul\":4884:5680   */\n      swap3\n      swap2\n      pop\n      pop\n      jump\t// out\n        /* \"#utility.yul\":5686:6091   */\n    tag_44:\n        /* \"#utility.yul\":5845:5849   */\n      0x00\n        /* \"#utility.yul\":5883:5885   */\n      0x20\n        /* \"#utility.yul\":5872:5881   */\n      dup3\n        /* \"#utility.yul\":5868:5886   */\n      add\n        /* \"#utility.yul\":5860:5886   */\n      swap1\n      pop\n        /* \"#utility.yul\":5932:5941   */\n      dup2\n        /* \"#utility.yul\":5926:5930   */\n      dup2\n        /* \"#utility.yul\":5922:5942   */\n      sub\n        /* \"#utility.yul\":5918:5919   */\n      0x00\n        /* \"#utility.yul\":5907:5916   */\n      dup4\n        /* \"#utility.yul\":5903:5920   */\n      add\n        /* \"#utility.yul\":5896:5943   */\n      mstore\n        /* \"#utility.yul\":5960:6084   */\n      tag_267\n        /* \"#utility.yul\":6079:6083   */\n      dup2\n        /* \"#utility.yul\":6070:6076   */\n      dup5\n        /* \"#utility.yul\":5960:6084   */\n      tag_175\n      jump\t// in\n    tag_267:\n        /* \"#utility.yul\":5952:6084   */\n      swap1\n      pop\n        /* \"#utility.yul\":5686:6091   */\n      swap3\n      swap2\n      pop\n      pop\n      jump\t// out\n        /* \"#utility.yul\":6097:6172   */\n    tag_176:\n        /* \"#utility.yul\":6130:6136   */\n      0x00\n        /* \"#utility.yul\":6163:6165   */\n      0x40\n        /* \"#utility.yul\":6157:6166   */\n      mload\n        /* \"#utility.yul\":6147:6166   */\n      swap1\n      pop\n        /* \"#utility.yul\":6097:6172   */\n      swap1\n      jump\t// out\n        /* \"#utility.yul\":6178:6295   */\n    tag_177:\n        /* \"#utility.yul\":6287:6288   */\n      0x00\n        /* \"#utility.yul\":6284:6285   */\n      dup1\n        /* \"#utility.yul\":6277:6289   */\n      revert\n        /* \"#utility.yul\":6301:6418   */\n    tag_178:\n        /* \"#utility.yul\":6410:6411   */\n      0x00\n        /* \"#utility.yul\":6407:6408   */\n      dup1\n        /* \"#utility.yul\":6400:6412   */\n      revert\n        /* \"#utility.yul\":6424:6501   */\n    tag_179:\n        /* \"#utility.yul\":6461:6468   */\n      0x00\n        /* \"#utility.yul\":6490:6495   */\n      dup2\n        /* \"#utility.yul\":6479:6495   */\n      swap1\n      pop\n        /* \"#utility.yul\":6424:6501   */\n      swap2\n      swap1\n      pop\n      jump\t// out\n        /* \"#utility.yul\":6507:6629   */\n    tag_180:\n        /* \"#utility.yul\":6580:6604   */\n      tag_273\n        /* \"#utility.yul\":6598:6603   */\n      dup2\n        /* \"#utility.yul\":6580:6604   */\n      tag_179\n      jump\t// in\n    tag_273:\n        /* \"#utility.yul\":6573:6578   */\n      dup2\n        /* \"#utility.yul\":6570:6605   */\n      eq\n        /* \"#utility.yul\":6560:6623   */\n      tag_274\n      jumpi\n        /* \"#utility.yul\":6619:6620   */\n      0x00\n        /* \"#utility.yul\":6616:6617   */\n      dup1\n        /* \"#utility.yul\":6609:6621   */\n      revert\n        /* \"#utility.yul\":6560:6623   */\n    tag_274:\n        /* \"#utility.yul\":6507:6629   */\n      pop\n      jump\t// out\n        /* \"#utility.yul\":6635:6774   */\n    tag_181:\n        /* \"#utility.yul\":6681:6686   */\n      0x00\n        /* \"#utility.yul\":6719:6725   */\n      dup2\n        /* \"#utility.yul\":6706:6726   */\n      calldataload\n        /* \"#utility.yul\":6697:6726   */\n      swap1\n      pop\n        /* \"#utility.yul\":6735:6768   */\n      tag_276\n        /* \"#utility.yul\":6762:6767   */\n      dup2\n        /* \"#utility.yul\":6735:6768   */\n      tag_180\n      jump\t// in\n    tag_276:\n        /* \"#utility.yul\":6635:6774   */\n      swap3\n      swap2\n      pop\n      pop\n      jump\t// out\n        /* \"#utility.yul\":6780:7109   */\n    tag_48:\n        /* \"#utility.yul\":6839:6845   */\n      0x00\n        /* \"#utility.yul\":6888:6890   */\n      0x20\n        /* \"#utility.yul\":6876:6885   */\n      dup3\n        /* \"#utility.yul\":6867:6874   */\n      dup5\n        /* \"#utility.yul\":6863:6886   */\n      sub\n        /* \"#utility.yul\":6859:6891   */\n      slt\n        /* \"#utility.yul\":6856:6975   */\n      iszero\n      tag_278\n      jumpi\n        /* \"#utility.yul\":6894:6973   */\n      tag_279\n      tag_177\n      jump\t// in\n    tag_279:\n        /* \"#utility.yul\":6856:6975   */\n    tag_278:\n        /* \"#utility.yul\":7014:7015   */\n      0x00\n        /* \"#utility.yul\":7039:7092   */\n      tag_280\n        /* \"#utility.yul\":7084:7091   */\n      dup5\n        /* \"#utility.yul\":7075:7081   */\n      dup3\n        /* \"#utility.yul\":7064:7073   */\n      dup6\n        /* \"#utility.yul\":7060:7082   */\n      add\n        /* \"#utility.yul\":7039:7092   */\n      tag_181\n      jump\t// in\n    tag_280:\n        /* \"#utility.yul\":7029:7092   */\n      swap2\n      pop\n        /* \"#utility.yul\":6985:7102   */\n      pop\n        /* \"#utility.yul\":6780:7109   */\n      swap3\n      swap2\n      pop\n      pop\n      jump\t// out\n        /* \"#utility.yul\":7115:7211   */\n    tag_182:\n        /* \"#utility.yul\":7152:7159   */\n      0x00\n        /* \"#utility.yul\":7181:7205   */\n      tag_282\n        /* \"#utility.yul\":7199:7204   */\n      dup3\n        /* \"#utility.yul\":7181:7205   */\n      tag_162\n      jump\t// in\n    tag_282:\n        /* \"#utility.yul\":7170:7205   */\n      swap1\n      pop\n        /* \"#utility.yul\":7115:7211   */\n      swap2\n      swap1\n      pop\n      jump\t// out\n        /* \"#utility.yul\":7217:7335   */\n    tag_183:\n        /* \"#utility.yul\":7304:7328   */\n      tag_284\n        /* \"#utility.yul\":7322:7327   */\n      dup2\n        /* \"#utility.yul\":7304:7328   */\n      tag_182\n      jump\t// in\n    tag_284:\n        /* \"#utility.yul\":7299:7302   */\n      dup3\n        /* \"#utility.yul\":7292:7329   */\n      mstore\n        /* \"#utility.yul\":7217:7335   */\n      pop\n      pop\n      jump\t// out\n        /* \"#utility.yul\":7341:7563   */\n    tag_51:\n        /* \"#utility.yul\":7434:7438   */\n      0x00\n        /* \"#utility.yul\":7472:7474   */\n      0x20\n        /* \"#utility.yul\":7461:7470   */\n      dup3\n        /* \"#utility.yul\":7457:7475   */\n      add\n        /* \"#utility.yul\":7449:7475   */\n      swap1\n      pop\n        /* \"#utility.yul\":7485:7556   */\n      tag_286\n        /* \"#utility.yul\":7553:7554   */\n      0x00\n        /* \"#utility.yul\":7542:7551   */\n      dup4\n        /* \"#utility.yul\":7538:7555   */\n      add\n        /* \"#utility.yul\":7529:7535   */\n      dup5\n        /* \"#utility.yul\":7485:7556   */\n      tag_183\n      jump\t// in\n    tag_286:\n        /* \"#utility.yul\":7341:7563   */\n      swap3\n      swap2\n      pop\n      pop\n      jump\t// out\n        /* \"#utility.yul\":7569:7748   */\n    tag_184:\n        /* \"#utility.yul\":7709:7740   */\n      0x43616e206f6e6c792062652063616c6c6564206279206d616e61676572000000\n        /* \"#utility.yul\":7705:7706   */\n      0x00\n        /* \"#utility.yul\":7697:7703   */\n      dup3\n        /* \"#utility.yul\":7693:7707   */\n      add\n        /* \"#utility.yul\":7686:7741   */\n      mstore\n        /* \"#utility.yul\":7569:7748   */\n      pop\n      jump\t// out\n        /* \"#utility.yul\":7754:8120   */\n    tag_185:\n        /* \"#utility.yul\":7896:7899   */\n      0x00\n        /* \"#utility.yul\":7917:7984   */\n      tag_289\n        /* \"#utility.yul\":7981:7983   */\n      0x1d\n        /* \"#utility.yul\":7976:7979   */\n      dup4\n        /* \"#utility.yul\":7917:7984   */\n      tag_157\n      jump\t// in\n    tag_289:\n        /* \"#utility.yul\":7910:7984   */\n      swap2\n      pop\n        /* \"#utility.yul\":7993:8086   */\n      tag_290\n        /* \"#utility.yul\":8082:8085   */\n      dup3\n        /* \"#utility.yul\":7993:8086   */\n      tag_184\n      jump\t// in\n    tag_290:\n        /* \"#utility.yul\":8111:8113   */\n      0x20\n        /* \"#utility.yul\":8106:8109   */\n      dup3\n        /* \"#utility.yul\":8102:8114   */\n      add\n        /* \"#utility.yul\":8095:8114   */\n      swap1\n      pop\n        /* \"#utility.yul\":7754:8120   */\n      swap2\n      swap1\n      pop\n      jump\t// out\n        /* \"#utility.yul\":8126:8545   */\n    tag_60:\n        /* \"#utility.yul\":8292:8296   */\n      0x00\n        /* \"#utility.yul\":8330:8332   */\n      0x20\n        /* \"#utility.yul\":8319:8328   */\n      dup3\n        /* \"#utility.yul\":8315:8333   */\n      add\n        /* \"#utility.yul\":8307:8333   */\n      swap1\n      pop\n        /* \"#utility.yul\":8379:8388   */\n      dup2\n        /* \"#utility.yul\":8373:8377   */\n      dup2\n        /* \"#utility.yul\":8369:8389   */\n      sub\n        /* \"#utility.yul\":8365:8366   */\n      0x00\n        /* \"#utility.yul\":8354:8363   */\n      dup4\n        /* \"#utility.yul\":8350:8367   */\n      add\n        /* \"#utility.yul\":8343:8390   */\n      mstore\n        /* \"#utility.yul\":8407:8538   */\n      tag_292\n        /* \"#utility.yul\":8533:8537   */\n      dup2\n        /* \"#utility.yul\":8407:8538   */\n      tag_185\n      jump\t// in\n    tag_292:\n        /* \"#utility.yul\":8399:8538   */\n      swap1\n      pop\n        /* \"#utility.yul\":8126:8545   */\n      swap2\n      swap1\n      pop\n      jump\t// out\n        /* \"#utility.yul\":8551:8780   */\n    tag_186:\n        /* \"#utility.yul\":8691:8725   */\n      0x4c6f7474657279206973206e6f7420696e2063616c63756c6174696e67207769\n        /* \"#utility.yul\":8687:8688   */\n      0x00\n        /* \"#utility.yul\":8679:8685   */\n      dup3\n        /* \"#utility.yul\":8675:8689   */\n      add\n        /* \"#utility.yul\":8668:8726   */\n      mstore\n        /* \"#utility.yul\":8760:8772   */\n      0x6e6e657220737461746500000000000000000000000000000000000000000000\n        /* \"#utility.yul\":8755:8757   */\n      0x20\n        /* \"#utility.yul\":8747:8753   */\n      dup3\n        /* \"#utility.yul\":8743:8758   */\n      add\n        /* \"#utility.yul\":8736:8773   */\n      mstore\n        /* \"#utility.yul\":8551:8780   */\n      pop\n      jump\t// out\n        /* \"#utility.yul\":8786:9152   */\n    tag_187:\n        /* \"#utility.yul\":8928:8931   */\n      0x00\n        /* \"#utility.yul\":8949:9016   */\n      tag_295\n        /* \"#utility.yul\":9013:9015   */\n      0x2a\n        /* \"#utility.yul\":9008:9011   */\n      dup4\n        /* \"#utility.yul\":8949:9016   */\n      tag_157\n      jump\t// in\n    tag_295:\n        /* \"#utility.yul\":8942:9016   */\n      swap2\n      pop\n        /* \"#utility.yul\":9025:9118   */\n      tag_296\n        /* \"#utility.yul\":9114:9117   */\n      dup3\n        /* \"#utility.yul\":9025:9118   */\n      tag_186\n      jump\t// in\n    tag_296:\n        /* \"#utility.yul\":9143:9145   */\n      0x40\n        /* \"#utility.yul\":9138:9141   */\n      dup3\n        /* \"#utility.yul\":9134:9146   */\n      add\n        /* \"#utility.yul\":9127:9146   */\n      swap1\n      pop\n        /* \"#utility.yul\":8786:9152   */\n      swap2\n      swap1\n      pop\n      jump\t// out\n        /* \"#utility.yul\":9158:9577   */\n    tag_69:\n        /* \"#utility.yul\":9324:9328   */\n      0x00\n        /* \"#utility.yul\":9362:9364   */\n      0x20\n        /* \"#utility.yul\":9351:9360   */\n      dup3\n        /* \"#utility.yul\":9347:9365   */\n      add\n        /* \"#utility.yul\":9339:9365   */\n      swap1\n      pop\n        /* \"#utility.yul\":9411:9420   */\n      dup2\n        /* \"#utility.yul\":9405:9409   */\n      dup2\n        /* \"#utility.yul\":9401:9421   */\n      sub\n        /* \"#utility.yul\":9397:9398   */\n      0x00\n        /* \"#utility.yul\":9386:9395   */\n      dup4\n        /* \"#utility.yul\":9382:9399   */\n      add\n        /* \"#utility.yul\":9375:9422   */\n      mstore\n        /* \"#utility.yul\":9439:9570   */\n      tag_298\n        /* \"#utility.yul\":9565:9569   */\n      dup2\n        /* \"#utility.yul\":9439:9570   */\n      tag_187\n      jump\t// in\n    tag_298:\n        /* \"#utility.yul\":9431:9570   */\n      swap1\n      pop\n        /* \"#utility.yul\":9158:9577   */\n      swap2\n      swap1\n      pop\n      jump\t// out\n        /* \"#utility.yul\":9583:9814   */\n    tag_188:\n        /* \"#utility.yul\":9723:9757   */\n      0x52616e646f6d206e756d626572207265717565737420686173206e6f74206265\n        /* \"#utility.yul\":9719:9720   */\n      0x00\n        /* \"#utility.yul\":9711:9717   */\n      dup3\n        /* \"#utility.yul\":9707:9721   */\n      add\n        /* \"#utility.yul\":9700:9758   */\n      mstore\n        /* \"#utility.yul\":9792:9806   */\n      0x656e2066756c66696c6c65640000000000000000000000000000000000000000\n        /* \"#utility.yul\":9787:9789   */\n      0x20\n        /* \"#utility.yul\":9779:9785   */\n      dup3\n        /* \"#utility.yul\":9775:9790   */\n      add\n        /* \"#utility.yul\":9768:9807   */\n      mstore\n        /* \"#utility.yul\":9583:9814   */\n      pop\n      jump\t// out\n        /* \"#utility.yul\":9820:10186   */\n    tag_189:\n        /* \"#utility.yul\":9962:9965   */\n      0x00\n        /* \"#utility.yul\":9983:10050   */\n      tag_301\n        /* \"#utility.yul\":10047:10049   */\n      0x2c\n        /* \"#utility.yul\":10042:10045   */\n      dup4\n        /* \"#utility.yul\":9983:10050   */\n      tag_157\n      jump\t// in\n    tag_301:\n        /* \"#utility.yul\":9976:10050   */\n      swap2\n      pop\n        /* \"#utility.yul\":10059:10152   */\n      tag_302\n        /* \"#utility.yul\":10148:10151   */\n      dup3\n        /* \"#utility.yul\":10059:10152   */\n      tag_188\n      jump\t// in\n    tag_302:\n        /* \"#utility.yul\":10177:10179   */\n      0x40\n        /* \"#utility.yul\":10172:10175   */\n      dup3\n        /* \"#utility.yul\":10168:10180   */\n      add\n        /* \"#utility.yul\":10161:10180   */\n      swap1\n      pop\n        /* \"#utility.yul\":9820:10186   */\n      swap2\n      swap1\n      pop\n      jump\t// out\n        /* \"#utility.yul\":10192:10611   */\n    tag_74:\n        /* \"#utility.yul\":10358:10362   */\n      0x00\n        /* \"#utility.yul\":10396:10398   */\n      0x20\n        /* \"#utility.yul\":10385:10394   */\n      dup3\n        /* \"#utility.yul\":10381:10399   */\n      add\n        /* \"#utility.yul\":10373:10399   */\n      swap1\n      pop\n        /* \"#utility.yul\":10445:10454   */\n      dup2\n        /* \"#utility.yul\":10439:10443   */\n      dup2\n        /* \"#utility.yul\":10435:10455   */\n      sub\n        /* \"#utility.yul\":10431:10432   */\n      0x00\n        /* \"#utility.yul\":10420:10429   */\n      dup4\n        /* \"#utility.yul\":10416:10433   */\n      add\n        /* \"#utility.yul\":10409:10456   */\n      mstore\n        /* \"#utility.yul\":10473:10604   */\n      tag_304\n        /* \"#utility.yul\":10599:10603   */\n      dup2\n        /* \"#utility.yul\":10473:10604   */\n      tag_189\n      jump\t// in\n    tag_304:\n        /* \"#utility.yul\":10465:10604   */\n      swap1\n      pop\n        /* \"#utility.yul\":10192:10611   */\n      swap2\n      swap1\n      pop\n      jump\t// out\n        /* \"#utility.yul\":10617:10793   */\n    tag_190:\n        /* \"#utility.yul\":10757:10785   */\n      0x4d757374206265206174206c65617374203320706c6179657273000000000000\n        /* \"#utility.yul\":10753:10754   */\n      0x00\n        /* \"#utility.yul\":10745:10751   */\n      dup3\n        /* \"#utility.yul\":10741:10755   */\n      add\n        /* \"#utility.yul\":10734:10786   */\n      mstore\n        /* \"#utility.yul\":10617:10793   */\n      pop\n      jump\t// out\n        /* \"#utility.yul\":10799:11165   */\n    tag_191:\n        /* \"#utility.yul\":10941:10944   */\n      0x00\n        /* \"#utility.yul\":10962:11029   */\n      tag_307\n        /* \"#utility.yul\":11026:11028   */\n      0x1a\n        /* \"#utility.yul\":11021:11024   */\n      dup4\n        /* \"#utility.yul\":10962:11029   */\n      tag_157\n      jump\t// in\n    tag_307:\n        /* \"#utility.yul\":10955:11029   */\n      swap2\n      pop\n        /* \"#utility.yul\":11038:11131   */\n      tag_308\n        /* \"#utility.yul\":11127:11130   */\n      dup3\n        /* \"#utility.yul\":11038:11131   */\n      tag_190\n      jump\t// in\n    tag_308:\n        /* \"#utility.yul\":11156:11158   */\n      0x20\n        /* \"#utility.yul\":11151:11154   */\n      dup3\n        /* \"#utility.yul\":11147:11159   */\n      add\n        /* \"#utility.yul\":11140:11159   */\n      swap1\n      pop\n        /* \"#utility.yul\":10799:11165   */\n      swap2\n      swap1\n      pop\n      jump\t// out\n        /* \"#utility.yul\":11171:11590   */\n    tag_77:\n        /* \"#utility.yul\":11337:11341   */\n      0x00\n        /* \"#utility.yul\":11375:11377   */\n      0x20\n        /* \"#utility.yul\":11364:11373   */\n      dup3\n        /* \"#utility.yul\":11360:11378   */\n      add\n        /* \"#utility.yul\":11352:11378   */\n      swap1\n      pop\n        /* \"#utility.yul\":11424:11433   */\n      dup2\n        /* \"#utility.yul\":11418:11422   */\n      dup2\n        /* \"#utility.yul\":11414:11434   */\n      sub\n        /* \"#utility.yul\":11410:11411   */\n      0x00\n        /* \"#utility.yul\":11399:11408   */\n      dup4\n        /* \"#utility.yul\":11395:11412   */\n      add\n        /* \"#utility.yul\":11388:11435   */\n      mstore\n        /* \"#utility.yul\":11452:11583   */\n      tag_310\n        /* \"#utility.yul\":11578:11582   */\n      dup2\n        /* \"#utility.yul\":11452:11583   */\n      tag_191\n      jump\t// in\n    tag_310:\n        /* \"#utility.yul\":11444:11583   */\n      swap1\n      pop\n        /* \"#utility.yul\":11171:11590   */\n      swap2\n      swap1\n      pop\n      jump\t// out\n        /* \"#utility.yul\":11596:11776   */\n    tag_80:\n        /* \"#utility.yul\":11644:11721   */\n      0x4e487b7100000000000000000000000000000000000000000000000000000000\n        /* \"#utility.yul\":11641:11642   */\n      0x00\n        /* \"#utility.yul\":11634:11722   */\n      mstore\n        /* \"#utility.yul\":11741:11745   */\n      0x32\n        /* \"#utility.yul\":11738:11739   */\n      0x04\n        /* \"#utility.yul\":11731:11746   */\n      mstore\n        /* \"#utility.yul\":11765:11769   */\n      0x24\n        /* \"#utility.yul\":11762:11763   */\n      0x00\n        /* \"#utility.yul\":11755:11770   */\n      revert\n        /* \"#utility.yul\":11782:11962   */\n    tag_192:\n        /* \"#utility.yul\":11830:11907   */\n      0x4e487b7100000000000000000000000000000000000000000000000000000000\n        /* \"#utility.yul\":11827:11828   */\n      0x00\n        /* \"#utility.yul\":11820:11908   */\n      mstore\n        /* \"#utility.yul\":11927:11931   */\n      0x12\n        /* \"#utility.yul\":11924:11925   */\n      0x04\n        /* \"#utility.yul\":11917:11932   */\n      mstore\n        /* \"#utility.yul\":11951:11955   */\n      0x24\n        /* \"#utility.yul\":11948:11949   */\n      0x00\n        /* \"#utility.yul\":11941:11956   */\n      revert\n        /* \"#utility.yul\":11968:12144   */\n    tag_82:\n        /* \"#utility.yul\":12000:12001   */\n      0x00\n        /* \"#utility.yul\":12017:12037   */\n      tag_314\n        /* \"#utility.yul\":12035:12036   */\n      dup3\n        /* \"#utility.yul\":12017:12037   */\n      tag_179\n      jump\t// in\n    tag_314:\n        /* \"#utility.yul\":12012:12037   */\n      swap2\n      pop\n        /* \"#utility.yul\":12051:12071   */\n      tag_315\n        /* \"#utility.yul\":12069:12070   */\n      dup4\n        /* \"#utility.yul\":12051:12071   */\n      tag_179\n      jump\t// in\n    tag_315:\n        /* \"#utility.yul\":12046:12071   */\n      swap3\n      pop\n        /* \"#utility.yul\":12090:12091   */\n      dup3\n        /* \"#utility.yul\":12080:12115   */\n      tag_316\n      jumpi\n        /* \"#utility.yul\":12095:12113   */\n      tag_317\n      tag_192\n      jump\t// in\n    tag_317:\n        /* \"#utility.yul\":12080:12115   */\n    tag_316:\n        /* \"#utility.yul\":12136:12137   */\n      dup3\n        /* \"#utility.yul\":12133:12134   */\n      dup3\n        /* \"#utility.yul\":12129:12138   */\n      mod\n        /* \"#utility.yul\":12124:12138   */\n      swap1\n      pop\n        /* \"#utility.yul\":11968:12144   */\n      swap3\n      swap2\n      pop\n      pop\n      jump\t// out\n        /* \"#utility.yul\":12150:12330   */\n    tag_193:\n        /* \"#utility.yul\":12198:12275   */\n      0x4e487b7100000000000000000000000000000000000000000000000000000000\n        /* \"#utility.yul\":12195:12196   */\n      0x00\n        /* \"#utility.yul\":12188:12276   */\n      mstore\n        /* \"#utility.yul\":12295:12299   */\n      0x11\n        /* \"#utility.yul\":12292:12293   */\n      0x04\n        /* \"#utility.yul\":12285:12300   */\n      mstore\n        /* \"#utility.yul\":12319:12323   */\n      0x24\n        /* \"#utility.yul\":12316:12317   */\n      0x00\n        /* \"#utility.yul\":12309:12324   */\n      revert\n        /* \"#utility.yul\":12336:12746   */\n    tag_87:\n        /* \"#utility.yul\":12376:12383   */\n      0x00\n        /* \"#utility.yul\":12399:12419   */\n      tag_320\n        /* \"#utility.yul\":12417:12418   */\n      dup3\n        /* \"#utility.yul\":12399:12419   */\n      tag_179\n      jump\t// in\n    tag_320:\n        /* \"#utility.yul\":12394:12419   */\n      swap2\n      pop\n        /* \"#utility.yul\":12433:12453   */\n      tag_321\n        /* \"#utility.yul\":12451:12452   */\n      dup4\n        /* \"#utility.yul\":12433:12453   */\n      tag_179\n      jump\t// in\n    tag_321:\n        /* \"#utility.yul\":12428:12453   */\n      swap3\n      pop\n        /* \"#utility.yul\":12488:12489   */\n      dup3\n        /* \"#utility.yul\":12485:12486   */\n      dup3\n        /* \"#utility.yul\":12481:12490   */\n      mul\n        /* \"#utility.yul\":12510:12540   */\n      tag_322\n        /* \"#utility.yul\":12528:12539   */\n      dup2\n        /* \"#utility.yul\":12510:12540   */\n      tag_179\n      jump\t// in\n    tag_322:\n        /* \"#utility.yul\":12499:12540   */\n      swap2\n      pop\n        /* \"#utility.yul\":12689:12690   */\n      dup3\n        /* \"#utility.yul\":12680:12687   */\n      dup3\n        /* \"#utility.yul\":12676:12691   */\n      div\n        /* \"#utility.yul\":12673:12674   */\n      dup5\n        /* \"#utility.yul\":12670:12692   */\n      eq\n        /* \"#utility.yul\":12650:12651   */\n      dup4\n        /* \"#utility.yul\":12643:12652   */\n      iszero\n        /* \"#utility.yul\":12623:12706   */\n      or\n        /* \"#utility.yul\":12600:12739   */\n      tag_323\n      jumpi\n        /* \"#utility.yul\":12719:12737   */\n      tag_324\n      tag_193\n      jump\t// in\n    tag_324:\n        /* \"#utility.yul\":12600:12739   */\n    tag_323:\n        /* \"#utility.yul\":12384:12746   */\n      pop\n        /* \"#utility.yul\":12336:12746   */\n      swap3\n      swap2\n      pop\n      pop\n      jump\t// out\n        /* \"#utility.yul\":12752:12899   */\n    tag_194:\n        /* \"#utility.yul\":12853:12864   */\n      0x00\n        /* \"#utility.yul\":12890:12893   */\n      dup2\n        /* \"#utility.yul\":12875:12893   */\n      swap1\n      pop\n        /* \"#utility.yul\":12752:12899   */\n      swap3\n      swap2\n      pop\n      pop\n      jump\t// out\n        /* \"#utility.yul\":12905:13019   */\n    tag_195:\n      pop\n      jump\t// out\n        /* \"#utility.yul\":13025:13423   */\n    tag_196:\n        /* \"#utility.yul\":13184:13187   */\n      0x00\n        /* \"#utility.yul\":13205:13288   */\n      tag_328\n        /* \"#utility.yul\":13286:13287   */\n      0x00\n        /* \"#utility.yul\":13281:13284   */\n      dup4\n        /* \"#utility.yul\":13205:13288   */\n      tag_194\n      jump\t// in\n    tag_328:\n        /* \"#utility.yul\":13198:13288   */\n      swap2\n      pop\n        /* \"#utility.yul\":13297:13390   */\n      tag_329\n        /* \"#utility.yul\":13386:13389   */\n      dup3\n        /* \"#utility.yul\":13297:13390   */\n      tag_195\n      jump\t// in\n    tag_329:\n        /* \"#utility.yul\":13415:13416   */\n      0x00\n        /* \"#utility.yul\":13410:13413   */\n      dup3\n        /* \"#utility.yul\":13406:13417   */\n      add\n        /* \"#utility.yul\":13399:13417   */\n      swap1\n      pop\n        /* \"#utility.yul\":13025:13423   */\n      swap2\n      swap1\n      pop\n      jump\t// out\n        /* \"#utility.yul\":13429:13808   */\n    tag_89:\n        /* \"#utility.yul\":13613:13616   */\n      0x00\n        /* \"#utility.yul\":13635:13782   */\n      tag_331\n        /* \"#utility.yul\":13778:13781   */\n      dup3\n        /* \"#utility.yul\":13635:13782   */\n      tag_196\n      jump\t// in\n    tag_331:\n        /* \"#utility.yul\":13628:13782   */\n      swap2\n      pop\n        /* \"#utility.yul\":13799:13802   */\n      dup2\n        /* \"#utility.yul\":13792:13802   */\n      swap1\n      pop\n        /* \"#utility.yul\":13429:13808   */\n      swap2\n      swap1\n      pop\n      jump\t// out\n        /* \"#utility.yul\":13814:13990   */\n    tag_197:\n        /* \"#utility.yul\":13954:13982   */\n      0x4661696c656420746f2073656e74206d616e6167657220666565000000000000\n        /* \"#utility.yul\":13950:13951   */\n      0x00\n        /* \"#utility.yul\":13942:13948   */\n      dup3\n        /* \"#utility.yul\":13938:13952   */\n      add\n        /* \"#utility.yul\":13931:13983   */\n      mstore\n        /* \"#utility.yul\":13814:13990   */\n      pop\n      jump\t// out\n        /* \"#utility.yul\":13996:14362   */\n    tag_198:\n        /* \"#utility.yul\":14138:14141   */\n      0x00\n        /* \"#utility.yul\":14159:14226   */\n      tag_334\n        /* \"#utility.yul\":14223:14225   */\n      0x1a\n        /* \"#utility.yul\":14218:14221   */\n      dup4\n        /* \"#utility.yul\":14159:14226   */\n      tag_157\n      jump\t// in\n    tag_334:\n        /* \"#utility.yul\":14152:14226   */\n      swap2\n      pop\n        /* \"#utility.yul\":14235:14328   */\n      tag_335\n        /* \"#utility.yul\":14324:14327   */\n      dup3\n        /* \"#utility.yul\":14235:14328   */\n      tag_197\n      jump\t// in\n    tag_335:\n        /* \"#utility.yul\":14353:14355   */\n      0x20\n        /* \"#utility.yul\":14348:14351   */\n      dup3\n        /* \"#utility.yul\":14344:14356   */\n      add\n        /* \"#utility.yul\":14337:14356   */\n      swap1\n      pop\n        /* \"#utility.yul\":13996:14362   */\n      swap2\n      swap1\n      pop\n      jump\t// out\n        /* \"#utility.yul\":14368:14787   */\n    tag_95:\n        /* \"#utility.yul\":14534:14538   */\n      0x00\n        /* \"#utility.yul\":14572:14574   */\n      0x20\n        /* \"#utility.yul\":14561:14570   */\n      dup3\n        /* \"#utility.yul\":14557:14575   */\n      add\n        /* \"#utility.yul\":14549:14575   */\n      swap1\n      pop\n        /* \"#utility.yul\":14621:14630   */\n      dup2\n        /* \"#utility.yul\":14615:14619   */\n      dup2\n        /* \"#utility.yul\":14611:14631   */\n      sub\n        /* \"#utility.yul\":14607:14608   */\n      0x00\n        /* \"#utility.yul\":14596:14605   */\n      dup4\n        /* \"#utility.yul\":14592:14609   */\n      add\n        /* \"#utility.yul\":14585:14632   */\n      mstore\n        /* \"#utility.yul\":14649:14780   */\n      tag_337\n        /* \"#utility.yul\":14775:14779   */\n      dup2\n        /* \"#utility.yul\":14649:14780   */\n      tag_198\n      jump\t// in\n    tag_337:\n        /* \"#utility.yul\":14641:14780   */\n      swap1\n      pop\n        /* \"#utility.yul\":14368:14787   */\n      swap2\n      swap1\n      pop\n      jump\t// out\n        /* \"#utility.yul\":14793:14972   */\n    tag_199:\n        /* \"#utility.yul\":14933:14964   */\n      0x4661696c656420746f2073656e642077696e6e65722773207072697a65000000\n        /* \"#utility.yul\":14929:14930   */\n      0x00\n        /* \"#utility.yul\":14921:14927   */\n      dup3\n        /* \"#utility.yul\":14917:14931   */\n      add\n        /* \"#utility.yul\":14910:14965   */\n      mstore\n        /* \"#utility.yul\":14793:14972   */\n      pop\n      jump\t// out\n        /* \"#utility.yul\":14978:15344   */\n    tag_200:\n        /* \"#utility.yul\":15120:15123   */\n      0x00\n        /* \"#utility.yul\":15141:15208   */\n      tag_340\n        /* \"#utility.yul\":15205:15207   */\n      0x1d\n        /* \"#utility.yul\":15200:15203   */\n      dup4\n        /* \"#utility.yul\":15141:15208   */\n      tag_157\n      jump\t// in\n    tag_340:\n        /* \"#utility.yul\":15134:15208   */\n      swap2\n      pop\n        /* \"#utility.yul\":15217:15310   */\n      tag_341\n        /* \"#utility.yul\":15306:15309   */\n      dup3\n        /* \"#utility.yul\":15217:15310   */\n      tag_199\n      jump\t// in\n    tag_341:\n        /* \"#utility.yul\":15335:15337   */\n      0x20\n        /* \"#utility.yul\":15330:15333   */\n      dup3\n        /* \"#utility.yul\":15326:15338   */\n      add\n        /* \"#utility.yul\":15319:15338   */\n      swap1\n      pop\n        /* \"#utility.yul\":14978:15344   */\n      swap2\n      swap1\n      pop\n      jump\t// out\n        /* \"#utility.yul\":15350:15769   */\n    tag_102:\n        /* \"#utility.yul\":15516:15520   */\n      0x00\n        /* \"#utility.yul\":15554:15556   */\n      0x20\n        /* \"#utility.yul\":15543:15552   */\n      dup3\n        /* \"#utility.yul\":15539:15557   */\n      add\n        /* \"#utility.yul\":15531:15557   */\n      swap1\n      pop\n        /* \"#utility.yul\":15603:15612   */\n      dup2\n        /* \"#utility.yul\":15597:15601   */\n      dup2\n        /* \"#utility.yul\":15593:15613   */\n      sub\n        /* \"#utility.yul\":15589:15590   */\n      0x00\n        /* \"#utility.yul\":15578:15587   */\n      dup4\n        /* \"#utility.yul\":15574:15591   */\n      add\n        /* \"#utility.yul\":15567:15614   */\n      mstore\n        /* \"#utility.yul\":15631:15762   */\n      tag_343\n        /* \"#utility.yul\":15757:15761   */\n      dup2\n        /* \"#utility.yul\":15631:15762   */\n      tag_200\n      jump\t// in\n    tag_343:\n        /* \"#utility.yul\":15623:15762   */\n      swap1\n      pop\n        /* \"#utility.yul\":15350:15769   */\n      swap2\n      swap1\n      pop\n      jump\t// out\n        /* \"#utility.yul\":15775:16008   */\n    tag_104:\n        /* \"#utility.yul\":15814:15817   */\n      0x00\n        /* \"#utility.yul\":15837:15861   */\n      tag_345\n        /* \"#utility.yul\":15855:15860   */\n      dup3\n        /* \"#utility.yul\":15837:15861   */\n      tag_179\n      jump\t// in\n    tag_345:\n        /* \"#utility.yul\":15828:15861   */\n      swap2\n      pop\n        /* \"#utility.yul\":15883:15949   */\n      0xffffffffffffffffffffffffffffffffffffffffffffffffffffffffffffffff\n        /* \"#utility.yul\":15876:15881   */\n      dup3\n        /* \"#utility.yul\":15873:15950   */\n      sub\n        /* \"#utility.yul\":15870:15973   */\n      tag_346\n      jumpi\n        /* \"#utility.yul\":15953:15971   */\n      tag_347\n      tag_193\n      jump\t// in\n    tag_347:\n        /* \"#utility.yul\":15870:15973   */\n    tag_346:\n        /* \"#utility.yul\":16000:16001   */\n      0x01\n        /* \"#utility.yul\":15993:15998   */\n      dup3\n        /* \"#utility.yul\":15989:16002   */\n      add\n        /* \"#utility.yul\":15982:16002   */\n      swap1\n      pop\n        /* \"#utility.yul\":15775:16008   */\n      swap2\n      swap1\n      pop\n      jump\t// out\n        /* \"#utility.yul\":16014:16194   */\n    tag_107:\n        /* \"#utility.yul\":16062:16139   */\n      0x4e487b7100000000000000000000000000000000000000000000000000000000\n        /* \"#utility.yul\":16059:16060   */\n      0x00\n        /* \"#utility.yul\":16052:16140   */\n      mstore\n        /* \"#utility.yul\":16159:16163   */\n      0x41\n        /* \"#utility.yul\":16156:16157   */\n      0x04\n        /* \"#utility.yul\":16149:16164   */\n      mstore\n        /* \"#utility.yul\":16183:16187   */\n      0x24\n        /* \"#utility.yul\":16180:16181   */\n      0x00\n        /* \"#utility.yul\":16173:16188   */\n      revert\n        /* \"#utility.yul\":16200:16343   */\n    tag_201:\n        /* \"#utility.yul\":16257:16262   */\n      0x00\n        /* \"#utility.yul\":16288:16294   */\n      dup2\n        /* \"#utility.yul\":16282:16295   */\n      mload\n        /* \"#utility.yul\":16273:16295   */\n      swap1\n      pop\n        /* \"#utility.yul\":16304:16337   */\n      tag_350\n        /* \"#utility.yul\":16331:16336   */\n      dup2\n        /* \"#utility.yul\":16304:16337   */\n      tag_180\n      jump\t// in\n    tag_350:\n        /* \"#utility.yul\":16200:16343   */\n      swap3\n      swap2\n      pop\n      pop\n      jump\t// out\n        /* \"#utility.yul\":16349:16700   */\n    tag_120:\n        /* \"#utility.yul\":16419:16425   */\n      0x00\n        /* \"#utility.yul\":16468:16470   */\n      0x20\n        /* \"#utility.yul\":16456:16465   */\n      dup3\n        /* \"#utility.yul\":16447:16454   */\n      dup5\n        /* \"#utility.yul\":16443:16466   */\n      sub\n        /* \"#utility.yul\":16439:16471   */\n      slt\n        /* \"#utility.yul\":16436:16555   */\n      iszero\n      tag_352\n      jumpi\n        /* \"#utility.yul\":16474:16553   */\n      tag_353\n      tag_177\n      jump\t// in\n    tag_353:\n        /* \"#utility.yul\":16436:16555   */\n    tag_352:\n        /* \"#utility.yul\":16594:16595   */\n      0x00\n        /* \"#utility.yul\":16619:16683   */\n      tag_354\n        /* \"#utility.yul\":16675:16682   */\n      dup5\n        /* \"#utility.yul\":16666:16672   */\n      dup3\n        /* \"#utility.yul\":16655:16664   */\n      dup6\n        /* \"#utility.yul\":16651:16673   */\n      add\n        /* \"#utility.yul\":16619:16683   */\n      tag_201\n      jump\t// in\n    tag_354:\n        /* \"#utility.yul\":16609:16683   */\n      swap2\n      pop\n        /* \"#utility.yul\":16565:16693   */\n      pop\n        /* \"#utility.yul\":16349:16700   */\n      swap3\n      swap2\n      pop\n      pop\n      jump\t// out\n        /* \"#utility.yul\":16706:16876   */\n    tag_202:\n        /* \"#utility.yul\":16846:16868   */\n      0x506c6179657273206861766520656e7465726564000000000000000000000000\n        /* \"#utility.yul\":16842:16843   */\n      0x00\n        /* \"#utility.yul\":16834:16840   */\n      dup3\n        /* \"#utility.yul\":16830:16844   */\n      add\n        /* \"#utility.yul\":16823:16869   */\n      mstore\n        /* \"#utility.yul\":16706:16876   */\n      pop\n      jump\t// out\n        /* \"#utility.yul\":16882:17248   */\n    tag_203:\n        /* \"#utility.yul\":17024:17027   */\n      0x00\n        /* \"#utility.yul\":17045:17112   */\n      tag_357\n        /* \"#utility.yul\":17109:17111   */\n      0x14\n        /* \"#utility.yul\":17104:17107   */\n      dup4\n        /* \"#utility.yul\":17045:17112   */\n      tag_157\n      jump\t// in\n    tag_357:\n        /* \"#utility.yul\":17038:17112   */\n      swap2\n      pop\n        /* \"#utility.yul\":17121:17214   */\n      tag_358\n        /* \"#utility.yul\":17210:17213   */\n      dup3\n        /* \"#utility.yul\":17121:17214   */\n      tag_202\n      jump\t// in\n    tag_358:\n        /* \"#utility.yul\":17239:17241   */\n      0x20\n        /* \"#utility.yul\":17234:17237   */\n      dup3\n        /* \"#utility.yul\":17230:17242   */\n      add\n        /* \"#utility.yul\":17223:17242   */\n      swap1\n      pop\n        /* \"#utility.yul\":16882:17248   */\n      swap2\n      swap1\n      pop\n      jump\t// out\n        /* \"#utility.yul\":17254:17673   */\n    tag_129:\n        /* \"#utility.yul\":17420:17424   */\n      0x00\n        /* \"#utility.yul\":17458:17460   */\n      0x20\n        /* \"#utility.yul\":17447:17456   */\n      dup3\n        /* \"#utility.yul\":17443:17461   */\n      add\n        /* \"#utility.yul\":17435:17461   */\n      swap1\n      pop\n        /* \"#utility.yul\":17507:17516   */\n      dup2\n        /* \"#utility.yul\":17501:17505   */\n      dup2\n        /* \"#utility.yul\":17497:17517   */\n      sub\n        /* \"#utility.yul\":17493:17494   */\n      0x00\n        /* \"#utility.yul\":17482:17491   */\n      dup4\n        /* \"#utility.yul\":17478:17495   */\n      add\n        /* \"#utility.yul\":17471:17518   */\n      mstore\n        /* \"#utility.yul\":17535:17666   */\n      tag_360\n        /* \"#utility.yul\":17661:17665   */\n      dup2\n        /* \"#utility.yul\":17535:17666   */\n      tag_203\n      jump\t// in\n    tag_360:\n        /* \"#utility.yul\":17527:17666   */\n      swap1\n      pop\n        /* \"#utility.yul\":17254:17673   */\n      swap2\n      swap1\n      pop\n      jump\t// out\n        /* \"#utility.yul\":17679:17797   */\n    tag_204:\n        /* \"#utility.yul\":17766:17790   */\n      tag_362\n        /* \"#utility.yul\":17784:17789   */\n      dup2\n        /* \"#utility.yul\":17766:17790   */\n      tag_179\n      jump\t// in\n    tag_362:\n        /* \"#utility.yul\":17761:17764   */\n      dup3\n        /* \"#utility.yul\":17754:17791   */\n      mstore\n        /* \"#utility.yul\":17679:17797   */\n      pop\n      pop\n      jump\t// out\n        /* \"#utility.yul\":17803:18025   */\n    tag_145:\n        /* \"#utility.yul\":17896:17900   */\n      0x00\n        /* \"#utility.yul\":17934:17936   */\n      0x20\n        /* \"#utility.yul\":17923:17932   */\n      dup3\n        /* \"#utility.yul\":17919:17937   */\n      add\n        /* \"#utility.yul\":17911:17937   */\n      swap1\n      pop\n        /* \"#utility.yul\":17947:18018   */\n      tag_364\n        /* \"#utility.yul\":18015:18016   */\n      0x00\n        /* \"#utility.yul\":18004:18013   */\n      dup4\n        /* \"#utility.yul\":18000:18017   */\n      add\n        /* \"#utility.yul\":17991:17997   */\n      dup5\n        /* \"#utility.yul\":17947:18018   */\n      tag_204\n      jump\t// in\n    tag_364:\n        /* \"#utility.yul\":17803:18025   */\n      swap3\n      swap2\n      pop\n      pop\n      jump\t// out\n        /* \"#utility.yul\":18031:18121   */\n    tag_205:\n        /* \"#utility.yul\":18065:18072   */\n      0x00\n        /* \"#utility.yul\":18108:18113   */\n      dup2\n        /* \"#utility.yul\":18101:18114   */\n      iszero\n        /* \"#utility.yul\":18094:18115   */\n      iszero\n        /* \"#utility.yul\":18083:18115   */\n      swap1\n      pop\n        /* \"#utility.yul\":18031:18121   */\n      swap2\n      swap1\n      pop\n      jump\t// out\n        /* \"#utility.yul\":18127:18243   */\n    tag_206:\n        /* \"#utility.yul\":18197:18218   */\n      tag_367\n        /* \"#utility.yul\":18212:18217   */\n      dup2\n        /* \"#utility.yul\":18197:18218   */\n      tag_205\n      jump\t// in\n    tag_367:\n        /* \"#utility.yul\":18190:18195   */\n      dup2\n        /* \"#utility.yul\":18187:18219   */\n      eq\n        /* \"#utility.yul\":18177:18237   */\n      tag_368\n      jumpi\n        /* \"#utility.yul\":18233:18234   */\n      0x00\n        /* \"#utility.yul\":18230:18231   */\n      dup1\n        /* \"#utility.yul\":18223:18235   */\n      revert\n        /* \"#utility.yul\":18177:18237   */\n    tag_368:\n        /* \"#utility.yul\":18127:18243   */\n      pop\n      jump\t// out\n        /* \"#utility.yul\":18249:18386   */\n    tag_207:\n        /* \"#utility.yul\":18303:18308   */\n      0x00\n        /* \"#utility.yul\":18334:18340   */\n      dup2\n        /* \"#utility.yul\":18328:18341   */\n      mload\n        /* \"#utility.yul\":18319:18341   */\n      swap1\n      pop\n        /* \"#utility.yul\":18350:18380   */\n      tag_370\n        /* \"#utility.yul\":18374:18379   */\n      dup2\n        /* \"#utility.yul\":18350:18380   */\n      tag_206\n      jump\t// in\n    tag_370:\n        /* \"#utility.yul\":18249:18386   */\n      swap3\n      swap2\n      pop\n      pop\n      jump\t// out\n        /* \"#utility.yul\":18392:18509   */\n    tag_208:\n        /* \"#utility.yul\":18501:18502   */\n      0x00\n        /* \"#utility.yul\":18498:18499   */\n      dup1\n        /* \"#utility.yul\":18491:18503   */\n      revert\n        /* \"#utility.yul\":18515:18617   */\n    tag_209:\n        /* \"#utility.yul\":18556:18562   */\n      0x00\n        /* \"#utility.yul\":18607:18609   */\n      0x1f\n        /* \"#utility.yul\":18603:18610   */\n      not\n        /* \"#utility.yul\":18598:18600   */\n      0x1f\n        /* \"#utility.yul\":18591:18596   */\n      dup4\n        /* \"#utility.yul\":18587:18601   */\n      add\n        /* \"#utility.yul\":18583:18611   */\n      and\n        /* \"#utility.yul\":18573:18611   */\n      swap1\n      pop\n        /* \"#utility.yul\":18515:18617   */\n      swap2\n      swap1\n      pop\n      jump\t// out\n        /* \"#utility.yul\":18623:18904   */\n    tag_210:\n        /* \"#utility.yul\":18706:18733   */\n      tag_374\n        /* \"#utility.yul\":18728:18732   */\n      dup3\n        /* \"#utility.yul\":18706:18733   */\n      tag_209\n      jump\t// in\n    tag_374:\n        /* \"#utility.yul\":18698:18704   */\n      dup2\n        /* \"#utility.yul\":18694:18734   */\n      add\n        /* \"#utility.yul\":18836:18842   */\n      dup2\n        /* \"#utility.yul\":18824:18834   */\n      dup2\n        /* \"#utility.yul\":18821:18843   */\n      lt\n        /* \"#utility.yul\":18800:18818   */\n      0xffffffffffffffff\n        /* \"#utility.yul\":18788:18798   */\n      dup3\n        /* \"#utility.yul\":18785:18819   */\n      gt\n        /* \"#utility.yul\":18782:18844   */\n      or\n        /* \"#utility.yul\":18779:18867   */\n      iszero\n      tag_375\n      jumpi\n        /* \"#utility.yul\":18847:18865   */\n      tag_376\n      tag_107\n      jump\t// in\n    tag_376:\n        /* \"#utility.yul\":18779:18867   */\n    tag_375:\n        /* \"#utility.yul\":18887:18897   */\n      dup1\n        /* \"#utility.yul\":18883:18885   */\n      0x40\n        /* \"#utility.yul\":18876:18898   */\n      mstore\n        /* \"#utility.yul\":18666:18904   */\n      pop\n        /* \"#utility.yul\":18623:18904   */\n      pop\n      pop\n      jump\t// out\n        /* \"#utility.yul\":18910:19039   */\n    tag_211:\n        /* \"#utility.yul\":18944:18950   */\n      0x00\n        /* \"#utility.yul\":18971:18991   */\n      tag_378\n      tag_176\n      jump\t// in\n    tag_378:\n        /* \"#utility.yul\":18961:18991   */\n      swap1\n      pop\n        /* \"#utility.yul\":19000:19033   */\n      tag_379\n        /* \"#utility.yul\":19028:19032   */\n      dup3\n        /* \"#utility.yul\":19020:19026   */\n      dup3\n        /* \"#utility.yul\":19000:19033   */\n      tag_210\n      jump\t// in\n    tag_379:\n        /* \"#utility.yul\":18910:19039   */\n      swap2\n      swap1\n      pop\n      jump\t// out\n        /* \"#utility.yul\":19045:19356   */\n    tag_212:\n        /* \"#utility.yul\":19122:19126   */\n      0x00\n        /* \"#utility.yul\":19212:19230   */\n      0xffffffffffffffff\n        /* \"#utility.yul\":19204:19210   */\n      dup3\n        /* \"#utility.yul\":19201:19231   */\n      gt\n        /* \"#utility.yul\":19198:19254   */\n      iszero\n      tag_381\n      jumpi\n        /* \"#utility.yul\":19234:19252   */\n      tag_382\n      tag_107\n      jump\t// in\n    tag_382:\n        /* \"#utility.yul\":19198:19254   */\n    tag_381:\n        /* \"#utility.yul\":19284:19288   */\n      0x20\n        /* \"#utility.yul\":19276:19282   */\n      dup3\n        /* \"#utility.yul\":19272:19289   */\n      mul\n        /* \"#utility.yul\":19264:19289   */\n      swap1\n      pop\n        /* \"#utility.yul\":19344:19348   */\n      0x20\n        /* \"#utility.yul\":19338:19342   */\n      dup2\n        /* \"#utility.yul\":19334:19349   */\n      add\n        /* \"#utility.yul\":19326:19349   */\n      swap1\n      pop\n        /* \"#utility.yul\":19045:19356   */\n      swap2\n      swap1\n      pop\n      jump\t// out\n        /* \"#utility.yul\":19362:19479   */\n    tag_213:\n        /* \"#utility.yul\":19471:19472   */\n      0x00\n        /* \"#utility.yul\":19468:19469   */\n      dup1\n        /* \"#utility.yul\":19461:19473   */\n      revert\n        /* \"#utility.yul\":19502:20234   */\n    tag_214:\n        /* \"#utility.yul\":19609:19614   */\n      0x00\n        /* \"#utility.yul\":19634:19715   */\n      tag_385\n        /* \"#utility.yul\":19650:19714   */\n      tag_386\n        /* \"#utility.yul\":19707:19713   */\n      dup5\n        /* \"#utility.yul\":19650:19714   */\n      tag_212\n      jump\t// in\n    tag_386:\n        /* \"#utility.yul\":19634:19715   */\n      tag_211\n      jump\t// in\n    tag_385:\n        /* \"#utility.yul\":19625:19715   */\n      swap1\n      pop\n        /* \"#utility.yul\":19735:19740   */\n      dup1\n        /* \"#utility.yul\":19764:19770   */\n      dup4\n        /* \"#utility.yul\":19757:19762   */\n      dup3\n        /* \"#utility.yul\":19750:19771   */\n      mstore\n        /* \"#utility.yul\":19798:19802   */\n      0x20\n        /* \"#utility.yul\":19791:19796   */\n      dup3\n        /* \"#utility.yul\":19787:19803   */\n      add\n        /* \"#utility.yul\":19780:19803   */\n      swap1\n      pop\n        /* \"#utility.yul\":19851:19855   */\n      0x20\n        /* \"#utility.yul\":19843:19849   */\n      dup5\n        /* \"#utility.yul\":19839:19856   */\n      mul\n        /* \"#utility.yul\":19831:19837   */\n      dup4\n        /* \"#utility.yul\":19827:19857   */\n      add\n        /* \"#utility.yul\":19880:19883   */\n      dup6\n        /* \"#utility.yul\":19872:19878   */\n      dup2\n        /* \"#utility.yul\":19869:19884   */\n      gt\n        /* \"#utility.yul\":19866:19988   */\n      iszero\n      tag_387\n      jumpi\n        /* \"#utility.yul\":19899:19978   */\n      tag_388\n      tag_213\n      jump\t// in\n    tag_388:\n        /* \"#utility.yul\":19866:19988   */\n    tag_387:\n        /* \"#utility.yul\":20014:20020   */\n      dup4\n        /* \"#utility.yul\":19997:20228   */\n    tag_389:\n        /* \"#utility.yul\":20031:20037   */\n      dup2\n        /* \"#utility.yul\":20026:20029   */\n      dup2\n        /* \"#utility.yul\":20023:20038   */\n      lt\n        /* \"#utility.yul\":19997:20228   */\n      iszero\n      tag_391\n      jumpi\n        /* \"#utility.yul\":20106:20109   */\n      dup1\n        /* \"#utility.yul\":20135:20183   */\n      tag_392\n        /* \"#utility.yul\":20179:20182   */\n      dup9\n        /* \"#utility.yul\":20167:20177   */\n      dup3\n        /* \"#utility.yul\":20135:20183   */\n      tag_201\n      jump\t// in\n    tag_392:\n        /* \"#utility.yul\":20130:20133   */\n      dup5\n        /* \"#utility.yul\":20123:20184   */\n      mstore\n        /* \"#utility.yul\":20213:20217   */\n      0x20\n        /* \"#utility.yul\":20208:20211   */\n      dup5\n        /* \"#utility.yul\":20204:20218   */\n      add\n        /* \"#utility.yul\":20197:20218   */\n      swap4\n      pop\n        /* \"#utility.yul\":20073:20228   */\n      pop\n        /* \"#utility.yul\":20057:20061   */\n      0x20\n        /* \"#utility.yul\":20052:20055   */\n      dup2\n        /* \"#utility.yul\":20048:20062   */\n      add\n        /* \"#utility.yul\":20041:20062   */\n      swap1\n      pop\n        /* \"#utility.yul\":19997:20228   */\n      jump(tag_389)\n    tag_391:\n        /* \"#utility.yul\":20001:20022   */\n      pop\n        /* \"#utility.yul\":19615:20234   */\n      pop\n      pop\n        /* \"#utility.yul\":19502:20234   */\n      swap4\n      swap3\n      pop\n      pop\n      pop\n      jump\t// out\n        /* \"#utility.yul\":20257:20642   */\n    tag_215:\n        /* \"#utility.yul\":20339:20344   */\n      0x00\n        /* \"#utility.yul\":20388:20391   */\n      dup3\n        /* \"#utility.yul\":20381:20385   */\n      0x1f\n        /* \"#utility.yul\":20373:20379   */\n      dup4\n        /* \"#utility.yul\":20369:20386   */\n      add\n        /* \"#utility.yul\":20365:20392   */\n      slt\n        /* \"#utility.yul\":20355:20477   */\n      tag_394\n      jumpi\n        /* \"#utility.yul\":20396:20475   */\n      tag_395\n      tag_208\n      jump\t// in\n    tag_395:\n        /* \"#utility.yul\":20355:20477   */\n    tag_394:\n        /* \"#utility.yul\":20506:20512   */\n      dup2\n        /* \"#utility.yul\":20500:20513   */\n      mload\n        /* \"#utility.yul\":20531:20636   */\n      tag_396\n        /* \"#utility.yul\":20632:20635   */\n      dup5\n        /* \"#utility.yul\":20624:20630   */\n      dup3\n        /* \"#utility.yul\":20617:20621   */\n      0x20\n        /* \"#utility.yul\":20609:20615   */\n      dup7\n        /* \"#utility.yul\":20605:20622   */\n      add\n        /* \"#utility.yul\":20531:20636   */\n      tag_214\n      jump\t// in\n    tag_396:\n        /* \"#utility.yul\":20522:20636   */\n      swap2\n      pop\n        /* \"#utility.yul\":20345:20642   */\n      pop\n        /* \"#utility.yul\":20257:20642   */\n      swap3\n      swap2\n      pop\n      pop\n      jump\t// out\n        /* \"#utility.yul\":20648:21352   */\n    tag_149:\n        /* \"#utility.yul\":20749:20755   */\n      0x00\n        /* \"#utility.yul\":20757:20763   */\n      dup1\n        /* \"#utility.yul\":20806:20808   */\n      0x40\n        /* \"#utility.yul\":20794:20803   */\n      dup4\n        /* \"#utility.yul\":20785:20792   */\n      dup6\n        /* \"#utility.yul\":20781:20804   */\n      sub\n        /* \"#utility.yul\":20777:20809   */\n      slt\n        /* \"#utility.yul\":20774:20893   */\n      iszero\n      tag_398\n      jumpi\n        /* \"#utility.yul\":20812:20891   */\n      tag_399\n      tag_177\n      jump\t// in\n    tag_399:\n        /* \"#utility.yul\":20774:20893   */\n    tag_398:\n        /* \"#utility.yul\":20932:20933   */\n      0x00\n        /* \"#utility.yul\":20957:21018   */\n      tag_400\n        /* \"#utility.yul\":21010:21017   */\n      dup6\n        /* \"#utility.yul\":21001:21007   */\n      dup3\n        /* \"#utility.yul\":20990:20999   */\n      dup7\n        /* \"#utility.yul\":20986:21008   */\n      add\n        /* \"#utility.yul\":20957:21018   */\n      tag_207\n      jump\t// in\n    tag_400:\n        /* \"#utility.yul\":20947:21018   */\n      swap3\n      pop\n        /* \"#utility.yul\":20903:21028   */\n      pop\n        /* \"#utility.yul\":21088:21090   */\n      0x20\n        /* \"#utility.yul\":21077:21086   */\n      dup4\n        /* \"#utility.yul\":21073:21091   */\n      add\n        /* \"#utility.yul\":21067:21092   */\n      mload\n        /* \"#utility.yul\":21119:21137   */\n      0xffffffffffffffff\n        /* \"#utility.yul\":21111:21117   */\n      dup2\n        /* \"#utility.yul\":21108:21138   */\n      gt\n        /* \"#utility.yul\":21105:21222   */\n      iszero\n      tag_401\n      jumpi\n        /* \"#utility.yul\":21141:21220   */\n      tag_402\n      tag_178\n      jump\t// in\n    tag_402:\n        /* \"#utility.yul\":21105:21222   */\n    tag_401:\n        /* \"#utility.yul\":21246:21335   */\n      tag_403\n        /* \"#utility.yul\":21327:21334   */\n      dup6\n        /* \"#utility.yul\":21318:21324   */\n      dup3\n        /* \"#utility.yul\":21307:21316   */\n      dup7\n        /* \"#utility.yul\":21303:21325   */\n      add\n        /* \"#utility.yul\":21246:21335   */\n      tag_215\n      jump\t// in\n    tag_403:\n        /* \"#utility.yul\":21236:21335   */\n      swap2\n      pop\n        /* \"#utility.yul\":21038:21345   */\n      pop\n        /* \"#utility.yul\":20648:21352   */\n      swap3\n      pop\n      swap3\n      swap1\n      pop\n      jump\t// out\n\n    auxdata: 0xa26469706673582212207d4cfe65308e296da8afcdcec80ed904764da15ef26e18a729bb3dff8d333cfe64736f6c63430008140033\n}\n",
				"bytecode": {
					"linkReferences": {},
					"object": "608060405234801561000f575f80fd5b50335f806101000a81548173ffffffffffffffffffffffffffffffffffffffff021916908373ffffffffffffffffffffffffffffffffffffffff1602179055505f60055f6101000a81548160ff02191690836002811115610073576100726100d1565b5b021790555073cd71a8c2291aa5deabb1f3cfc651c137887f2a5460025f6101000a81548173ffffffffffffffffffffffffffffffffffffffff021916908373ffffffffffffffffffffffffffffffffffffffff1602179055506100fe565b7f4e487b71000000000000000000000000000000000000000000000000000000005f52602160045260245ffd5b6117e38061010b5f395ff3fe60806040526004361061007e575f3560e01c8063814479991161004d578063814479991461022a5780638b5b9ccc146102545780638e51001d1461027e578063f71d96cb146102ba576101ba565b8063481c6a75146101be5780635d495aea146101e85780636a385c04146101fe5780636fd0981614610214576101ba565b366101ba575f8054906101000a900473ffffffffffffffffffffffffffffffffffffffff1673ffffffffffffffffffffffffffffffffffffffff163373ffffffffffffffffffffffffffffffffffffffff1603610110576040517f08c379a000000000000000000000000000000000000000000000000000000000815260040161010790610db4565b60405180910390fd5b66271471148780003414610159576040517f08c379a000000000000000000000000000000000000000000000000000000000815260040161015090610e42565b60405180910390fd5b600133908060018154018082558091505060019003905f5260205f20015f9091909190916101000a81548173ffffffffffffffffffffffffffffffffffffffff021916908373ffffffffffffffffffffffffffffffffffffffff1602179055005b5f80fd5b3480156101c9575f80fd5b506101d26102f6565b6040516101df9190610e9f565b60405180910390f35b3480156101f3575f80fd5b506101fc610319565b005b348015610209575f80fd5b5061021261079d565b005b34801561021f575f80fd5b506102286108e6565b005b348015610235575f80fd5b5061023e6109e6565b60405161024b9190610f2b565b60405180910390f35b34801561025f575f80fd5b506102686109f8565b6040516102759190610ffb565b60405180910390f35b348015610289575f80fd5b506102a4600480360381019061029f919061105f565b610b10565b6040516102b191906110aa565b60405180910390f35b3480156102c5575f80fd5b506102e060048036038101906102db919061105f565b610b40565b6040516102ed9190610e9f565b60405180910390f35b5f8054906101000a900473ffffffffffffffffffffffffffffffffffffffff1681565b5f8054906101000a900473ffffffffffffffffffffffffffffffffffffffff1673ffffffffffffffffffffffffffffffffffffffff163373ffffffffffffffffffffffffffffffffffffffff16146103a6576040517f08c379a000000000000000000000000000000000000000000000000000000000815260040161039d9061110d565b60405180910390fd5b6002808111156103b9576103b8610eb8565b5b60055f9054906101000a900460ff1660028111156103da576103d9610eb8565b5b1461041a576040517f08c379a00000000000000000000000000000000000000000000000000000000081526004016104119061119b565b60405180910390fd5b5f80610424610b7b565b9150915081610468576040517f08c379a000000000000000000000000000000000000000000000000000000000815260040161045f90611229565b60405180910390fd5b600360018054905010156104b1576040517f08c379a00000000000000000000000000000000000000000000000000000000081526004016104a890611291565b60405180910390fd5b5f600180549050825f815181106104cb576104ca6112af565b5b60200260200101516104dd9190611309565b90505f600182815481106104f4576104f36112af565b5b905f5260205f20015f9054906101000a900473ffffffffffffffffffffffffffffffffffffffff1690505f805f9054906101000a900473ffffffffffffffffffffffffffffffffffffffff1673ffffffffffffffffffffffffffffffffffffffff1660018054905066038d7ea4c6800061056e9190611366565b60405161057a906113d4565b5f6040518083038185875af1925050503d805f81146105b4576040519150601f19603f3d011682016040523d82523d5f602084013e6105b9565b606091505b50509050806105fd576040517f08c379a00000000000000000000000000000000000000000000000000000000081526004016105f490611432565b60405180910390fd5b5f8273ffffffffffffffffffffffffffffffffffffffff1647604051610622906113d4565b5f6040518083038185875af1925050503d805f811461065c576040519150601f19603f3d011682016040523d82523d5f602084013e610661565b606091505b50509050806106a5576040517f08c379a000000000000000000000000000000000000000000000000000000000815260040161069c9061149a565b60405180910390fd5b60035f8154809291906106b7906114b8565b91905055508260045f60035481526020019081526020015f205f6101000a81548173ffffffffffffffffffffffffffffffffffffffff021916908373ffffffffffffffffffffffffffffffffffffffff1602179055505f67ffffffffffffffff811115610727576107266114ff565b5b6040519080825280602002602001820160405280156107555781602001602082028036833780820191505090505b506001908051906020019061076b929190610cb8565b505f60055f6101000a81548160ff021916908360028111156107905761078f610eb8565b5b0217905550505050505050565b5f8054906101000a900473ffffffffffffffffffffffffffffffffffffffff1673ffffffffffffffffffffffffffffffffffffffff163373ffffffffffffffffffffffffffffffffffffffff161461082a576040517f08c379a00000000000000000000000000000000000000000000000000000000081526004016108219061110d565b60405180910390fd5b60025f9054906101000a900473ffffffffffffffffffffffffffffffffffffffff1673ffffffffffffffffffffffffffffffffffffffff1663e0c862896040518163ffffffff1660e01b81526004016020604051808303815f875af1158015610895573d5f803e3d5ffd5b505050506040513d601f19601f820116820180604052508101906108b99190611540565b50600260055f6101000a81548160ff021916908360028111156108df576108de610eb8565b5b0217905550565b5f8054906101000a900473ffffffffffffffffffffffffffffffffffffffff1673ffffffffffffffffffffffffffffffffffffffff163373ffffffffffffffffffffffffffffffffffffffff1614610973576040517f08c379a000000000000000000000000000000000000000000000000000000000815260040161096a9061110d565b60405180910390fd5b5f600180549050146109ba576040517f08c379a00000000000000000000000000000000000000000000000000000000081526004016109b1906115b5565b60405180910390fd5b600160055f6101000a81548160ff021916908360028111156109df576109de610eb8565b5b0217905550565b60055f9054906101000a900460ff1681565b60605f8054906101000a900473ffffffffffffffffffffffffffffffffffffffff1673ffffffffffffffffffffffffffffffffffffffff163373ffffffffffffffffffffffffffffffffffffffff1614610a87576040517f08c379a0000000000000000000000000000000000000000000000000000000008152600401610a7e9061110d565b60405180910390fd5b6001805480602002602001604051908101604052809291908181526020018280548015610b0657602002820191905f5260205f20905b815f9054906101000a900473ffffffffffffffffffffffffffffffffffffffff1673ffffffffffffffffffffffffffffffffffffffff1681526020019060010190808311610abd575b5050505050905090565b6004602052805f5260405f205f915054906101000a900473ffffffffffffffffffffffffffffffffffffffff1681565b60018181548110610b4f575f80fd5b905f5260205f20015f915054906101000a900473ffffffffffffffffffffffffffffffffffffffff1681565b5f60605f60025f9054906101000a900473ffffffffffffffffffffffffffffffffffffffff1673ffffffffffffffffffffffffffffffffffffffff1663fc2a88c36040518163ffffffff1660e01b8152600401602060405180830381865afa158015610be9573d5f803e3d5ffd5b505050506040513d601f19601f82011682018060405250810190610c0d9190611540565b905060025f9054906101000a900473ffffffffffffffffffffffffffffffffffffffff1673ffffffffffffffffffffffffffffffffffffffff1663d8a4676f826040518263ffffffff1660e01b8152600401610c6991906115e2565b5f60405180830381865afa158015610c83573d5f803e3d5ffd5b505050506040513d5f823e3d601f19601f82011682018060405250810190610cab9190611753565b8093508194505050509091565b828054828255905f5260205f20908101928215610d2e579160200282015b82811115610d2d578251825f6101000a81548173ffffffffffffffffffffffffffffffffffffffff021916908373ffffffffffffffffffffffffffffffffffffffff16021790555091602001919060010190610cd6565b5b509050610d3b9190610d3f565b5090565b5b80821115610d56575f815f905550600101610d40565b5090565b5f82825260208201905092915050565b7f4d616e616765722063616e6e6f74206a6f696e20746865206c6f7474657279005f82015250565b5f610d9e601f83610d5a565b9150610da982610d6a565b602082019050919050565b5f6020820190508181035f830152610dcb81610d92565b9050919050565b7f4d75737420626520302e30313145544820746f20656e74657220746865206c6f5f8201527f7474657279000000000000000000000000000000000000000000000000000000602082015250565b5f610e2c602583610d5a565b9150610e3782610dd2565b604082019050919050565b5f6020820190508181035f830152610e5981610e20565b9050919050565b5f73ffffffffffffffffffffffffffffffffffffffff82169050919050565b5f610e8982610e60565b9050919050565b610e9981610e7f565b82525050565b5f602082019050610eb25f830184610e90565b92915050565b7f4e487b71000000000000000000000000000000000000000000000000000000005f52602160045260245ffd5b60038110610ef657610ef5610eb8565b5b50565b5f819050610f0682610ee5565b919050565b5f610f1582610ef9565b9050919050565b610f2581610f0b565b82525050565b5f602082019050610f3e5f830184610f1c565b92915050565b5f81519050919050565b5f82825260208201905092915050565b5f819050602082019050919050565b610f7681610e7f565b82525050565b5f610f878383610f6d565b60208301905092915050565b5f602082019050919050565b5f610fa982610f44565b610fb38185610f4e565b9350610fbe83610f5e565b805f5b83811015610fee578151610fd58882610f7c565b9750610fe083610f93565b925050600181019050610fc1565b5085935050505092915050565b5f6020820190508181035f8301526110138184610f9f565b905092915050565b5f604051905090565b5f80fd5b5f80fd5b5f819050919050565b61103e8161102c565b8114611048575f80fd5b50565b5f8135905061105981611035565b92915050565b5f6020828403121561107457611073611024565b5b5f6110818482850161104b565b91505092915050565b5f61109482610e60565b9050919050565b6110a48161108a565b82525050565b5f6020820190506110bd5f83018461109b565b92915050565b7f43616e206f6e6c792062652063616c6c6564206279206d616e616765720000005f82015250565b5f6110f7601d83610d5a565b9150611102826110c3565b602082019050919050565b5f6020820190508181035f830152611124816110eb565b9050919050565b7f4c6f7474657279206973206e6f7420696e2063616c63756c6174696e672077695f8201527f6e6e657220737461746500000000000000000000000000000000000000000000602082015250565b5f611185602a83610d5a565b91506111908261112b565b604082019050919050565b5f6020820190508181035f8301526111b281611179565b9050919050565b7f52616e646f6d206e756d626572207265717565737420686173206e6f742062655f8201527f656e2066756c66696c6c65640000000000000000000000000000000000000000602082015250565b5f611213602c83610d5a565b915061121e826111b9565b604082019050919050565b5f6020820190508181035f83015261124081611207565b9050919050565b7f4d757374206265206174206c65617374203320706c61796572730000000000005f82015250565b5f61127b601a83610d5a565b915061128682611247565b602082019050919050565b5f6020820190508181035f8301526112a88161126f565b9050919050565b7f4e487b71000000000000000000000000000000000000000000000000000000005f52603260045260245ffd5b7f4e487b71000000000000000000000000000000000000000000000000000000005f52601260045260245ffd5b5f6113138261102c565b915061131e8361102c565b92508261132e5761132d6112dc565b5b828206905092915050565b7f4e487b71000000000000000000000000000000000000000000000000000000005f52601160045260245ffd5b5f6113708261102c565b915061137b8361102c565b92508282026113898161102c565b915082820484148315176113a05761139f611339565b5b5092915050565b5f81905092915050565b50565b5f6113bf5f836113a7565b91506113ca826113b1565b5f82019050919050565b5f6113de826113b4565b9150819050919050565b7f4661696c656420746f2073656e74206d616e61676572206665650000000000005f82015250565b5f61141c601a83610d5a565b9150611427826113e8565b602082019050919050565b5f6020820190508181035f83015261144981611410565b9050919050565b7f4661696c656420746f2073656e642077696e6e65722773207072697a650000005f82015250565b5f611484601d83610d5a565b915061148f82611450565b602082019050919050565b5f6020820190508181035f8301526114b181611478565b9050919050565b5f6114c28261102c565b91507fffffffffffffffffffffffffffffffffffffffffffffffffffffffffffffffff82036114f4576114f3611339565b5b600182019050919050565b7f4e487b71000000000000000000000000000000000000000000000000000000005f52604160045260245ffd5b5f8151905061153a81611035565b92915050565b5f6020828403121561155557611554611024565b5b5f6115628482850161152c565b91505092915050565b7f506c6179657273206861766520656e74657265640000000000000000000000005f82015250565b5f61159f601483610d5a565b91506115aa8261156b565b602082019050919050565b5f6020820190508181035f8301526115cc81611593565b9050919050565b6115dc8161102c565b82525050565b5f6020820190506115f55f8301846115d3565b92915050565b5f8115159050919050565b61160f816115fb565b8114611619575f80fd5b50565b5f8151905061162a81611606565b92915050565b5f80fd5b5f601f19601f8301169050919050565b61164d82611634565b810181811067ffffffffffffffff8211171561166c5761166b6114ff565b5b80604052505050565b5f61167e61101b565b905061168a8282611644565b919050565b5f67ffffffffffffffff8211156116a9576116a86114ff565b5b602082029050602081019050919050565b5f80fd5b5f6116d06116cb8461168f565b611675565b905080838252602082019050602084028301858111156116f3576116f26116ba565b5b835b8181101561171c5780611708888261152c565b8452602084019350506020810190506116f5565b5050509392505050565b5f82601f83011261173a57611739611630565b5b815161174a8482602086016116be565b91505092915050565b5f806040838503121561176957611768611024565b5b5f6117768582860161161c565b925050602083015167ffffffffffffffff81111561179757611796611028565b5b6117a385828601611726565b915050925092905056fea26469706673582212207d4cfe65308e296da8afcdcec80ed904764da15ef26e18a729bb3dff8d333cfe64736f6c63430008140033",
					"opcodes": "PUSH1 0x80 PUSH1 0x40 MSTORE CALLVALUE DUP1 ISZERO PUSH2 0xF JUMPI PUSH0 DUP1 REVERT JUMPDEST POP CALLER PUSH0 DUP1 PUSH2 0x100 EXP DUP2 SLOAD DUP2 PUSH20 0xFFFFFFFFFFFFFFFFFFFFFFFFFFFFFFFFFFFFFFFF MUL NOT AND SWAP1 DUP4 PUSH20 0xFFFFFFFFFFFFFFFFFFFFFFFFFFFFFFFFFFFFFFFF AND MUL OR SWAP1 SSTORE POP PUSH0 PUSH1 0x5 PUSH0 PUSH2 0x100 EXP DUP2 SLOAD DUP2 PUSH1 0xFF MUL NOT AND SWAP1 DUP4 PUSH1 0x2 DUP2 GT ISZERO PUSH2 0x73 JUMPI PUSH2 0x72 PUSH2 0xD1 JUMP JUMPDEST JUMPDEST MUL OR SWAP1 SSTORE POP PUSH20 0xCD71A8C2291AA5DEABB1F3CFC651C137887F2A54 PUSH1 0x2 PUSH0 PUSH2 0x100 EXP DUP2 SLOAD DUP2 PUSH20 0xFFFFFFFFFFFFFFFFFFFFFFFFFFFFFFFFFFFFFFFF MUL NOT AND SWAP1 DUP4 PUSH20 0xFFFFFFFFFFFFFFFFFFFFFFFFFFFFFFFFFFFFFFFF AND MUL OR SWAP1 SSTORE POP PUSH2 0xFE JUMP JUMPDEST PUSH32 0x4E487B7100000000000000000000000000000000000000000000000000000000 PUSH0 MSTORE PUSH1 0x21 PUSH1 0x4 MSTORE PUSH1 0x24 PUSH0 REVERT JUMPDEST PUSH2 0x17E3 DUP1 PUSH2 0x10B PUSH0 CODECOPY PUSH0 RETURN INVALID PUSH1 0x80 PUSH1 0x40 MSTORE PUSH1 0x4 CALLDATASIZE LT PUSH2 0x7E JUMPI PUSH0 CALLDATALOAD PUSH1 0xE0 SHR DUP1 PUSH4 0x81447999 GT PUSH2 0x4D JUMPI DUP1 PUSH4 0x81447999 EQ PUSH2 0x22A JUMPI DUP1 PUSH4 0x8B5B9CCC EQ PUSH2 0x254 JUMPI DUP1 PUSH4 0x8E51001D EQ PUSH2 0x27E JUMPI DUP1 PUSH4 0xF71D96CB EQ PUSH2 0x2BA JUMPI PUSH2 0x1BA JUMP JUMPDEST DUP1 PUSH4 0x481C6A75 EQ PUSH2 0x1BE JUMPI DUP1 PUSH4 0x5D495AEA EQ PUSH2 0x1E8 JUMPI DUP1 PUSH4 0x6A385C04 EQ PUSH2 0x1FE JUMPI DUP1 PUSH4 0x6FD09816 EQ PUSH2 0x214 JUMPI PUSH2 0x1BA JUMP JUMPDEST CALLDATASIZE PUSH2 0x1BA JUMPI PUSH0 DUP1 SLOAD SWAP1 PUSH2 0x100 EXP SWAP1 DIV PUSH20 0xFFFFFFFFFFFFFFFFFFFFFFFFFFFFFFFFFFFFFFFF AND PUSH20 0xFFFFFFFFFFFFFFFFFFFFFFFFFFFFFFFFFFFFFFFF AND CALLER PUSH20 0xFFFFFFFFFFFFFFFFFFFFFFFFFFFFFFFFFFFFFFFF AND SUB PUSH2 0x110 JUMPI PUSH1 0x40 MLOAD PUSH32 0x8C379A000000000000000000000000000000000000000000000000000000000 DUP2 MSTORE PUSH1 0x4 ADD PUSH2 0x107 SWAP1 PUSH2 0xDB4 JUMP JUMPDEST PUSH1 0x40 MLOAD DUP1 SWAP2 SUB SWAP1 REVERT JUMPDEST PUSH7 0x27147114878000 CALLVALUE EQ PUSH2 0x159 JUMPI PUSH1 0x40 MLOAD PUSH32 0x8C379A000000000000000000000000000000000000000000000000000000000 DUP2 MSTORE PUSH1 0x4 ADD PUSH2 0x150 SWAP1 PUSH2 0xE42 JUMP JUMPDEST PUSH1 0x40 MLOAD DUP1 SWAP2 SUB SWAP1 REVERT JUMPDEST PUSH1 0x1 CALLER SWAP1 DUP1 PUSH1 0x1 DUP2 SLOAD ADD DUP1 DUP3 SSTORE DUP1 SWAP2 POP POP PUSH1 0x1 SWAP1 SUB SWAP1 PUSH0 MSTORE PUSH1 0x20 PUSH0 KECCAK256 ADD PUSH0 SWAP1 SWAP2 SWAP1 SWAP2 SWAP1 SWAP2 PUSH2 0x100 EXP DUP2 SLOAD DUP2 PUSH20 0xFFFFFFFFFFFFFFFFFFFFFFFFFFFFFFFFFFFFFFFF MUL NOT AND SWAP1 DUP4 PUSH20 0xFFFFFFFFFFFFFFFFFFFFFFFFFFFFFFFFFFFFFFFF AND MUL OR SWAP1 SSTORE STOP JUMPDEST PUSH0 DUP1 REVERT JUMPDEST CALLVALUE DUP1 ISZERO PUSH2 0x1C9 JUMPI PUSH0 DUP1 REVERT JUMPDEST POP PUSH2 0x1D2 PUSH2 0x2F6 JUMP JUMPDEST PUSH1 0x40 MLOAD PUSH2 0x1DF SWAP2 SWAP1 PUSH2 0xE9F JUMP JUMPDEST PUSH1 0x40 MLOAD DUP1 SWAP2 SUB SWAP1 RETURN JUMPDEST CALLVALUE DUP1 ISZERO PUSH2 0x1F3 JUMPI PUSH0 DUP1 REVERT JUMPDEST POP PUSH2 0x1FC PUSH2 0x319 JUMP JUMPDEST STOP JUMPDEST CALLVALUE DUP1 ISZERO PUSH2 0x209 JUMPI PUSH0 DUP1 REVERT JUMPDEST POP PUSH2 0x212 PUSH2 0x79D JUMP JUMPDEST STOP JUMPDEST CALLVALUE DUP1 ISZERO PUSH2 0x21F JUMPI PUSH0 DUP1 REVERT JUMPDEST POP PUSH2 0x228 PUSH2 0x8E6 JUMP JUMPDEST STOP JUMPDEST CALLVALUE DUP1 ISZERO PUSH2 0x235 JUMPI PUSH0 DUP1 REVERT JUMPDEST POP PUSH2 0x23E PUSH2 0x9E6 JUMP JUMPDEST PUSH1 0x40 MLOAD PUSH2 0x24B SWAP2 SWAP1 PUSH2 0xF2B JUMP JUMPDEST PUSH1 0x40 MLOAD DUP1 SWAP2 SUB SWAP1 RETURN JUMPDEST CALLVALUE DUP1 ISZERO PUSH2 0x25F JUMPI PUSH0 DUP1 REVERT JUMPDEST POP PUSH2 0x268 PUSH2 0x9F8 JUMP JUMPDEST PUSH1 0x40 MLOAD PUSH2 0x275 SWAP2 SWAP1 PUSH2 0xFFB JUMP JUMPDEST PUSH1 0x40 MLOAD DUP1 SWAP2 SUB SWAP1 RETURN JUMPDEST CALLVALUE DUP1 ISZERO PUSH2 0x289 JUMPI PUSH0 DUP1 REVERT JUMPDEST POP PUSH2 0x2A4 PUSH1 0x4 DUP1 CALLDATASIZE SUB DUP2 ADD SWAP1 PUSH2 0x29F SWAP2 SWAP1 PUSH2 0x105F JUMP JUMPDEST PUSH2 0xB10 JUMP JUMPDEST PUSH1 0x40 MLOAD PUSH2 0x2B1 SWAP2 SWAP1 PUSH2 0x10AA JUMP JUMPDEST PUSH1 0x40 MLOAD DUP1 SWAP2 SUB SWAP1 RETURN JUMPDEST CALLVALUE DUP1 ISZERO PUSH2 0x2C5 JUMPI PUSH0 DUP1 REVERT JUMPDEST POP PUSH2 0x2E0 PUSH1 0x4 DUP1 CALLDATASIZE SUB DUP2 ADD SWAP1 PUSH2 0x2DB SWAP2 SWAP1 PUSH2 0x105F JUMP JUMPDEST PUSH2 0xB40 JUMP JUMPDEST PUSH1 0x40 MLOAD PUSH2 0x2ED SWAP2 SWAP1 PUSH2 0xE9F JUMP JUMPDEST PUSH1 0x40 MLOAD DUP1 SWAP2 SUB SWAP1 RETURN JUMPDEST PUSH0 DUP1 SLOAD SWAP1 PUSH2 0x100 EXP SWAP1 DIV PUSH20 0xFFFFFFFFFFFFFFFFFFFFFFFFFFFFFFFFFFFFFFFF AND DUP2 JUMP JUMPDEST PUSH0 DUP1 SLOAD SWAP1 PUSH2 0x100 EXP SWAP1 DIV PUSH20 0xFFFFFFFFFFFFFFFFFFFFFFFFFFFFFFFFFFFFFFFF AND PUSH20 0xFFFFFFFFFFFFFFFFFFFFFFFFFFFFFFFFFFFFFFFF AND CALLER PUSH20 0xFFFFFFFFFFFFFFFFFFFFFFFFFFFFFFFFFFFFFFFF AND EQ PUSH2 0x3A6 JUMPI PUSH1 0x40 MLOAD PUSH32 0x8C379A000000000000000000000000000000000000000000000000000000000 DUP2 MSTORE PUSH1 0x4 ADD PUSH2 0x39D SWAP1 PUSH2 0x110D JUMP JUMPDEST PUSH1 0x40 MLOAD DUP1 SWAP2 SUB SWAP1 REVERT JUMPDEST PUSH1 0x2 DUP1 DUP2 GT ISZERO PUSH2 0x3B9 JUMPI PUSH2 0x3B8 PUSH2 0xEB8 JUMP JUMPDEST JUMPDEST PUSH1 0x5 PUSH0 SWAP1 SLOAD SWAP1 PUSH2 0x100 EXP SWAP1 DIV PUSH1 0xFF AND PUSH1 0x2 DUP2 GT ISZERO PUSH2 0x3DA JUMPI PUSH2 0x3D9 PUSH2 0xEB8 JUMP JUMPDEST JUMPDEST EQ PUSH2 0x41A JUMPI PUSH1 0x40 MLOAD PUSH32 0x8C379A000000000000000000000000000000000000000000000000000000000 DUP2 MSTORE PUSH1 0x4 ADD PUSH2 0x411 SWAP1 PUSH2 0x119B JUMP JUMPDEST PUSH1 0x40 MLOAD DUP1 SWAP2 SUB SWAP1 REVERT JUMPDEST PUSH0 DUP1 PUSH2 0x424 PUSH2 0xB7B JUMP JUMPDEST SWAP2 POP SWAP2 POP DUP2 PUSH2 0x468 JUMPI PUSH1 0x40 MLOAD PUSH32 0x8C379A000000000000000000000000000000000000000000000000000000000 DUP2 MSTORE PUSH1 0x4 ADD PUSH2 0x45F SWAP1 PUSH2 0x1229 JUMP JUMPDEST PUSH1 0x40 MLOAD DUP1 SWAP2 SUB SWAP1 REVERT JUMPDEST PUSH1 0x3 PUSH1 0x1 DUP1 SLOAD SWAP1 POP LT ISZERO PUSH2 0x4B1 JUMPI PUSH1 0x40 MLOAD PUSH32 0x8C379A000000000000000000000000000000000000000000000000000000000 DUP2 MSTORE PUSH1 0x4 ADD PUSH2 0x4A8 SWAP1 PUSH2 0x1291 JUMP JUMPDEST PUSH1 0x40 MLOAD DUP1 SWAP2 SUB SWAP1 REVERT JUMPDEST PUSH0 PUSH1 0x1 DUP1 SLOAD SWAP1 POP DUP3 PUSH0 DUP2 MLOAD DUP2 LT PUSH2 0x4CB JUMPI PUSH2 0x4CA PUSH2 0x12AF JUMP JUMPDEST JUMPDEST PUSH1 0x20 MUL PUSH1 0x20 ADD ADD MLOAD PUSH2 0x4DD SWAP2 SWAP1 PUSH2 0x1309 JUMP JUMPDEST SWAP1 POP PUSH0 PUSH1 0x1 DUP3 DUP2 SLOAD DUP2 LT PUSH2 0x4F4 JUMPI PUSH2 0x4F3 PUSH2 0x12AF JUMP JUMPDEST JUMPDEST SWAP1 PUSH0 MSTORE PUSH1 0x20 PUSH0 KECCAK256 ADD PUSH0 SWAP1 SLOAD SWAP1 PUSH2 0x100 EXP SWAP1 DIV PUSH20 0xFFFFFFFFFFFFFFFFFFFFFFFFFFFFFFFFFFFFFFFF AND SWAP1 POP PUSH0 DUP1 PUSH0 SWAP1 SLOAD SWAP1 PUSH2 0x100 EXP SWAP1 DIV PUSH20 0xFFFFFFFFFFFFFFFFFFFFFFFFFFFFFFFFFFFFFFFF AND PUSH20 0xFFFFFFFFFFFFFFFFFFFFFFFFFFFFFFFFFFFFFFFF AND PUSH1 0x1 DUP1 SLOAD SWAP1 POP PUSH7 0x38D7EA4C68000 PUSH2 0x56E SWAP2 SWAP1 PUSH2 0x1366 JUMP JUMPDEST PUSH1 0x40 MLOAD PUSH2 0x57A SWAP1 PUSH2 0x13D4 JUMP JUMPDEST PUSH0 PUSH1 0x40 MLOAD DUP1 DUP4 SUB DUP2 DUP6 DUP8 GAS CALL SWAP3 POP POP POP RETURNDATASIZE DUP1 PUSH0 DUP2 EQ PUSH2 0x5B4 JUMPI PUSH1 0x40 MLOAD SWAP2 POP PUSH1 0x1F NOT PUSH1 0x3F RETURNDATASIZE ADD AND DUP3 ADD PUSH1 0x40 MSTORE RETURNDATASIZE DUP3 MSTORE RETURNDATASIZE PUSH0 PUSH1 0x20 DUP5 ADD RETURNDATACOPY PUSH2 0x5B9 JUMP JUMPDEST PUSH1 0x60 SWAP2 POP JUMPDEST POP POP SWAP1 POP DUP1 PUSH2 0x5FD JUMPI PUSH1 0x40 MLOAD PUSH32 0x8C379A000000000000000000000000000000000000000000000000000000000 DUP2 MSTORE PUSH1 0x4 ADD PUSH2 0x5F4 SWAP1 PUSH2 0x1432 JUMP JUMPDEST PUSH1 0x40 MLOAD DUP1 SWAP2 SUB SWAP1 REVERT JUMPDEST PUSH0 DUP3 PUSH20 0xFFFFFFFFFFFFFFFFFFFFFFFFFFFFFFFFFFFFFFFF AND SELFBALANCE PUSH1 0x40 MLOAD PUSH2 0x622 SWAP1 PUSH2 0x13D4 JUMP JUMPDEST PUSH0 PUSH1 0x40 MLOAD DUP1 DUP4 SUB DUP2 DUP6 DUP8 GAS CALL SWAP3 POP POP POP RETURNDATASIZE DUP1 PUSH0 DUP2 EQ PUSH2 0x65C JUMPI PUSH1 0x40 MLOAD SWAP2 POP PUSH1 0x1F NOT PUSH1 0x3F RETURNDATASIZE ADD AND DUP3 ADD PUSH1 0x40 MSTORE RETURNDATASIZE DUP3 MSTORE RETURNDATASIZE PUSH0 PUSH1 0x20 DUP5 ADD RETURNDATACOPY PUSH2 0x661 JUMP JUMPDEST PUSH1 0x60 SWAP2 POP JUMPDEST POP POP SWAP1 POP DUP1 PUSH2 0x6A5 JUMPI PUSH1 0x40 MLOAD PUSH32 0x8C379A000000000000000000000000000000000000000000000000000000000 DUP2 MSTORE PUSH1 0x4 ADD PUSH2 0x69C SWAP1 PUSH2 0x149A JUMP JUMPDEST PUSH1 0x40 MLOAD DUP1 SWAP2 SUB SWAP1 REVERT JUMPDEST PUSH1 0x3 PUSH0 DUP2 SLOAD DUP1 SWAP3 SWAP2 SWAP1 PUSH2 0x6B7 SWAP1 PUSH2 0x14B8 JUMP JUMPDEST SWAP2 SWAP1 POP SSTORE POP DUP3 PUSH1 0x4 PUSH0 PUSH1 0x3 SLOAD DUP2 MSTORE PUSH1 0x20 ADD SWAP1 DUP2 MSTORE PUSH1 0x20 ADD PUSH0 KECCAK256 PUSH0 PUSH2 0x100 EXP DUP2 SLOAD DUP2 PUSH20 0xFFFFFFFFFFFFFFFFFFFFFFFFFFFFFFFFFFFFFFFF MUL NOT AND SWAP1 DUP4 PUSH20 0xFFFFFFFFFFFFFFFFFFFFFFFFFFFFFFFFFFFFFFFF AND MUL OR SWAP1 SSTORE POP PUSH0 PUSH8 0xFFFFFFFFFFFFFFFF DUP2 GT ISZERO PUSH2 0x727 JUMPI PUSH2 0x726 PUSH2 0x14FF JUMP JUMPDEST JUMPDEST PUSH1 0x40 MLOAD SWAP1 DUP1 DUP3 MSTORE DUP1 PUSH1 0x20 MUL PUSH1 0x20 ADD DUP3 ADD PUSH1 0x40 MSTORE DUP1 ISZERO PUSH2 0x755 JUMPI DUP2 PUSH1 0x20 ADD PUSH1 0x20 DUP3 MUL DUP1 CALLDATASIZE DUP4 CALLDATACOPY DUP1 DUP3 ADD SWAP2 POP POP SWAP1 POP JUMPDEST POP PUSH1 0x1 SWAP1 DUP1 MLOAD SWAP1 PUSH1 0x20 ADD SWAP1 PUSH2 0x76B SWAP3 SWAP2 SWAP1 PUSH2 0xCB8 JUMP JUMPDEST POP PUSH0 PUSH1 0x5 PUSH0 PUSH2 0x100 EXP DUP2 SLOAD DUP2 PUSH1 0xFF MUL NOT AND SWAP1 DUP4 PUSH1 0x2 DUP2 GT ISZERO PUSH2 0x790 JUMPI PUSH2 0x78F PUSH2 0xEB8 JUMP JUMPDEST JUMPDEST MUL OR SWAP1 SSTORE POP POP POP POP POP POP POP JUMP JUMPDEST PUSH0 DUP1 SLOAD SWAP1 PUSH2 0x100 EXP SWAP1 DIV PUSH20 0xFFFFFFFFFFFFFFFFFFFFFFFFFFFFFFFFFFFFFFFF AND PUSH20 0xFFFFFFFFFFFFFFFFFFFFFFFFFFFFFFFFFFFFFFFF AND CALLER PUSH20 0xFFFFFFFFFFFFFFFFFFFFFFFFFFFFFFFFFFFFFFFF AND EQ PUSH2 0x82A JUMPI PUSH1 0x40 MLOAD PUSH32 0x8C379A000000000000000000000000000000000000000000000000000000000 DUP2 MSTORE PUSH1 0x4 ADD PUSH2 0x821 SWAP1 PUSH2 0x110D JUMP JUMPDEST PUSH1 0x40 MLOAD DUP1 SWAP2 SUB SWAP1 REVERT JUMPDEST PUSH1 0x2 PUSH0 SWAP1 SLOAD SWAP1 PUSH2 0x100 EXP SWAP1 DIV PUSH20 0xFFFFFFFFFFFFFFFFFFFFFFFFFFFFFFFFFFFFFFFF AND PUSH20 0xFFFFFFFFFFFFFFFFFFFFFFFFFFFFFFFFFFFFFFFF AND PUSH4 0xE0C86289 PUSH1 0x40 MLOAD DUP2 PUSH4 0xFFFFFFFF AND PUSH1 0xE0 SHL DUP2 MSTORE PUSH1 0x4 ADD PUSH1 0x20 PUSH1 0x40 MLOAD DUP1 DUP4 SUB DUP2 PUSH0 DUP8 GAS CALL ISZERO DUP1 ISZERO PUSH2 0x895 JUMPI RETURNDATASIZE PUSH0 DUP1 RETURNDATACOPY RETURNDATASIZE PUSH0 REVERT JUMPDEST POP POP POP POP PUSH1 0x40 MLOAD RETURNDATASIZE PUSH1 0x1F NOT PUSH1 0x1F DUP3 ADD AND DUP3 ADD DUP1 PUSH1 0x40 MSTORE POP DUP2 ADD SWAP1 PUSH2 0x8B9 SWAP2 SWAP1 PUSH2 0x1540 JUMP JUMPDEST POP PUSH1 0x2 PUSH1 0x5 PUSH0 PUSH2 0x100 EXP DUP2 SLOAD DUP2 PUSH1 0xFF MUL NOT AND SWAP1 DUP4 PUSH1 0x2 DUP2 GT ISZERO PUSH2 0x8DF JUMPI PUSH2 0x8DE PUSH2 0xEB8 JUMP JUMPDEST JUMPDEST MUL OR SWAP1 SSTORE POP JUMP JUMPDEST PUSH0 DUP1 SLOAD SWAP1 PUSH2 0x100 EXP SWAP1 DIV PUSH20 0xFFFFFFFFFFFFFFFFFFFFFFFFFFFFFFFFFFFFFFFF AND PUSH20 0xFFFFFFFFFFFFFFFFFFFFFFFFFFFFFFFFFFFFFFFF AND CALLER PUSH20 0xFFFFFFFFFFFFFFFFFFFFFFFFFFFFFFFFFFFFFFFF AND EQ PUSH2 0x973 JUMPI PUSH1 0x40 MLOAD PUSH32 0x8C379A000000000000000000000000000000000000000000000000000000000 DUP2 MSTORE PUSH1 0x4 ADD PUSH2 0x96A SWAP1 PUSH2 0x110D JUMP JUMPDEST PUSH1 0x40 MLOAD DUP1 SWAP2 SUB SWAP1 REVERT JUMPDEST PUSH0 PUSH1 0x1 DUP1 SLOAD SWAP1 POP EQ PUSH2 0x9BA JUMPI PUSH1 0x40 MLOAD PUSH32 0x8C379A000000000000000000000000000000000000000000000000000000000 DUP2 MSTORE PUSH1 0x4 ADD PUSH2 0x9B1 SWAP1 PUSH2 0x15B5 JUMP JUMPDEST PUSH1 0x40 MLOAD DUP1 SWAP2 SUB SWAP1 REVERT JUMPDEST PUSH1 0x1 PUSH1 0x5 PUSH0 PUSH2 0x100 EXP DUP2 SLOAD DUP2 PUSH1 0xFF MUL NOT AND SWAP1 DUP4 PUSH1 0x2 DUP2 GT ISZERO PUSH2 0x9DF JUMPI PUSH2 0x9DE PUSH2 0xEB8 JUMP JUMPDEST JUMPDEST MUL OR SWAP1 SSTORE POP JUMP JUMPDEST PUSH1 0x5 PUSH0 SWAP1 SLOAD SWAP1 PUSH2 0x100 EXP SWAP1 DIV PUSH1 0xFF AND DUP2 JUMP JUMPDEST PUSH1 0x60 PUSH0 DUP1 SLOAD SWAP1 PUSH2 0x100 EXP SWAP1 DIV PUSH20 0xFFFFFFFFFFFFFFFFFFFFFFFFFFFFFFFFFFFFFFFF AND PUSH20 0xFFFFFFFFFFFFFFFFFFFFFFFFFFFFFFFFFFFFFFFF AND CALLER PUSH20 0xFFFFFFFFFFFFFFFFFFFFFFFFFFFFFFFFFFFFFFFF AND EQ PUSH2 0xA87 JUMPI PUSH1 0x40 MLOAD PUSH32 0x8C379A000000000000000000000000000000000000000000000000000000000 DUP2 MSTORE PUSH1 0x4 ADD PUSH2 0xA7E SWAP1 PUSH2 0x110D JUMP JUMPDEST PUSH1 0x40 MLOAD DUP1 SWAP2 SUB SWAP1 REVERT JUMPDEST PUSH1 0x1 DUP1 SLOAD DUP1 PUSH1 0x20 MUL PUSH1 0x20 ADD PUSH1 0x40 MLOAD SWAP1 DUP2 ADD PUSH1 0x40 MSTORE DUP1 SWAP3 SWAP2 SWAP1 DUP2 DUP2 MSTORE PUSH1 0x20 ADD DUP3 DUP1 SLOAD DUP1 ISZERO PUSH2 0xB06 JUMPI PUSH1 0x20 MUL DUP3 ADD SWAP2 SWAP1 PUSH0 MSTORE PUSH1 0x20 PUSH0 KECCAK256 SWAP1 JUMPDEST DUP2 PUSH0 SWAP1 SLOAD SWAP1 PUSH2 0x100 EXP SWAP1 DIV PUSH20 0xFFFFFFFFFFFFFFFFFFFFFFFFFFFFFFFFFFFFFFFF AND PUSH20 0xFFFFFFFFFFFFFFFFFFFFFFFFFFFFFFFFFFFFFFFF AND DUP2 MSTORE PUSH1 0x20 ADD SWAP1 PUSH1 0x1 ADD SWAP1 DUP1 DUP4 GT PUSH2 0xABD JUMPI JUMPDEST POP POP POP POP POP SWAP1 POP SWAP1 JUMP JUMPDEST PUSH1 0x4 PUSH1 0x20 MSTORE DUP1 PUSH0 MSTORE PUSH1 0x40 PUSH0 KECCAK256 PUSH0 SWAP2 POP SLOAD SWAP1 PUSH2 0x100 EXP SWAP1 DIV PUSH20 0xFFFFFFFFFFFFFFFFFFFFFFFFFFFFFFFFFFFFFFFF AND DUP2 JUMP JUMPDEST PUSH1 0x1 DUP2 DUP2 SLOAD DUP2 LT PUSH2 0xB4F JUMPI PUSH0 DUP1 REVERT JUMPDEST SWAP1 PUSH0 MSTORE PUSH1 0x20 PUSH0 KECCAK256 ADD PUSH0 SWAP2 POP SLOAD SWAP1 PUSH2 0x100 EXP SWAP1 DIV PUSH20 0xFFFFFFFFFFFFFFFFFFFFFFFFFFFFFFFFFFFFFFFF AND DUP2 JUMP JUMPDEST PUSH0 PUSH1 0x60 PUSH0 PUSH1 0x2 PUSH0 SWAP1 SLOAD SWAP1 PUSH2 0x100 EXP SWAP1 DIV PUSH20 0xFFFFFFFFFFFFFFFFFFFFFFFFFFFFFFFFFFFFFFFF AND PUSH20 0xFFFFFFFFFFFFFFFFFFFFFFFFFFFFFFFFFFFFFFFF AND PUSH4 0xFC2A88C3 PUSH1 0x40 MLOAD DUP2 PUSH4 0xFFFFFFFF AND PUSH1 0xE0 SHL DUP2 MSTORE PUSH1 0x4 ADD PUSH1 0x20 PUSH1 0x40 MLOAD DUP1 DUP4 SUB DUP2 DUP7 GAS STATICCALL ISZERO DUP1 ISZERO PUSH2 0xBE9 JUMPI RETURNDATASIZE PUSH0 DUP1 RETURNDATACOPY RETURNDATASIZE PUSH0 REVERT JUMPDEST POP POP POP POP PUSH1 0x40 MLOAD RETURNDATASIZE PUSH1 0x1F NOT PUSH1 0x1F DUP3 ADD AND DUP3 ADD DUP1 PUSH1 0x40 MSTORE POP DUP2 ADD SWAP1 PUSH2 0xC0D SWAP2 SWAP1 PUSH2 0x1540 JUMP JUMPDEST SWAP1 POP PUSH1 0x2 PUSH0 SWAP1 SLOAD SWAP1 PUSH2 0x100 EXP SWAP1 DIV PUSH20 0xFFFFFFFFFFFFFFFFFFFFFFFFFFFFFFFFFFFFFFFF AND PUSH20 0xFFFFFFFFFFFFFFFFFFFFFFFFFFFFFFFFFFFFFFFF AND PUSH4 0xD8A4676F DUP3 PUSH1 0x40 MLOAD DUP3 PUSH4 0xFFFFFFFF AND PUSH1 0xE0 SHL DUP2 MSTORE PUSH1 0x4 ADD PUSH2 0xC69 SWAP2 SWAP1 PUSH2 0x15E2 JUMP JUMPDEST PUSH0 PUSH1 0x40 MLOAD DUP1 DUP4 SUB DUP2 DUP7 GAS STATICCALL ISZERO DUP1 ISZERO PUSH2 0xC83 JUMPI RETURNDATASIZE PUSH0 DUP1 RETURNDATACOPY RETURNDATASIZE PUSH0 REVERT JUMPDEST POP POP POP POP PUSH1 0x40 MLOAD RETURNDATASIZE PUSH0 DUP3 RETURNDATACOPY RETURNDATASIZE PUSH1 0x1F NOT PUSH1 0x1F DUP3 ADD AND DUP3 ADD DUP1 PUSH1 0x40 MSTORE POP DUP2 ADD SWAP1 PUSH2 0xCAB SWAP2 SWAP1 PUSH2 0x1753 JUMP JUMPDEST DUP1 SWAP4 POP DUP2 SWAP5 POP POP POP POP SWAP1 SWAP2 JUMP JUMPDEST DUP3 DUP1 SLOAD DUP3 DUP3 SSTORE SWAP1 PUSH0 MSTORE PUSH1 0x20 PUSH0 KECCAK256 SWAP1 DUP2 ADD SWAP3 DUP3 ISZERO PUSH2 0xD2E JUMPI SWAP2 PUSH1 0x20 MUL DUP3 ADD JUMPDEST DUP3 DUP2 GT ISZERO PUSH2 0xD2D JUMPI DUP3 MLOAD DUP3 PUSH0 PUSH2 0x100 EXP DUP2 SLOAD DUP2 PUSH20 0xFFFFFFFFFFFFFFFFFFFFFFFFFFFFFFFFFFFFFFFF MUL NOT AND SWAP1 DUP4 PUSH20 0xFFFFFFFFFFFFFFFFFFFFFFFFFFFFFFFFFFFFFFFF AND MUL OR SWAP1 SSTORE POP SWAP2 PUSH1 0x20 ADD SWAP2 SWAP1 PUSH1 0x1 ADD SWAP1 PUSH2 0xCD6 JUMP JUMPDEST JUMPDEST POP SWAP1 POP PUSH2 0xD3B SWAP2 SWAP1 PUSH2 0xD3F JUMP JUMPDEST POP SWAP1 JUMP JUMPDEST JUMPDEST DUP1 DUP3 GT ISZERO PUSH2 0xD56 JUMPI PUSH0 DUP2 PUSH0 SWAP1 SSTORE POP PUSH1 0x1 ADD PUSH2 0xD40 JUMP JUMPDEST POP SWAP1 JUMP JUMPDEST PUSH0 DUP3 DUP3 MSTORE PUSH1 0x20 DUP3 ADD SWAP1 POP SWAP3 SWAP2 POP POP JUMP JUMPDEST PUSH32 0x4D616E616765722063616E6E6F74206A6F696E20746865206C6F747465727900 PUSH0 DUP3 ADD MSTORE POP JUMP JUMPDEST PUSH0 PUSH2 0xD9E PUSH1 0x1F DUP4 PUSH2 0xD5A JUMP JUMPDEST SWAP2 POP PUSH2 0xDA9 DUP3 PUSH2 0xD6A JUMP JUMPDEST PUSH1 0x20 DUP3 ADD SWAP1 POP SWAP2 SWAP1 POP JUMP JUMPDEST PUSH0 PUSH1 0x20 DUP3 ADD SWAP1 POP DUP2 DUP2 SUB PUSH0 DUP4 ADD MSTORE PUSH2 0xDCB DUP2 PUSH2 0xD92 JUMP JUMPDEST SWAP1 POP SWAP2 SWAP1 POP JUMP JUMPDEST PUSH32 0x4D75737420626520302E30313145544820746F20656E74657220746865206C6F PUSH0 DUP3 ADD MSTORE PUSH32 0x7474657279000000000000000000000000000000000000000000000000000000 PUSH1 0x20 DUP3 ADD MSTORE POP JUMP JUMPDEST PUSH0 PUSH2 0xE2C PUSH1 0x25 DUP4 PUSH2 0xD5A JUMP JUMPDEST SWAP2 POP PUSH2 0xE37 DUP3 PUSH2 0xDD2 JUMP JUMPDEST PUSH1 0x40 DUP3 ADD SWAP1 POP SWAP2 SWAP1 POP JUMP JUMPDEST PUSH0 PUSH1 0x20 DUP3 ADD SWAP1 POP DUP2 DUP2 SUB PUSH0 DUP4 ADD MSTORE PUSH2 0xE59 DUP2 PUSH2 0xE20 JUMP JUMPDEST SWAP1 POP SWAP2 SWAP1 POP JUMP JUMPDEST PUSH0 PUSH20 0xFFFFFFFFFFFFFFFFFFFFFFFFFFFFFFFFFFFFFFFF DUP3 AND SWAP1 POP SWAP2 SWAP1 POP JUMP JUMPDEST PUSH0 PUSH2 0xE89 DUP3 PUSH2 0xE60 JUMP JUMPDEST SWAP1 POP SWAP2 SWAP1 POP JUMP JUMPDEST PUSH2 0xE99 DUP2 PUSH2 0xE7F JUMP JUMPDEST DUP3 MSTORE POP POP JUMP JUMPDEST PUSH0 PUSH1 0x20 DUP3 ADD SWAP1 POP PUSH2 0xEB2 PUSH0 DUP4 ADD DUP5 PUSH2 0xE90 JUMP JUMPDEST SWAP3 SWAP2 POP POP JUMP JUMPDEST PUSH32 0x4E487B7100000000000000000000000000000000000000000000000000000000 PUSH0 MSTORE PUSH1 0x21 PUSH1 0x4 MSTORE PUSH1 0x24 PUSH0 REVERT JUMPDEST PUSH1 0x3 DUP2 LT PUSH2 0xEF6 JUMPI PUSH2 0xEF5 PUSH2 0xEB8 JUMP JUMPDEST JUMPDEST POP JUMP JUMPDEST PUSH0 DUP2 SWAP1 POP PUSH2 0xF06 DUP3 PUSH2 0xEE5 JUMP JUMPDEST SWAP2 SWAP1 POP JUMP JUMPDEST PUSH0 PUSH2 0xF15 DUP3 PUSH2 0xEF9 JUMP JUMPDEST SWAP1 POP SWAP2 SWAP1 POP JUMP JUMPDEST PUSH2 0xF25 DUP2 PUSH2 0xF0B JUMP JUMPDEST DUP3 MSTORE POP POP JUMP JUMPDEST PUSH0 PUSH1 0x20 DUP3 ADD SWAP1 POP PUSH2 0xF3E PUSH0 DUP4 ADD DUP5 PUSH2 0xF1C JUMP JUMPDEST SWAP3 SWAP2 POP POP JUMP JUMPDEST PUSH0 DUP2 MLOAD SWAP1 POP SWAP2 SWAP1 POP JUMP JUMPDEST PUSH0 DUP3 DUP3 MSTORE PUSH1 0x20 DUP3 ADD SWAP1 POP SWAP3 SWAP2 POP POP JUMP JUMPDEST PUSH0 DUP2 SWAP1 POP PUSH1 0x20 DUP3 ADD SWAP1 POP SWAP2 SWAP1 POP JUMP JUMPDEST PUSH2 0xF76 DUP2 PUSH2 0xE7F JUMP JUMPDEST DUP3 MSTORE POP POP JUMP JUMPDEST PUSH0 PUSH2 0xF87 DUP4 DUP4 PUSH2 0xF6D JUMP JUMPDEST PUSH1 0x20 DUP4 ADD SWAP1 POP SWAP3 SWAP2 POP POP JUMP JUMPDEST PUSH0 PUSH1 0x20 DUP3 ADD SWAP1 POP SWAP2 SWAP1 POP JUMP JUMPDEST PUSH0 PUSH2 0xFA9 DUP3 PUSH2 0xF44 JUMP JUMPDEST PUSH2 0xFB3 DUP2 DUP6 PUSH2 0xF4E JUMP JUMPDEST SWAP4 POP PUSH2 0xFBE DUP4 PUSH2 0xF5E JUMP JUMPDEST DUP1 PUSH0 JUMPDEST DUP4 DUP2 LT ISZERO PUSH2 0xFEE JUMPI DUP2 MLOAD PUSH2 0xFD5 DUP9 DUP3 PUSH2 0xF7C JUMP JUMPDEST SWAP8 POP PUSH2 0xFE0 DUP4 PUSH2 0xF93 JUMP JUMPDEST SWAP3 POP POP PUSH1 0x1 DUP2 ADD SWAP1 POP PUSH2 0xFC1 JUMP JUMPDEST POP DUP6 SWAP4 POP POP POP POP SWAP3 SWAP2 POP POP JUMP JUMPDEST PUSH0 PUSH1 0x20 DUP3 ADD SWAP1 POP DUP2 DUP2 SUB PUSH0 DUP4 ADD MSTORE PUSH2 0x1013 DUP2 DUP5 PUSH2 0xF9F JUMP JUMPDEST SWAP1 POP SWAP3 SWAP2 POP POP JUMP JUMPDEST PUSH0 PUSH1 0x40 MLOAD SWAP1 POP SWAP1 JUMP JUMPDEST PUSH0 DUP1 REVERT JUMPDEST PUSH0 DUP1 REVERT JUMPDEST PUSH0 DUP2 SWAP1 POP SWAP2 SWAP1 POP JUMP JUMPDEST PUSH2 0x103E DUP2 PUSH2 0x102C JUMP JUMPDEST DUP2 EQ PUSH2 0x1048 JUMPI PUSH0 DUP1 REVERT JUMPDEST POP JUMP JUMPDEST PUSH0 DUP2 CALLDATALOAD SWAP1 POP PUSH2 0x1059 DUP2 PUSH2 0x1035 JUMP JUMPDEST SWAP3 SWAP2 POP POP JUMP JUMPDEST PUSH0 PUSH1 0x20 DUP3 DUP5 SUB SLT ISZERO PUSH2 0x1074 JUMPI PUSH2 0x1073 PUSH2 0x1024 JUMP JUMPDEST JUMPDEST PUSH0 PUSH2 0x1081 DUP5 DUP3 DUP6 ADD PUSH2 0x104B JUMP JUMPDEST SWAP2 POP POP SWAP3 SWAP2 POP POP JUMP JUMPDEST PUSH0 PUSH2 0x1094 DUP3 PUSH2 0xE60 JUMP JUMPDEST SWAP1 POP SWAP2 SWAP1 POP JUMP JUMPDEST PUSH2 0x10A4 DUP2 PUSH2 0x108A JUMP JUMPDEST DUP3 MSTORE POP POP JUMP JUMPDEST PUSH0 PUSH1 0x20 DUP3 ADD SWAP1 POP PUSH2 0x10BD PUSH0 DUP4 ADD DUP5 PUSH2 0x109B JUMP JUMPDEST SWAP3 SWAP2 POP POP JUMP JUMPDEST PUSH32 0x43616E206F6E6C792062652063616C6C6564206279206D616E61676572000000 PUSH0 DUP3 ADD MSTORE POP JUMP JUMPDEST PUSH0 PUSH2 0x10F7 PUSH1 0x1D DUP4 PUSH2 0xD5A JUMP JUMPDEST SWAP2 POP PUSH2 0x1102 DUP3 PUSH2 0x10C3 JUMP JUMPDEST PUSH1 0x20 DUP3 ADD SWAP1 POP SWAP2 SWAP1 POP JUMP JUMPDEST PUSH0 PUSH1 0x20 DUP3 ADD SWAP1 POP DUP2 DUP2 SUB PUSH0 DUP4 ADD MSTORE PUSH2 0x1124 DUP2 PUSH2 0x10EB JUMP JUMPDEST SWAP1 POP SWAP2 SWAP1 POP JUMP JUMPDEST PUSH32 0x4C6F7474657279206973206E6F7420696E2063616C63756C6174696E67207769 PUSH0 DUP3 ADD MSTORE PUSH32 0x6E6E657220737461746500000000000000000000000000000000000000000000 PUSH1 0x20 DUP3 ADD MSTORE POP JUMP JUMPDEST PUSH0 PUSH2 0x1185 PUSH1 0x2A DUP4 PUSH2 0xD5A JUMP JUMPDEST SWAP2 POP PUSH2 0x1190 DUP3 PUSH2 0x112B JUMP JUMPDEST PUSH1 0x40 DUP3 ADD SWAP1 POP SWAP2 SWAP1 POP JUMP JUMPDEST PUSH0 PUSH1 0x20 DUP3 ADD SWAP1 POP DUP2 DUP2 SUB PUSH0 DUP4 ADD MSTORE PUSH2 0x11B2 DUP2 PUSH2 0x1179 JUMP JUMPDEST SWAP1 POP SWAP2 SWAP1 POP JUMP JUMPDEST PUSH32 0x52616E646F6D206E756D626572207265717565737420686173206E6F74206265 PUSH0 DUP3 ADD MSTORE PUSH32 0x656E2066756C66696C6C65640000000000000000000000000000000000000000 PUSH1 0x20 DUP3 ADD MSTORE POP JUMP JUMPDEST PUSH0 PUSH2 0x1213 PUSH1 0x2C DUP4 PUSH2 0xD5A JUMP JUMPDEST SWAP2 POP PUSH2 0x121E DUP3 PUSH2 0x11B9 JUMP JUMPDEST PUSH1 0x40 DUP3 ADD SWAP1 POP SWAP2 SWAP1 POP JUMP JUMPDEST PUSH0 PUSH1 0x20 DUP3 ADD SWAP1 POP DUP2 DUP2 SUB PUSH0 DUP4 ADD MSTORE PUSH2 0x1240 DUP2 PUSH2 0x1207 JUMP JUMPDEST SWAP1 POP SWAP2 SWAP1 POP JUMP JUMPDEST PUSH32 0x4D757374206265206174206C65617374203320706C6179657273000000000000 PUSH0 DUP3 ADD MSTORE POP JUMP JUMPDEST PUSH0 PUSH2 0x127B PUSH1 0x1A DUP4 PUSH2 0xD5A JUMP JUMPDEST SWAP2 POP PUSH2 0x1286 DUP3 PUSH2 0x1247 JUMP JUMPDEST PUSH1 0x20 DUP3 ADD SWAP1 POP SWAP2 SWAP1 POP JUMP JUMPDEST PUSH0 PUSH1 0x20 DUP3 ADD SWAP1 POP DUP2 DUP2 SUB PUSH0 DUP4 ADD MSTORE PUSH2 0x12A8 DUP2 PUSH2 0x126F JUMP JUMPDEST SWAP1 POP SWAP2 SWAP1 POP JUMP JUMPDEST PUSH32 0x4E487B7100000000000000000000000000000000000000000000000000000000 PUSH0 MSTORE PUSH1 0x32 PUSH1 0x4 MSTORE PUSH1 0x24 PUSH0 REVERT JUMPDEST PUSH32 0x4E487B7100000000000000000000000000000000000000000000000000000000 PUSH0 MSTORE PUSH1 0x12 PUSH1 0x4 MSTORE PUSH1 0x24 PUSH0 REVERT JUMPDEST PUSH0 PUSH2 0x1313 DUP3 PUSH2 0x102C JUMP JUMPDEST SWAP2 POP PUSH2 0x131E DUP4 PUSH2 0x102C JUMP JUMPDEST SWAP3 POP DUP3 PUSH2 0x132E JUMPI PUSH2 0x132D PUSH2 0x12DC JUMP JUMPDEST JUMPDEST DUP3 DUP3 MOD SWAP1 POP SWAP3 SWAP2 POP POP JUMP JUMPDEST PUSH32 0x4E487B7100000000000000000000000000000000000000000000000000000000 PUSH0 MSTORE PUSH1 0x11 PUSH1 0x4 MSTORE PUSH1 0x24 PUSH0 REVERT JUMPDEST PUSH0 PUSH2 0x1370 DUP3 PUSH2 0x102C JUMP JUMPDEST SWAP2 POP PUSH2 0x137B DUP4 PUSH2 0x102C JUMP JUMPDEST SWAP3 POP DUP3 DUP3 MUL PUSH2 0x1389 DUP2 PUSH2 0x102C JUMP JUMPDEST SWAP2 POP DUP3 DUP3 DIV DUP5 EQ DUP4 ISZERO OR PUSH2 0x13A0 JUMPI PUSH2 0x139F PUSH2 0x1339 JUMP JUMPDEST JUMPDEST POP SWAP3 SWAP2 POP POP JUMP JUMPDEST PUSH0 DUP2 SWAP1 POP SWAP3 SWAP2 POP POP JUMP JUMPDEST POP JUMP JUMPDEST PUSH0 PUSH2 0x13BF PUSH0 DUP4 PUSH2 0x13A7 JUMP JUMPDEST SWAP2 POP PUSH2 0x13CA DUP3 PUSH2 0x13B1 JUMP JUMPDEST PUSH0 DUP3 ADD SWAP1 POP SWAP2 SWAP1 POP JUMP JUMPDEST PUSH0 PUSH2 0x13DE DUP3 PUSH2 0x13B4 JUMP JUMPDEST SWAP2 POP DUP2 SWAP1 POP SWAP2 SWAP1 POP JUMP JUMPDEST PUSH32 0x4661696C656420746F2073656E74206D616E6167657220666565000000000000 PUSH0 DUP3 ADD MSTORE POP JUMP JUMPDEST PUSH0 PUSH2 0x141C PUSH1 0x1A DUP4 PUSH2 0xD5A JUMP JUMPDEST SWAP2 POP PUSH2 0x1427 DUP3 PUSH2 0x13E8 JUMP JUMPDEST PUSH1 0x20 DUP3 ADD SWAP1 POP SWAP2 SWAP1 POP JUMP JUMPDEST PUSH0 PUSH1 0x20 DUP3 ADD SWAP1 POP DUP2 DUP2 SUB PUSH0 DUP4 ADD MSTORE PUSH2 0x1449 DUP2 PUSH2 0x1410 JUMP JUMPDEST SWAP1 POP SWAP2 SWAP1 POP JUMP JUMPDEST PUSH32 0x4661696C656420746F2073656E642077696E6E65722773207072697A65000000 PUSH0 DUP3 ADD MSTORE POP JUMP JUMPDEST PUSH0 PUSH2 0x1484 PUSH1 0x1D DUP4 PUSH2 0xD5A JUMP JUMPDEST SWAP2 POP PUSH2 0x148F DUP3 PUSH2 0x1450 JUMP JUMPDEST PUSH1 0x20 DUP3 ADD SWAP1 POP SWAP2 SWAP1 POP JUMP JUMPDEST PUSH0 PUSH1 0x20 DUP3 ADD SWAP1 POP DUP2 DUP2 SUB PUSH0 DUP4 ADD MSTORE PUSH2 0x14B1 DUP2 PUSH2 0x1478 JUMP JUMPDEST SWAP1 POP SWAP2 SWAP1 POP JUMP JUMPDEST PUSH0 PUSH2 0x14C2 DUP3 PUSH2 0x102C JUMP JUMPDEST SWAP2 POP PUSH32 0xFFFFFFFFFFFFFFFFFFFFFFFFFFFFFFFFFFFFFFFFFFFFFFFFFFFFFFFFFFFFFFFF DUP3 SUB PUSH2 0x14F4 JUMPI PUSH2 0x14F3 PUSH2 0x1339 JUMP JUMPDEST JUMPDEST PUSH1 0x1 DUP3 ADD SWAP1 POP SWAP2 SWAP1 POP JUMP JUMPDEST PUSH32 0x4E487B7100000000000000000000000000000000000000000000000000000000 PUSH0 MSTORE PUSH1 0x41 PUSH1 0x4 MSTORE PUSH1 0x24 PUSH0 REVERT JUMPDEST PUSH0 DUP2 MLOAD SWAP1 POP PUSH2 0x153A DUP2 PUSH2 0x1035 JUMP JUMPDEST SWAP3 SWAP2 POP POP JUMP JUMPDEST PUSH0 PUSH1 0x20 DUP3 DUP5 SUB SLT ISZERO PUSH2 0x1555 JUMPI PUSH2 0x1554 PUSH2 0x1024 JUMP JUMPDEST JUMPDEST PUSH0 PUSH2 0x1562 DUP5 DUP3 DUP6 ADD PUSH2 0x152C JUMP JUMPDEST SWAP2 POP POP SWAP3 SWAP2 POP POP JUMP JUMPDEST PUSH32 0x506C6179657273206861766520656E7465726564000000000000000000000000 PUSH0 DUP3 ADD MSTORE POP JUMP JUMPDEST PUSH0 PUSH2 0x159F PUSH1 0x14 DUP4 PUSH2 0xD5A JUMP JUMPDEST SWAP2 POP PUSH2 0x15AA DUP3 PUSH2 0x156B JUMP JUMPDEST PUSH1 0x20 DUP3 ADD SWAP1 POP SWAP2 SWAP1 POP JUMP JUMPDEST PUSH0 PUSH1 0x20 DUP3 ADD SWAP1 POP DUP2 DUP2 SUB PUSH0 DUP4 ADD MSTORE PUSH2 0x15CC DUP2 PUSH2 0x1593 JUMP JUMPDEST SWAP1 POP SWAP2 SWAP1 POP JUMP JUMPDEST PUSH2 0x15DC DUP2 PUSH2 0x102C JUMP JUMPDEST DUP3 MSTORE POP POP JUMP JUMPDEST PUSH0 PUSH1 0x20 DUP3 ADD SWAP1 POP PUSH2 0x15F5 PUSH0 DUP4 ADD DUP5 PUSH2 0x15D3 JUMP JUMPDEST SWAP3 SWAP2 POP POP JUMP JUMPDEST PUSH0 DUP2 ISZERO ISZERO SWAP1 POP SWAP2 SWAP1 POP JUMP JUMPDEST PUSH2 0x160F DUP2 PUSH2 0x15FB JUMP JUMPDEST DUP2 EQ PUSH2 0x1619 JUMPI PUSH0 DUP1 REVERT JUMPDEST POP JUMP JUMPDEST PUSH0 DUP2 MLOAD SWAP1 POP PUSH2 0x162A DUP2 PUSH2 0x1606 JUMP JUMPDEST SWAP3 SWAP2 POP POP JUMP JUMPDEST PUSH0 DUP1 REVERT JUMPDEST PUSH0 PUSH1 0x1F NOT PUSH1 0x1F DUP4 ADD AND SWAP1 POP SWAP2 SWAP1 POP JUMP JUMPDEST PUSH2 0x164D DUP3 PUSH2 0x1634 JUMP JUMPDEST DUP2 ADD DUP2 DUP2 LT PUSH8 0xFFFFFFFFFFFFFFFF DUP3 GT OR ISZERO PUSH2 0x166C JUMPI PUSH2 0x166B PUSH2 0x14FF JUMP JUMPDEST JUMPDEST DUP1 PUSH1 0x40 MSTORE POP POP POP JUMP JUMPDEST PUSH0 PUSH2 0x167E PUSH2 0x101B JUMP JUMPDEST SWAP1 POP PUSH2 0x168A DUP3 DUP3 PUSH2 0x1644 JUMP JUMPDEST SWAP2 SWAP1 POP JUMP JUMPDEST PUSH0 PUSH8 0xFFFFFFFFFFFFFFFF DUP3 GT ISZERO PUSH2 0x16A9 JUMPI PUSH2 0x16A8 PUSH2 0x14FF JUMP JUMPDEST JUMPDEST PUSH1 0x20 DUP3 MUL SWAP1 POP PUSH1 0x20 DUP2 ADD SWAP1 POP SWAP2 SWAP1 POP JUMP JUMPDEST PUSH0 DUP1 REVERT JUMPDEST PUSH0 PUSH2 0x16D0 PUSH2 0x16CB DUP5 PUSH2 0x168F JUMP JUMPDEST PUSH2 0x1675 JUMP JUMPDEST SWAP1 POP DUP1 DUP4 DUP3 MSTORE PUSH1 0x20 DUP3 ADD SWAP1 POP PUSH1 0x20 DUP5 MUL DUP4 ADD DUP6 DUP2 GT ISZERO PUSH2 0x16F3 JUMPI PUSH2 0x16F2 PUSH2 0x16BA JUMP JUMPDEST JUMPDEST DUP4 JUMPDEST DUP2 DUP2 LT ISZERO PUSH2 0x171C JUMPI DUP1 PUSH2 0x1708 DUP9 DUP3 PUSH2 0x152C JUMP JUMPDEST DUP5 MSTORE PUSH1 0x20 DUP5 ADD SWAP4 POP POP PUSH1 0x20 DUP2 ADD SWAP1 POP PUSH2 0x16F5 JUMP JUMPDEST POP POP POP SWAP4 SWAP3 POP POP POP JUMP JUMPDEST PUSH0 DUP3 PUSH1 0x1F DUP4 ADD SLT PUSH2 0x173A JUMPI PUSH2 0x1739 PUSH2 0x1630 JUMP JUMPDEST JUMPDEST DUP2 MLOAD PUSH2 0x174A DUP5 DUP3 PUSH1 0x20 DUP7 ADD PUSH2 0x16BE JUMP JUMPDEST SWAP2 POP POP SWAP3 SWAP2 POP POP JUMP JUMPDEST PUSH0 DUP1 PUSH1 0x40 DUP4 DUP6 SUB SLT ISZERO PUSH2 0x1769 JUMPI PUSH2 0x1768 PUSH2 0x1024 JUMP JUMPDEST JUMPDEST PUSH0 PUSH2 0x1776 DUP6 DUP3 DUP7 ADD PUSH2 0x161C JUMP JUMPDEST SWAP3 POP POP PUSH1 0x20 DUP4 ADD MLOAD PUSH8 0xFFFFFFFFFFFFFFFF DUP2 GT ISZERO PUSH2 0x1797 JUMPI PUSH2 0x1796 PUSH2 0x1028 JUMP JUMPDEST JUMPDEST PUSH2 0x17A3 DUP6 DUP3 DUP7 ADD PUSH2 0x1726 JUMP JUMPDEST SWAP2 POP POP SWAP3 POP SWAP3 SWAP1 POP JUMP INVALID LOG2 PUSH5 0x6970667358 0x22 SLT KECCAK256 PUSH30 0x4CFE65308E296DA8AFCDCEC80ED904764DA15EF26E18A729BB3DFF8D333C INVALID PUSH5 0x736F6C6343 STOP ADDMOD EQ STOP CALLER "
				},
				"gasEstimates": {
					"creation": {
						"codeDepositCost": "1223000",
						"executionCost": "74101",
						"totalCost": "1297101"
					},
					"external": {
						"closeLottery()": "28792",
						"getPlayers()": "infinite",
						"lottery_state()": "2554",
						"manager()": "2506",
						"pickWinner()": "infinite",
						"players(uint256)": "5010",
						"requestVRF()": "infinite",
						"roundToWinner(uint256)": "2871"
					},
					"internal": {
						"checkVRFResponse()": "infinite"
					}
				},
				"methodIdentifiers": {
					"closeLottery()": "6fd09816",
					"getPlayers()": "8b5b9ccc",
					"lottery_state()": "81447999",
					"manager()": "481c6a75",
					"pickWinner()": "5d495aea",
					"players(uint256)": "f71d96cb",
					"requestVRF()": "6a385c04",
					"roundToWinner(uint256)": "8e51001d"
				}
			},
			"storageLayout": {
				"storage": [
					{
						"astId": 358,
						"contract": "docs.chain.link/samples/VRF/LotteryContract.sol:Lottery",
						"label": "manager",
						"offset": 0,
						"slot": "0",
						"type": "t_address_payable"
					},
					{
						"astId": 361,
						"contract": "docs.chain.link/samples/VRF/LotteryContract.sol:Lottery",
						"label": "players",
						"offset": 0,
						"slot": "1",
						"type": "t_array(t_address_payable)dyn_storage"
					},
					{
						"astId": 364,
						"contract": "docs.chain.link/samples/VRF/LotteryContract.sol:Lottery",
						"label": "consumerContract",
						"offset": 0,
						"slot": "2",
						"type": "t_contract(VRFv2Consumer)826"
					},
					{
						"astId": 366,
						"contract": "docs.chain.link/samples/VRF/LotteryContract.sol:Lottery",
						"label": "roundId",
						"offset": 0,
						"slot": "3",
						"type": "t_uint256"
					},
					{
						"astId": 370,
						"contract": "docs.chain.link/samples/VRF/LotteryContract.sol:Lottery",
						"label": "roundToWinner",
						"offset": 0,
						"slot": "4",
						"type": "t_mapping(t_uint256,t_address)"
					},
					{
						"astId": 377,
						"contract": "docs.chain.link/samples/VRF/LotteryContract.sol:Lottery",
						"label": "lottery_state",
						"offset": 0,
						"slot": "5",
						"type": "t_enum(LOTTERY_STATE)374"
					}
				],
				"types": {
					"t_address": {
						"encoding": "inplace",
						"label": "address",
						"numberOfBytes": "20"
					},
					"t_address_payable": {
						"encoding": "inplace",
						"label": "address payable",
						"numberOfBytes": "20"
					},
					"t_array(t_address_payable)dyn_storage": {
						"base": "t_address_payable",
						"encoding": "dynamic_array",
						"label": "address payable[]",
						"numberOfBytes": "32"
					},
					"t_contract(VRFv2Consumer)826": {
						"encoding": "inplace",
						"label": "contract VRFv2Consumer",
						"numberOfBytes": "20"
					},
					"t_enum(LOTTERY_STATE)374": {
						"encoding": "inplace",
						"label": "enum Lottery.LOTTERY_STATE",
						"numberOfBytes": "1"
					},
					"t_mapping(t_uint256,t_address)": {
						"encoding": "mapping",
						"key": "t_uint256",
						"label": "mapping(uint256 => address)",
						"numberOfBytes": "32",
						"value": "t_address"
					},
					"t_uint256": {
						"encoding": "inplace",
						"label": "uint256",
						"numberOfBytes": "32"
					}
				}
			},
			"userdoc": {
				"kind": "user",
				"methods": {},
				"version": 1
			}
		}
	}
}